{
  "contractName": "NftMarket",
  "abi": [
    {
      "inputs": [],
      "stateMutability": "nonpayable",
      "type": "constructor"
    },
    {
      "inputs": [
        {
          "internalType": "address",
          "name": "sender",
          "type": "address"
        },
        {
          "internalType": "uint256",
          "name": "tokenId",
          "type": "uint256"
        },
        {
          "internalType": "address",
          "name": "owner",
          "type": "address"
        }
      ],
      "name": "ERC721IncorrectOwner",
      "type": "error"
    },
    {
      "inputs": [
        {
          "internalType": "address",
          "name": "operator",
          "type": "address"
        },
        {
          "internalType": "uint256",
          "name": "tokenId",
          "type": "uint256"
        }
      ],
      "name": "ERC721InsufficientApproval",
      "type": "error"
    },
    {
      "inputs": [
        {
          "internalType": "address",
          "name": "approver",
          "type": "address"
        }
      ],
      "name": "ERC721InvalidApprover",
      "type": "error"
    },
    {
      "inputs": [
        {
          "internalType": "address",
          "name": "operator",
          "type": "address"
        }
      ],
      "name": "ERC721InvalidOperator",
      "type": "error"
    },
    {
      "inputs": [
        {
          "internalType": "address",
          "name": "owner",
          "type": "address"
        }
      ],
      "name": "ERC721InvalidOwner",
      "type": "error"
    },
    {
      "inputs": [
        {
          "internalType": "address",
          "name": "receiver",
          "type": "address"
        }
      ],
      "name": "ERC721InvalidReceiver",
      "type": "error"
    },
    {
      "inputs": [
        {
          "internalType": "address",
          "name": "sender",
          "type": "address"
        }
      ],
      "name": "ERC721InvalidSender",
      "type": "error"
    },
    {
      "inputs": [
        {
          "internalType": "uint256",
          "name": "tokenId",
          "type": "uint256"
        }
      ],
      "name": "ERC721NonexistentToken",
      "type": "error"
    },
    {
      "inputs": [
        {
          "internalType": "address",
          "name": "owner",
          "type": "address"
        }
      ],
      "name": "OwnableInvalidOwner",
      "type": "error"
    },
    {
      "inputs": [
        {
          "internalType": "address",
          "name": "account",
          "type": "address"
        }
      ],
      "name": "OwnableUnauthorizedAccount",
      "type": "error"
    },
    {
      "anonymous": false,
      "inputs": [
        {
          "indexed": true,
          "internalType": "address",
          "name": "owner",
          "type": "address"
        },
        {
          "indexed": true,
          "internalType": "address",
          "name": "approved",
          "type": "address"
        },
        {
          "indexed": true,
          "internalType": "uint256",
          "name": "tokenId",
          "type": "uint256"
        }
      ],
      "name": "Approval",
      "type": "event"
    },
    {
      "anonymous": false,
      "inputs": [
        {
          "indexed": true,
          "internalType": "address",
          "name": "owner",
          "type": "address"
        },
        {
          "indexed": true,
          "internalType": "address",
          "name": "operator",
          "type": "address"
        },
        {
          "indexed": false,
          "internalType": "bool",
          "name": "approved",
          "type": "bool"
        }
      ],
      "name": "ApprovalForAll",
      "type": "event"
    },
    {
      "anonymous": false,
      "inputs": [
        {
          "indexed": false,
          "internalType": "uint256",
          "name": "_fromTokenId",
          "type": "uint256"
        },
        {
          "indexed": false,
          "internalType": "uint256",
          "name": "_toTokenId",
          "type": "uint256"
        }
      ],
      "name": "BatchMetadataUpdate",
      "type": "event"
    },
    {
      "anonymous": false,
      "inputs": [
        {
          "indexed": false,
          "internalType": "uint256",
          "name": "_tokenId",
          "type": "uint256"
        }
      ],
      "name": "MetadataUpdate",
      "type": "event"
    },
    {
      "anonymous": false,
      "inputs": [
        {
          "indexed": false,
          "internalType": "uint256",
          "name": "tokenId",
          "type": "uint256"
        },
        {
          "indexed": false,
          "internalType": "uint256",
          "name": "price",
          "type": "uint256"
        },
        {
          "indexed": false,
          "internalType": "address",
          "name": "creator",
          "type": "address"
        },
        {
          "indexed": false,
          "internalType": "bool",
          "name": "isListed",
          "type": "bool"
        }
      ],
      "name": "NftItemCreated",
      "type": "event"
    },
    {
      "anonymous": false,
      "inputs": [
        {
          "indexed": true,
          "internalType": "address",
          "name": "previousOwner",
          "type": "address"
        },
        {
          "indexed": true,
          "internalType": "address",
          "name": "newOwner",
          "type": "address"
        }
      ],
      "name": "OwnershipTransferred",
      "type": "event"
    },
    {
      "anonymous": false,
      "inputs": [
        {
          "indexed": true,
          "internalType": "address",
          "name": "from",
          "type": "address"
        },
        {
          "indexed": true,
          "internalType": "address",
          "name": "to",
          "type": "address"
        },
        {
          "indexed": true,
          "internalType": "uint256",
          "name": "tokenId",
          "type": "uint256"
        }
      ],
      "name": "Transfer",
      "type": "event"
    },
    {
      "inputs": [
        {
          "internalType": "address",
          "name": "to",
          "type": "address"
        },
        {
          "internalType": "uint256",
          "name": "tokenId",
          "type": "uint256"
        }
      ],
      "name": "approve",
      "outputs": [],
      "stateMutability": "nonpayable",
      "type": "function"
    },
    {
      "inputs": [
        {
          "internalType": "address",
          "name": "owner",
          "type": "address"
        }
      ],
      "name": "balanceOf",
      "outputs": [
        {
          "internalType": "uint256",
          "name": "",
          "type": "uint256"
        }
      ],
      "stateMutability": "view",
      "type": "function",
      "constant": true
    },
    {
      "inputs": [
        {
          "internalType": "uint256",
          "name": "tokenId",
          "type": "uint256"
        }
      ],
      "name": "getApproved",
      "outputs": [
        {
          "internalType": "address",
          "name": "",
          "type": "address"
        }
      ],
      "stateMutability": "view",
      "type": "function",
      "constant": true
    },
    {
      "inputs": [
        {
          "internalType": "address",
          "name": "owner",
          "type": "address"
        },
        {
          "internalType": "address",
          "name": "operator",
          "type": "address"
        }
      ],
      "name": "isApprovedForAll",
      "outputs": [
        {
          "internalType": "bool",
          "name": "",
          "type": "bool"
        }
      ],
      "stateMutability": "view",
      "type": "function",
      "constant": true
    },
    {
      "inputs": [],
      "name": "listingPrice",
      "outputs": [
        {
          "internalType": "uint256",
          "name": "",
          "type": "uint256"
        }
      ],
      "stateMutability": "view",
      "type": "function",
      "constant": true
    },
    {
      "inputs": [],
      "name": "name",
      "outputs": [
        {
          "internalType": "string",
          "name": "",
          "type": "string"
        }
      ],
      "stateMutability": "view",
      "type": "function",
      "constant": true
    },
    {
      "inputs": [],
      "name": "owner",
      "outputs": [
        {
          "internalType": "address",
          "name": "",
          "type": "address"
        }
      ],
      "stateMutability": "view",
      "type": "function",
      "constant": true
    },
    {
      "inputs": [
        {
          "internalType": "uint256",
          "name": "tokenId",
          "type": "uint256"
        }
      ],
      "name": "ownerOf",
      "outputs": [
        {
          "internalType": "address",
          "name": "",
          "type": "address"
        }
      ],
      "stateMutability": "view",
      "type": "function",
      "constant": true
    },
    {
      "inputs": [],
      "name": "renounceOwnership",
      "outputs": [],
      "stateMutability": "nonpayable",
      "type": "function"
    },
    {
      "inputs": [
        {
          "internalType": "address",
          "name": "from",
          "type": "address"
        },
        {
          "internalType": "address",
          "name": "to",
          "type": "address"
        },
        {
          "internalType": "uint256",
          "name": "tokenId",
          "type": "uint256"
        }
      ],
      "name": "safeTransferFrom",
      "outputs": [],
      "stateMutability": "nonpayable",
      "type": "function"
    },
    {
      "inputs": [
        {
          "internalType": "address",
          "name": "from",
          "type": "address"
        },
        {
          "internalType": "address",
          "name": "to",
          "type": "address"
        },
        {
          "internalType": "uint256",
          "name": "tokenId",
          "type": "uint256"
        },
        {
          "internalType": "bytes",
          "name": "data",
          "type": "bytes"
        }
      ],
      "name": "safeTransferFrom",
      "outputs": [],
      "stateMutability": "nonpayable",
      "type": "function"
    },
    {
      "inputs": [
        {
          "internalType": "address",
          "name": "operator",
          "type": "address"
        },
        {
          "internalType": "bool",
          "name": "approved",
          "type": "bool"
        }
      ],
      "name": "setApprovalForAll",
      "outputs": [],
      "stateMutability": "nonpayable",
      "type": "function"
    },
    {
      "inputs": [
        {
          "internalType": "bytes4",
          "name": "interfaceId",
          "type": "bytes4"
        }
      ],
      "name": "supportsInterface",
      "outputs": [
        {
          "internalType": "bool",
          "name": "",
          "type": "bool"
        }
      ],
      "stateMutability": "view",
      "type": "function",
      "constant": true
    },
    {
      "inputs": [],
      "name": "symbol",
      "outputs": [
        {
          "internalType": "string",
          "name": "",
          "type": "string"
        }
      ],
      "stateMutability": "view",
      "type": "function",
      "constant": true
    },
    {
      "inputs": [
        {
          "internalType": "uint256",
          "name": "tokenId",
          "type": "uint256"
        }
      ],
      "name": "tokenURI",
      "outputs": [
        {
          "internalType": "string",
          "name": "",
          "type": "string"
        }
      ],
      "stateMutability": "view",
      "type": "function",
      "constant": true
    },
    {
      "inputs": [
        {
          "internalType": "address",
          "name": "from",
          "type": "address"
        },
        {
          "internalType": "address",
          "name": "to",
          "type": "address"
        },
        {
          "internalType": "uint256",
          "name": "tokenId",
          "type": "uint256"
        }
      ],
      "name": "transferFrom",
      "outputs": [],
      "stateMutability": "nonpayable",
      "type": "function"
    },
    {
      "inputs": [
        {
          "internalType": "address",
          "name": "newOwner",
          "type": "address"
        }
      ],
      "name": "transferOwnership",
      "outputs": [],
      "stateMutability": "nonpayable",
      "type": "function"
    },
    {
      "inputs": [
        {
          "internalType": "uint256",
          "name": "newPrice",
          "type": "uint256"
        }
      ],
      "name": "setListingPrice",
      "outputs": [],
      "stateMutability": "nonpayable",
      "type": "function"
    },
    {
      "inputs": [
        {
          "internalType": "string",
          "name": "tokenURI",
          "type": "string"
        }
      ],
      "name": "tokenURIExist",
      "outputs": [
        {
          "internalType": "bool",
          "name": "",
          "type": "bool"
        }
      ],
      "stateMutability": "view",
      "type": "function",
      "constant": true
    },
    {
      "inputs": [],
      "name": "totalSupply",
      "outputs": [
        {
          "internalType": "uint256",
          "name": "",
          "type": "uint256"
        }
      ],
      "stateMutability": "view",
      "type": "function",
      "constant": true
    },
    {
      "inputs": [
        {
          "internalType": "uint256",
          "name": "index",
          "type": "uint256"
        }
      ],
      "name": "tokenByIndex",
      "outputs": [
        {
          "internalType": "uint256",
          "name": "",
          "type": "uint256"
        }
      ],
      "stateMutability": "view",
      "type": "function",
      "constant": true
    },
    {
      "inputs": [
        {
          "internalType": "address",
          "name": "owner",
          "type": "address"
        },
        {
          "internalType": "uint256",
          "name": "index",
          "type": "uint256"
        }
      ],
      "name": "tokenOfOwnerByIndex",
      "outputs": [
        {
          "internalType": "uint256",
          "name": "",
          "type": "uint256"
        }
      ],
      "stateMutability": "view",
      "type": "function",
      "constant": true
    },
    {
      "inputs": [],
      "name": "getAllNftsOnSale",
      "outputs": [
        {
          "components": [
            {
              "internalType": "uint256",
              "name": "tokenId",
              "type": "uint256"
            },
            {
              "internalType": "uint256",
              "name": "price",
              "type": "uint256"
            },
            {
              "internalType": "address",
              "name": "creator",
              "type": "address"
            },
            {
              "internalType": "bool",
              "name": "isListed",
              "type": "bool"
            }
          ],
          "internalType": "struct NftMarket.NftItem[]",
          "name": "",
          "type": "tuple[]"
        }
      ],
      "stateMutability": "view",
      "type": "function",
      "constant": true
    },
    {
      "inputs": [],
      "name": "getOwnedNfts",
      "outputs": [
        {
          "components": [
            {
              "internalType": "uint256",
              "name": "tokenId",
              "type": "uint256"
            },
            {
              "internalType": "uint256",
              "name": "price",
              "type": "uint256"
            },
            {
              "internalType": "address",
              "name": "creator",
              "type": "address"
            },
            {
              "internalType": "bool",
              "name": "isListed",
              "type": "bool"
            }
          ],
          "internalType": "struct NftMarket.NftItem[]",
          "name": "",
          "type": "tuple[]"
        }
      ],
      "stateMutability": "view",
      "type": "function",
      "constant": true
    },
    {
      "inputs": [
        {
          "internalType": "uint256",
          "name": "tokenId",
          "type": "uint256"
        },
        {
          "internalType": "uint256",
          "name": "newPrice",
          "type": "uint256"
        }
      ],
      "name": "placeNftOnSale",
      "outputs": [],
      "stateMutability": "payable",
      "type": "function",
      "payable": true
    },
    {
      "inputs": [
        {
          "internalType": "uint256",
          "name": "tokenId",
          "type": "uint256"
        }
      ],
      "name": "getNftItem",
      "outputs": [
        {
          "components": [
            {
              "internalType": "uint256",
              "name": "tokenId",
              "type": "uint256"
            },
            {
              "internalType": "uint256",
              "name": "price",
              "type": "uint256"
            },
            {
              "internalType": "address",
              "name": "creator",
              "type": "address"
            },
            {
              "internalType": "bool",
              "name": "isListed",
              "type": "bool"
            }
          ],
          "internalType": "struct NftMarket.NftItem",
          "name": "",
          "type": "tuple"
        }
      ],
      "stateMutability": "view",
      "type": "function",
      "constant": true
    },
    {
      "inputs": [],
      "name": "listedItemsCount",
      "outputs": [
        {
          "internalType": "uint256",
          "name": "",
          "type": "uint256"
        }
      ],
      "stateMutability": "view",
      "type": "function",
      "constant": true
    },
    {
      "inputs": [
        {
          "internalType": "string",
          "name": "tokenURI",
          "type": "string"
        },
        {
          "internalType": "uint256",
          "name": "price",
          "type": "uint256"
        }
      ],
      "name": "mintToken",
      "outputs": [
        {
          "internalType": "uint256",
          "name": "",
          "type": "uint256"
        }
      ],
      "stateMutability": "payable",
      "type": "function",
      "payable": true
    },
    {
      "inputs": [
        {
          "internalType": "uint256",
          "name": "tokenId",
          "type": "uint256"
        }
      ],
      "name": "buyNft",
      "outputs": [],
      "stateMutability": "payable",
      "type": "function",
      "payable": true
    }
  ],
  "bytecode": "0x60806040526703782dace9d90000600b553480156200001d57600080fd5b506200002e6200014d60201b60201c565b6040518060400160405280600c81526020017f4372656174757265734e465400000000000000000000000000000000000000008152506040518060400160405280600481526020017f434e4654000000000000000000000000000000000000000000000000000000008152508160009081620000ab919062000495565b508060019081620000bd919062000495565b505050600073ffffffffffffffffffffffffffffffffffffffff168173ffffffffffffffffffffffffffffffffffffffff1603620001355760006040517f1e4fbdf70000000000000000000000000000000000000000000000000000000081526004016200012c9190620005c1565b60405180910390fd5b62000146816200015560201b60201c565b50620005de565b600033905090565b6000600760009054906101000a900473ffffffffffffffffffffffffffffffffffffffff16905081600760006101000a81548173ffffffffffffffffffffffffffffffffffffffff021916908373ffffffffffffffffffffffffffffffffffffffff1602179055508173ffffffffffffffffffffffffffffffffffffffff168173ffffffffffffffffffffffffffffffffffffffff167f8be0079c531659141344cd1fd0a4f28419497f9722a3daafe3b4186f6b6457e060405160405180910390a35050565b600081519050919050565b7f4e487b7100000000000000000000000000000000000000000000000000000000600052604160045260246000fd5b7f4e487b7100000000000000000000000000000000000000000000000000000000600052602260045260246000fd5b600060028204905060018216806200029d57607f821691505b602082108103620002b357620002b262000255565b5b50919050565b60008190508160005260206000209050919050565b60006020601f8301049050919050565b600082821b905092915050565b6000600883026200031d7fffffffffffffffffffffffffffffffffffffffffffffffffffffffffffffffff82620002de565b620003298683620002de565b95508019841693508086168417925050509392505050565b6000819050919050565b6000819050919050565b600062000376620003706200036a8462000341565b6200034b565b62000341565b9050919050565b6000819050919050565b620003928362000355565b620003aa620003a1826200037d565b848454620002eb565b825550505050565b600090565b620003c1620003b2565b620003ce81848462000387565b505050565b5b81811015620003f657620003ea600082620003b7565b600181019050620003d4565b5050565b601f82111562000445576200040f81620002b9565b6200041a84620002ce565b810160208510156200042a578190505b620004426200043985620002ce565b830182620003d3565b50505b505050565b600082821c905092915050565b60006200046a600019846008026200044a565b1980831691505092915050565b600062000485838362000457565b9150826002028217905092915050565b620004a0826200021b565b67ffffffffffffffff811115620004bc57620004bb62000226565b5b620004c8825462000284565b620004d5828285620003fa565b600060209050601f8311600181146200050d5760008415620004f8578287015190505b62000504858262000477565b86555062000574565b601f1984166200051d86620002b9565b60005b82811015620005475784890151825560018201915060208501945060208101905062000520565b8683101562000567578489015162000563601f89168262000457565b8355505b6001600288020188555050505b505050505050565b600073ffffffffffffffffffffffffffffffffffffffff82169050919050565b6000620005a9826200057c565b9050919050565b620005bb816200059c565b82525050565b6000602082019050620005d86000830184620005b0565b92915050565b6143b680620005ee6000396000f3fe6080604052600436106101c25760003560e01c806370a08231116100f7578063ae1fef8711610095578063c87b56dd11610064578063c87b56dd14610651578063ccb4918d1461068e578063e985e9c5146106b9578063f2fde38b146106f6576101c2565b8063ae1fef8714610590578063b88d4fde146105cd578063c046372c146105f6578063c78f19f914610626576101c2565b80637c726b69116100d15780637c726b69146104e85780638da5cb5b1461051157806395d89b411461053c578063a22cb46514610567576101c2565b806370a082311461046957806370cbcb43146104a6578063715018a6146104d1576101c2565b8063243adbdd1161016457806342842e0e1161013e57806342842e0e146103895780634f6ccce7146103b25780636352211e146103ef5780636f1a0af51461042c576101c2565b8063243adbdd146103055780632f745c591461032157806336b536be1461035e576101c2565b8063095ea7b3116101a0578063095ea7b31461026c57806318160ddd1461029557806321f422e5146102c057806323b872dd146102dc576101c2565b806301ffc9a7146101c757806306fdde0314610204578063081812fc1461022f575b600080fd5b3480156101d357600080fd5b506101ee60048036038101906101e99190612fb0565b61071f565b6040516101fb9190612ff8565b60405180910390f35b34801561021057600080fd5b50610219610780565b60405161022691906130a3565b60405180910390f35b34801561023b57600080fd5b50610256600480360381019061025191906130fb565b610812565b6040516102639190613169565b60405180910390f35b34801561027857600080fd5b50610293600480360381019061028e91906131b0565b61082e565b005b3480156102a157600080fd5b506102aa610844565b6040516102b791906131ff565b60405180910390f35b6102da60048036038101906102d5919061321a565b610851565b005b3480156102e857600080fd5b5061030360048036038101906102fe919061325a565b6109e4565b005b61031f600480360381019061031a91906130fb565b610ae6565b005b34801561032d57600080fd5b50610348600480360381019061034391906131b0565b610cb1565b60405161035591906131ff565b60405180910390f35b34801561036a57600080fd5b50610373610d56565b60405161038091906133de565b60405180910390f35b34801561039557600080fd5b506103b060048036038101906103ab919061325a565b610ee9565b005b3480156103be57600080fd5b506103d960048036038101906103d491906130fb565b610f09565b6040516103e691906131ff565b60405180910390f35b3480156103fb57600080fd5b50610416600480360381019061041191906130fb565b610f7a565b6040516104239190613169565b60405180910390f35b34801561043857600080fd5b50610453600480360381019061044e91906130fb565b610f8c565b6040516104609190613455565b60405180910390f35b34801561047557600080fd5b50610490600480360381019061048b9190613470565b61103e565b60405161049d91906131ff565b60405180910390f35b3480156104b257600080fd5b506104bb6110f8565b6040516104c891906133de565b60405180910390f35b3480156104dd57600080fd5b506104e661126a565b005b3480156104f457600080fd5b5061050f600480360381019061050a91906130fb565b61127e565b005b34801561051d57600080fd5b506105266112d3565b6040516105339190613169565b60405180910390f35b34801561054857600080fd5b506105516112fd565b60405161055e91906130a3565b60405180910390f35b34801561057357600080fd5b5061058e600480360381019061058991906134c9565b61138f565b005b34801561059c57600080fd5b506105b760048036038101906105b2919061363e565b6113a5565b6040516105c49190612ff8565b60405180910390f35b3480156105d957600080fd5b506105f460048036038101906105ef9190613728565b6113e1565b005b610610600480360381019061060b91906137ab565b6113fe565b60405161061d91906131ff565b60405180910390f35b34801561063257600080fd5b5061063b61152e565b60405161064891906131ff565b60405180910390f35b34801561065d57600080fd5b50610678600480360381019061067391906130fb565b611534565b60405161068591906130a3565b60405180910390f35b34801561069a57600080fd5b506106a3611647565b6040516106b091906131ff565b60405180910390f35b3480156106c557600080fd5b506106e060048036038101906106db9190613807565b611651565b6040516106ed9190612ff8565b60405180910390f35b34801561070257600080fd5b5061071d60048036038101906107189190613470565b6116e5565b005b6000634906490660e01b7bffffffffffffffffffffffffffffffffffffffffffffffffffffffff1916827bffffffffffffffffffffffffffffffffffffffffffffffffffffffff1916148061077957506107788261176b565b5b9050919050565b60606000805461078f90613876565b80601f01602080910402602001604051908101604052809291908181526020018280546107bb90613876565b80156108085780601f106107dd57610100808354040283529160200191610808565b820191906000526020600020905b8154815290600101906020018083116107eb57829003601f168201915b5050505050905090565b600061081d8261184d565b50610827826118d5565b9050919050565b610840828261083b611912565b61191a565b5050565b6000600a80549050905090565b610859611912565b73ffffffffffffffffffffffffffffffffffffffff166108788361192c565b73ffffffffffffffffffffffffffffffffffffffff16146108ce576040517f08c379a00000000000000000000000000000000000000000000000000000000081526004016108c5906138f3565b60405180910390fd5b60001515600d600084815260200190815260200160002060020160149054906101000a900460ff16151514610938576040517f08c379a000000000000000000000000000000000000000000000000000000000815260040161092f9061395f565b60405180910390fd5b600b54341461097c576040517f08c379a0000000000000000000000000000000000000000000000000000000008152600401610973906139f1565b60405180910390fd5b6001600d600084815260200190815260200160002060020160146101000a81548160ff02191690831515021790555080600d6000848152602001908152602001600020600101819055506001600860008282546109d99190613a40565b925050819055505050565b600073ffffffffffffffffffffffffffffffffffffffff168273ffffffffffffffffffffffffffffffffffffffff1603610a565760006040517f64a0ae92000000000000000000000000000000000000000000000000000000008152600401610a4d9190613169565b60405180910390fd5b6000610a6a8383610a65611912565b611969565b90508373ffffffffffffffffffffffffffffffffffffffff168173ffffffffffffffffffffffffffffffffffffffff1614610ae0578382826040517f64283d7b000000000000000000000000000000000000000000000000000000008152600401610ad793929190613a74565b60405180910390fd5b50505050565b6000600d60008381526020019081526020016000206001015490506000610b0c83610f7a565b9050600060085411610b53576040517f08c379a0000000000000000000000000000000000000000000000000000000008152600401610b4a90613af7565b60405180910390fd5b8073ffffffffffffffffffffffffffffffffffffffff16610b72611912565b73ffffffffffffffffffffffffffffffffffffffff1603610bc8576040517f08c379a0000000000000000000000000000000000000000000000000000000008152600401610bbf90613b63565b60405180910390fd5b813414610c0a576040517f08c379a0000000000000000000000000000000000000000000000000000000008152600401610c0190613bcf565b60405180910390fd5b6000600d600085815260200190815260200160002060020160146101000a81548160ff021916908315150217905550600160086000828254610c4c9190613bef565b92505081905550610c6581610c5f611912565b85611a86565b8073ffffffffffffffffffffffffffffffffffffffff166108fc349081150290604051600060405180830381858888f19350505050158015610cab573d6000803e3d6000fd5b50505050565b6000610cbc8361103e565b8210610cfd576040517f08c379a0000000000000000000000000000000000000000000000000000000008152600401610cf490613c6f565b60405180910390fd5b600f60008473ffffffffffffffffffffffffffffffffffffffff1673ffffffffffffffffffffffffffffffffffffffff168152602001908152602001600020600083815260200190815260200160002054905092915050565b60606000610d62610844565b905060008060085467ffffffffffffffff811115610d8357610d82613513565b5b604051908082528060200260200182016040528015610dbc57816020015b610da9612f04565b815260200190600190039081610da15790505b50905060005b83811015610edf576000610dd582610f09565b90506000600d60008381526020019081526020016000209050600115158160020160149054906101000a900460ff16151503610eca578060405180608001604052908160008201548152602001600182015481526020016002820160009054906101000a900473ffffffffffffffffffffffffffffffffffffffff1673ffffffffffffffffffffffffffffffffffffffff1673ffffffffffffffffffffffffffffffffffffffff1681526020016002820160149054906101000a900460ff161515151581525050848681518110610eaf57610eae613c8f565b5b6020026020010181905250600185610ec79190613a40565b94505b50508080610ed790613cbe565b915050610dc2565b5080935050505090565b610f04838383604051806020016040528060008152506113e1565b505050565b6000610f13610844565b8210610f54576040517f08c379a0000000000000000000000000000000000000000000000000000000008152600401610f4b90613c6f565b60405180910390fd5b600a8281548110610f6857610f67613c8f565b5b90600052602060002001549050919050565b6000610f858261184d565b9050919050565b610f94612f04565b600d600083815260200190815260200160002060405180608001604052908160008201548152602001600182015481526020016002820160009054906101000a900473ffffffffffffffffffffffffffffffffffffffff1673ffffffffffffffffffffffffffffffffffffffff1673ffffffffffffffffffffffffffffffffffffffff1681526020016002820160149054906101000a900460ff1615151515815250509050919050565b60008073ffffffffffffffffffffffffffffffffffffffff168273ffffffffffffffffffffffffffffffffffffffff16036110b15760006040517f89c62b640000000000000000000000000000000000000000000000000000000081526004016110a89190613169565b60405180910390fd5b600360008373ffffffffffffffffffffffffffffffffffffffff1673ffffffffffffffffffffffffffffffffffffffff168152602001908152602001600020549050919050565b6060600061110c611107611912565b61103e565b905060008167ffffffffffffffff81111561112a57611129613513565b5b60405190808252806020026020018201604052801561116357816020015b611150612f04565b8152602001906001900390816111485790505b50905060005b8281101561126157600061118461117e611912565b83610cb1565b90506000600d600083815260200190815260200160002090508060405180608001604052908160008201548152602001600182015481526020016002820160009054906101000a900473ffffffffffffffffffffffffffffffffffffffff1673ffffffffffffffffffffffffffffffffffffffff1673ffffffffffffffffffffffffffffffffffffffff1681526020016002820160149054906101000a900460ff16151515158152505084848151811061124157611240613c8f565b5b60200260200101819052505050808061125990613cbe565b915050611169565b50809250505090565b611272611aa6565b61127c6000611b2d565b565b611286611aa6565b600081116112c9576040517f08c379a00000000000000000000000000000000000000000000000000000000081526004016112c090613d52565b60405180910390fd5b80600b8190555050565b6000600760009054906101000a900473ffffffffffffffffffffffffffffffffffffffff16905090565b60606001805461130c90613876565b80601f016020809104026020016040519081016040528092919081815260200182805461133890613876565b80156113855780601f1061135a57610100808354040283529160200191611385565b820191906000526020600020905b81548152906001019060200180831161136857829003601f168201915b5050505050905090565b6113a161139a611912565b8383611bf3565b5050565b600060011515600c836040516113bb9190613dae565b908152602001604051809103902060009054906101000a900460ff161515149050919050565b6113ec8484846109e4565b6113f884848484611d62565b50505050565b6000611409836113a5565b15611449576040517f08c379a000000000000000000000000000000000000000000000000000000000815260040161144090613e11565b60405180910390fd5b600b54341461148d576040517f08c379a000000000000000000000000000000000000000000000000000000000815260040161148490613ea3565b60405180910390fd5b6001600960008282546114a09190613a40565b925050819055506001600860008282546114ba9190613a40565b92505081905550600060095490506114d96114d3611912565b82611f19565b6114e38185611f37565b6001600c856040516114f59190613dae565b908152602001604051809103902060006101000a81548160ff0219169083151502179055506115248184611f93565b8091505092915050565b600b5481565b606061153f8261184d565b50600060066000848152602001908152602001600020805461156090613876565b80601f016020809104026020016040519081016040528092919081815260200182805461158c90613876565b80156115d95780601f106115ae576101008083540402835291602001916115d9565b820191906000526020600020905b8154815290600101906020018083116115bc57829003601f168201915b5050505050905060006115ea6120e3565b905060008151036115ff578192505050611642565b60008251111561163457808260405160200161161c929190613ec3565b60405160208183030381529060405292505050611642565b61163d846120fa565b925050505b919050565b6000600854905090565b6000600560008473ffffffffffffffffffffffffffffffffffffffff1673ffffffffffffffffffffffffffffffffffffffff16815260200190815260200160002060008373ffffffffffffffffffffffffffffffffffffffff1673ffffffffffffffffffffffffffffffffffffffff16815260200190815260200160002060009054906101000a900460ff16905092915050565b6116ed611aa6565b600073ffffffffffffffffffffffffffffffffffffffff168173ffffffffffffffffffffffffffffffffffffffff160361175f5760006040517f1e4fbdf70000000000000000000000000000000000000000000000000000000081526004016117569190613169565b60405180910390fd5b61176881611b2d565b50565b60007f80ac58cd000000000000000000000000000000000000000000000000000000007bffffffffffffffffffffffffffffffffffffffffffffffffffffffff1916827bffffffffffffffffffffffffffffffffffffffffffffffffffffffff1916148061183657507f5b5e139f000000000000000000000000000000000000000000000000000000007bffffffffffffffffffffffffffffffffffffffffffffffffffffffff1916827bffffffffffffffffffffffffffffffffffffffffffffffffffffffff1916145b80611846575061184582612163565b5b9050919050565b6000806118598361192c565b9050600073ffffffffffffffffffffffffffffffffffffffff168173ffffffffffffffffffffffffffffffffffffffff16036118cc57826040517f7e2732890000000000000000000000000000000000000000000000000000000081526004016118c391906131ff565b60405180910390fd5b80915050919050565b60006004600083815260200190815260200160002060009054906101000a900473ffffffffffffffffffffffffffffffffffffffff169050919050565b600033905090565b61192783838360016121cd565b505050565b60006002600083815260200190815260200160002060009054906101000a900473ffffffffffffffffffffffffffffffffffffffff169050919050565b600080611977858585612392565b9050600073ffffffffffffffffffffffffffffffffffffffff168173ffffffffffffffffffffffffffffffffffffffff16036119bb576119b6846125ac565b6119fa565b8473ffffffffffffffffffffffffffffffffffffffff168173ffffffffffffffffffffffffffffffffffffffff16146119f9576119f881856125f5565b5b5b600073ffffffffffffffffffffffffffffffffffffffff168573ffffffffffffffffffffffffffffffffffffffff1603611a3c57611a3784612756565b611a7b565b8073ffffffffffffffffffffffffffffffffffffffff168573ffffffffffffffffffffffffffffffffffffffff1614611a7a57611a798585612827565b5b5b809150509392505050565b611aa1838383604051806020016040528060008152506128bf565b505050565b611aae611912565b73ffffffffffffffffffffffffffffffffffffffff16611acc6112d3565b73ffffffffffffffffffffffffffffffffffffffff1614611b2b57611aef611912565b6040517f118cdaa7000000000000000000000000000000000000000000000000000000008152600401611b229190613169565b60405180910390fd5b565b6000600760009054906101000a900473ffffffffffffffffffffffffffffffffffffffff16905081600760006101000a81548173ffffffffffffffffffffffffffffffffffffffff021916908373ffffffffffffffffffffffffffffffffffffffff1602179055508173ffffffffffffffffffffffffffffffffffffffff168173ffffffffffffffffffffffffffffffffffffffff167f8be0079c531659141344cd1fd0a4f28419497f9722a3daafe3b4186f6b6457e060405160405180910390a35050565b600073ffffffffffffffffffffffffffffffffffffffff168273ffffffffffffffffffffffffffffffffffffffff1603611c6457816040517f5b08ba18000000000000000000000000000000000000000000000000000000008152600401611c5b9190613169565b60405180910390fd5b80600560008573ffffffffffffffffffffffffffffffffffffffff1673ffffffffffffffffffffffffffffffffffffffff16815260200190815260200160002060008473ffffffffffffffffffffffffffffffffffffffff1673ffffffffffffffffffffffffffffffffffffffff16815260200190815260200160002060006101000a81548160ff0219169083151502179055508173ffffffffffffffffffffffffffffffffffffffff168373ffffffffffffffffffffffffffffffffffffffff167f17307eab39ab6107e8899845ad3d59bd9653f200f220920489ca2b5937696c3183604051611d559190612ff8565b60405180910390a3505050565b60008373ffffffffffffffffffffffffffffffffffffffff163b1115611f13578273ffffffffffffffffffffffffffffffffffffffff1663150b7a02611da6611912565b8685856040518563ffffffff1660e01b8152600401611dc89493929190613f3c565b6020604051808303816000875af1925050508015611e0457506040513d601f19601f82011682018060405250810190611e019190613f9d565b60015b611e88573d8060008114611e34576040519150601f19603f3d011682016040523d82523d6000602084013e611e39565b606091505b506000815103611e8057836040517f64a0ae92000000000000000000000000000000000000000000000000000000008152600401611e779190613169565b60405180910390fd5b805181602001fd5b63150b7a0260e01b7bffffffffffffffffffffffffffffffffffffffffffffffffffffffff1916817bffffffffffffffffffffffffffffffffffffffffffffffffffffffff191614611f1157836040517f64a0ae92000000000000000000000000000000000000000000000000000000008152600401611f089190613169565b60405180910390fd5b505b50505050565b611f338282604051806020016040528060008152506128dc565b5050565b80600660008481526020019081526020016000209081611f579190614176565b507ff8e1a15aba9398e019f0b49df1a4fde98ee17ae345cb5f6b5e2c27f5033e8ce782604051611f8791906131ff565b60405180910390a15050565b60008111611fd6576040517f08c379a0000000000000000000000000000000000000000000000000000000008152600401611fcd90614294565b60405180910390fd5b60405180608001604052808381526020018281526020013373ffffffffffffffffffffffffffffffffffffffff16815260200160011515815250600d6000848152602001908152602001600020600082015181600001556020820151816001015560408201518160020160006101000a81548173ffffffffffffffffffffffffffffffffffffffff021916908373ffffffffffffffffffffffffffffffffffffffff16021790555060608201518160020160146101000a81548160ff0219169083151502179055509050507f470031062672bc0246e132c723a729c4676710ec663a29e86c88678032daddea82823360016040516120d794939291906142b4565b60405180910390a15050565b606060405180602001604052806000815250905090565b60606121058261184d565b5060006121106120e3565b90506000815111612130576040518060200160405280600081525061215b565b8061213a846128f8565b60405160200161214b929190613ec3565b6040516020818303038152906040525b915050919050565b60007f01ffc9a7000000000000000000000000000000000000000000000000000000007bffffffffffffffffffffffffffffffffffffffffffffffffffffffff1916827bffffffffffffffffffffffffffffffffffffffffffffffffffffffff1916149050919050565b80806122065750600073ffffffffffffffffffffffffffffffffffffffff168273ffffffffffffffffffffffffffffffffffffffff1614155b1561233a5760006122168461184d565b9050600073ffffffffffffffffffffffffffffffffffffffff168373ffffffffffffffffffffffffffffffffffffffff161415801561228157508273ffffffffffffffffffffffffffffffffffffffff168173ffffffffffffffffffffffffffffffffffffffff1614155b801561229457506122928184611651565b155b156122d657826040517fa9fbf51f0000000000000000000000000000000000000000000000000000000081526004016122cd9190613169565b60405180910390fd5b811561233857838573ffffffffffffffffffffffffffffffffffffffff168273ffffffffffffffffffffffffffffffffffffffff167f8c5be1e5ebec7d5bd14f71427d1e84f3dd0314c0f7b2291e5b200ac8c7c3b92560405160405180910390a45b505b836004600085815260200190815260200160002060006101000a81548173ffffffffffffffffffffffffffffffffffffffff021916908373ffffffffffffffffffffffffffffffffffffffff16021790555050505050565b60008061239e8461192c565b9050600073ffffffffffffffffffffffffffffffffffffffff168373ffffffffffffffffffffffffffffffffffffffff16146123e0576123df8184866129c6565b5b600073ffffffffffffffffffffffffffffffffffffffff168173ffffffffffffffffffffffffffffffffffffffff1614612471576124226000856000806121cd565b6001600360008373ffffffffffffffffffffffffffffffffffffffff1673ffffffffffffffffffffffffffffffffffffffff168152602001908152602001600020600082825403925050819055505b600073ffffffffffffffffffffffffffffffffffffffff168573ffffffffffffffffffffffffffffffffffffffff16146124f4576001600360008773ffffffffffffffffffffffffffffffffffffffff1673ffffffffffffffffffffffffffffffffffffffff168152602001908152602001600020600082825401925050819055505b846002600086815260200190815260200160002060006101000a81548173ffffffffffffffffffffffffffffffffffffffff021916908373ffffffffffffffffffffffffffffffffffffffff160217905550838573ffffffffffffffffffffffffffffffffffffffff168273ffffffffffffffffffffffffffffffffffffffff167fddf252ad1be2c89b69c2b068fc378daa952ba7f163c4a11628f55a4df523b3ef60405160405180910390a4809150509392505050565b600a80549050600e600083815260200190815260200160002081905550600a81908060018154018082558091505060019003906000526020600020016000909190919091505550565b60006126008361103e565b90506000600e60008481526020019081526020016000205490508181146126e5576000600f60008673ffffffffffffffffffffffffffffffffffffffff1673ffffffffffffffffffffffffffffffffffffffff168152602001908152602001600020600084815260200190815260200160002054905080600f60008773ffffffffffffffffffffffffffffffffffffffff1673ffffffffffffffffffffffffffffffffffffffff168152602001908152602001600020600084815260200190815260200160002081905550816010600083815260200190815260200160002081905550505b6010600084815260200190815260200160002060009055600f60008573ffffffffffffffffffffffffffffffffffffffff1673ffffffffffffffffffffffffffffffffffffffff16815260200190815260200160002060008381526020019081526020016000206000905550505050565b60006001600a8054905061276a9190613bef565b90506000600e60008481526020019081526020016000205490506000600a838154811061279a57612799613c8f565b5b9060005260206000200154905080600a83815481106127bc576127bb613c8f565b5b906000526020600020018190555081600e600083815260200190815260200160002081905550600e600085815260200190815260200160002060009055600a80548061280b5761280a6142f9565b5b6001900381819060005260206000200160009055905550505050565b60006128328361103e565b9050600081111561284d5760018161284a9190613bef565b90505b81600f60008573ffffffffffffffffffffffffffffffffffffffff1673ffffffffffffffffffffffffffffffffffffffff168152602001908152602001600020600083815260200190815260200160002081905550806010600084815260200190815260200160002081905550505050565b6128ca848484612a8a565b6128d684848484611d62565b50505050565b6128e68383612bf7565b6128f36000848484611d62565b505050565b60606000600161290784612cf0565b01905060008167ffffffffffffffff81111561292657612925613513565b5b6040519080825280601f01601f1916602001820160405280156129585781602001600182028036833780820191505090505b509050600082602001820190505b6001156129bb578080600190039150507f3031323334353637383961626364656600000000000000000000000000000000600a86061a8153600a85816129af576129ae614328565b5b04945060008503612966575b819350505050919050565b6129d1838383612e43565b612a8557600073ffffffffffffffffffffffffffffffffffffffff168373ffffffffffffffffffffffffffffffffffffffff1603612a4657806040517f7e273289000000000000000000000000000000000000000000000000000000008152600401612a3d91906131ff565b60405180910390fd5b81816040517f177e802f000000000000000000000000000000000000000000000000000000008152600401612a7c929190614357565b60405180910390fd5b505050565b600073ffffffffffffffffffffffffffffffffffffffff168273ffffffffffffffffffffffffffffffffffffffff1603612afc5760006040517f64a0ae92000000000000000000000000000000000000000000000000000000008152600401612af39190613169565b60405180910390fd5b6000612b0a83836000611969565b9050600073ffffffffffffffffffffffffffffffffffffffff168173ffffffffffffffffffffffffffffffffffffffff1603612b7d57816040517f7e273289000000000000000000000000000000000000000000000000000000008152600401612b7491906131ff565b60405180910390fd5b8373ffffffffffffffffffffffffffffffffffffffff168173ffffffffffffffffffffffffffffffffffffffff1614612bf1578382826040517f64283d7b000000000000000000000000000000000000000000000000000000008152600401612be893929190613a74565b60405180910390fd5b50505050565b600073ffffffffffffffffffffffffffffffffffffffff168273ffffffffffffffffffffffffffffffffffffffff1603612c695760006040517f64a0ae92000000000000000000000000000000000000000000000000000000008152600401612c609190613169565b60405180910390fd5b6000612c7783836000611969565b9050600073ffffffffffffffffffffffffffffffffffffffff168173ffffffffffffffffffffffffffffffffffffffff1614612ceb5760006040517f73c6ac6e000000000000000000000000000000000000000000000000000000008152600401612ce29190613169565b60405180910390fd5b505050565b600080600090507a184f03e93ff9f4daa797ed6e38ed64bf6a1f0100000000000000008310612d4e577a184f03e93ff9f4daa797ed6e38ed64bf6a1f0100000000000000008381612d4457612d43614328565b5b0492506040810190505b6d04ee2d6d415b85acef81000000008310612d8b576d04ee2d6d415b85acef81000000008381612d8157612d80614328565b5b0492506020810190505b662386f26fc100008310612dba57662386f26fc100008381612db057612daf614328565b5b0492506010810190505b6305f5e1008310612de3576305f5e1008381612dd957612dd8614328565b5b0492506008810190505b6127108310612e08576127108381612dfe57612dfd614328565b5b0492506004810190505b60648310612e2b5760648381612e2157612e20614328565b5b0492506002810190505b600a8310612e3a576001810190505b80915050919050565b60008073ffffffffffffffffffffffffffffffffffffffff168373ffffffffffffffffffffffffffffffffffffffff1614158015612efb57508273ffffffffffffffffffffffffffffffffffffffff168473ffffffffffffffffffffffffffffffffffffffff161480612ebc5750612ebb8484611651565b5b80612efa57508273ffffffffffffffffffffffffffffffffffffffff16612ee2836118d5565b73ffffffffffffffffffffffffffffffffffffffff16145b5b90509392505050565b60405180608001604052806000815260200160008152602001600073ffffffffffffffffffffffffffffffffffffffff1681526020016000151581525090565b6000604051905090565b600080fd5b600080fd5b60007fffffffff0000000000000000000000000000000000000000000000000000000082169050919050565b612f8d81612f58565b8114612f9857600080fd5b50565b600081359050612faa81612f84565b92915050565b600060208284031215612fc657612fc5612f4e565b5b6000612fd484828501612f9b565b91505092915050565b60008115159050919050565b612ff281612fdd565b82525050565b600060208201905061300d6000830184612fe9565b92915050565b600081519050919050565b600082825260208201905092915050565b60005b8381101561304d578082015181840152602081019050613032565b60008484015250505050565b6000601f19601f8301169050919050565b600061307582613013565b61307f818561301e565b935061308f81856020860161302f565b61309881613059565b840191505092915050565b600060208201905081810360008301526130bd818461306a565b905092915050565b6000819050919050565b6130d8816130c5565b81146130e357600080fd5b50565b6000813590506130f5816130cf565b92915050565b60006020828403121561311157613110612f4e565b5b600061311f848285016130e6565b91505092915050565b600073ffffffffffffffffffffffffffffffffffffffff82169050919050565b600061315382613128565b9050919050565b61316381613148565b82525050565b600060208201905061317e600083018461315a565b92915050565b61318d81613148565b811461319857600080fd5b50565b6000813590506131aa81613184565b92915050565b600080604083850312156131c7576131c6612f4e565b5b60006131d58582860161319b565b92505060206131e6858286016130e6565b9150509250929050565b6131f9816130c5565b82525050565b600060208201905061321460008301846131f0565b92915050565b6000806040838503121561323157613230612f4e565b5b600061323f858286016130e6565b9250506020613250858286016130e6565b9150509250929050565b60008060006060848603121561327357613272612f4e565b5b60006132818682870161319b565b93505060206132928682870161319b565b92505060406132a3868287016130e6565b9150509250925092565b600081519050919050565b600082825260208201905092915050565b6000819050602082019050919050565b6132e2816130c5565b82525050565b6132f181613148565b82525050565b61330081612fdd565b82525050565b60808201600082015161331c60008501826132d9565b50602082015161332f60208501826132d9565b50604082015161334260408501826132e8565b50606082015161335560608501826132f7565b50505050565b60006133678383613306565b60808301905092915050565b6000602082019050919050565b600061338b826132ad565b61339581856132b8565b93506133a0836132c9565b8060005b838110156133d15781516133b8888261335b565b97506133c383613373565b9250506001810190506133a4565b5085935050505092915050565b600060208201905081810360008301526133f88184613380565b905092915050565b60808201600082015161341660008501826132d9565b50602082015161342960208501826132d9565b50604082015161343c60408501826132e8565b50606082015161344f60608501826132f7565b50505050565b600060808201905061346a6000830184613400565b92915050565b60006020828403121561348657613485612f4e565b5b60006134948482850161319b565b91505092915050565b6134a681612fdd565b81146134b157600080fd5b50565b6000813590506134c38161349d565b92915050565b600080604083850312156134e0576134df612f4e565b5b60006134ee8582860161319b565b92505060206134ff858286016134b4565b9150509250929050565b600080fd5b600080fd5b7f4e487b7100000000000000000000000000000000000000000000000000000000600052604160045260246000fd5b61354b82613059565b810181811067ffffffffffffffff8211171561356a57613569613513565b5b80604052505050565b600061357d612f44565b90506135898282613542565b919050565b600067ffffffffffffffff8211156135a9576135a8613513565b5b6135b282613059565b9050602081019050919050565b82818337600083830152505050565b60006135e16135dc8461358e565b613573565b9050828152602081018484840111156135fd576135fc61350e565b5b6136088482856135bf565b509392505050565b600082601f83011261362557613624613509565b5b81356136358482602086016135ce565b91505092915050565b60006020828403121561365457613653612f4e565b5b600082013567ffffffffffffffff81111561367257613671612f53565b5b61367e84828501613610565b91505092915050565b600067ffffffffffffffff8211156136a2576136a1613513565b5b6136ab82613059565b9050602081019050919050565b60006136cb6136c684613687565b613573565b9050828152602081018484840111156136e7576136e661350e565b5b6136f28482856135bf565b509392505050565b600082601f83011261370f5761370e613509565b5b813561371f8482602086016136b8565b91505092915050565b6000806000806080858703121561374257613741612f4e565b5b60006137508782880161319b565b94505060206137618782880161319b565b9350506040613772878288016130e6565b925050606085013567ffffffffffffffff81111561379357613792612f53565b5b61379f878288016136fa565b91505092959194509250565b600080604083850312156137c2576137c1612f4e565b5b600083013567ffffffffffffffff8111156137e0576137df612f53565b5b6137ec85828601613610565b92505060206137fd858286016130e6565b9150509250929050565b6000806040838503121561381e5761381d612f4e565b5b600061382c8582860161319b565b925050602061383d8582860161319b565b9150509250929050565b7f4e487b7100000000000000000000000000000000000000000000000000000000600052602260045260246000fd5b6000600282049050600182168061388e57607f821691505b6020821081036138a1576138a0613847565b5b50919050565b7f796f7520617265206e6f74206f776e6572206f662074686973206e6674000000600082015250565b60006138dd601d8361301e565b91506138e8826138a7565b602082019050919050565b6000602082019050818103600083015261390c816138d0565b9050919050565b7f4974656d20697320616c65616479206f6e2073616c6500000000000000000000600082015250565b600061394960168361301e565b915061395482613913565b602082019050919050565b600060208201905081810360008301526139788161393c565b9050919050565b7f7072696365206d75737420626520657175616c20746f206c697374696e67207060008201527f7269636500000000000000000000000000000000000000000000000000000000602082015250565b60006139db60248361301e565b91506139e68261397f565b604082019050919050565b60006020820190508181036000830152613a0a816139ce565b9050919050565b7f4e487b7100000000000000000000000000000000000000000000000000000000600052601160045260246000fd5b6000613a4b826130c5565b9150613a56836130c5565b9250828201905080821115613a6e57613a6d613a11565b5b92915050565b6000606082019050613a89600083018661315a565b613a9660208301856131f0565b613aa3604083018461315a565b949350505050565b7f546865726520617265206e6f204e46547320666f722073616c65000000000000600082015250565b6000613ae1601a8361301e565b9150613aec82613aab565b602082019050919050565b60006020820190508181036000830152613b1081613ad4565b9050919050565b7f596f7520616c7265616479206f776e2074686973204e46540000000000000000600082015250565b6000613b4d60188361301e565b9150613b5882613b17565b602082019050919050565b60006020820190508181036000830152613b7c81613b40565b9050919050565b7f506c656173652c207375626d6974207468652061736b696e6720707269636500600082015250565b6000613bb9601f8361301e565b9150613bc482613b83565b602082019050919050565b60006020820190508181036000830152613be881613bac565b9050919050565b6000613bfa826130c5565b9150613c05836130c5565b9250828203905081811115613c1d57613c1c613a11565b5b92915050565b7f496e646578206f7574206f6620626f756e647300000000000000000000000000600082015250565b6000613c5960138361301e565b9150613c6482613c23565b602082019050919050565b60006020820190508181036000830152613c8881613c4c565b9050919050565b7f4e487b7100000000000000000000000000000000000000000000000000000000600052603260045260246000fd5b6000613cc9826130c5565b91507fffffffffffffffffffffffffffffffffffffffffffffffffffffffffffffffff8203613cfb57613cfa613a11565b5b600182019050919050565b7f7072696365206d757374206265206174206c6561737420312077656900000000600082015250565b6000613d3c601c8361301e565b9150613d4782613d06565b602082019050919050565b60006020820190508181036000830152613d6b81613d2f565b9050919050565b600081905092915050565b6000613d8882613013565b613d928185613d72565b9350613da281856020860161302f565b80840191505092915050565b6000613dba8284613d7d565b915081905092915050565b7f546f6b656e2055524920616c7265616479206578697374730000000000000000600082015250565b6000613dfb60188361301e565b9150613e0682613dc5565b602082019050919050565b60006020820190508181036000830152613e2a81613dee565b9050919050565b7f5072696365206d75737420626520657175616c206c697374696e67207072696360008201527f6500000000000000000000000000000000000000000000000000000000000000602082015250565b6000613e8d60218361301e565b9150613e9882613e31565b604082019050919050565b60006020820190508181036000830152613ebc81613e80565b9050919050565b6000613ecf8285613d7d565b9150613edb8284613d7d565b91508190509392505050565b600081519050919050565b600082825260208201905092915050565b6000613f0e82613ee7565b613f188185613ef2565b9350613f2881856020860161302f565b613f3181613059565b840191505092915050565b6000608082019050613f51600083018761315a565b613f5e602083018661315a565b613f6b60408301856131f0565b8181036060830152613f7d8184613f03565b905095945050505050565b600081519050613f9781612f84565b92915050565b600060208284031215613fb357613fb2612f4e565b5b6000613fc184828501613f88565b91505092915050565b60008190508160005260206000209050919050565b60006020601f8301049050919050565b600082821b905092915050565b60006008830261402c7fffffffffffffffffffffffffffffffffffffffffffffffffffffffffffffffff82613fef565b6140368683613fef565b95508019841693508086168417925050509392505050565b6000819050919050565b600061407361406e614069846130c5565b61404e565b6130c5565b9050919050565b6000819050919050565b61408d83614058565b6140a16140998261407a565b848454613ffc565b825550505050565b600090565b6140b66140a9565b6140c1818484614084565b505050565b5b818110156140e5576140da6000826140ae565b6001810190506140c7565b5050565b601f82111561412a576140fb81613fca565b61410484613fdf565b81016020851015614113578190505b61412761411f85613fdf565b8301826140c6565b50505b505050565b600082821c905092915050565b600061414d6000198460080261412f565b1980831691505092915050565b6000614166838361413c565b9150826002028217905092915050565b61417f82613013565b67ffffffffffffffff81111561419857614197613513565b5b6141a28254613876565b6141ad8282856140e9565b600060209050601f8311600181146141e057600084156141ce578287015190505b6141d8858261415a565b865550614240565b601f1984166141ee86613fca565b60005b82811015614216578489015182556001820191506020850194506020810190506141f1565b86831015614233578489015161422f601f89168261413c565b8355505b6001600288020188555050505b505050505050565b7f7072696365206d6f7374206265206174206c6561737420312077656900000000600082015250565b600061427e601c8361301e565b915061428982614248565b602082019050919050565b600060208201905081810360008301526142ad81614271565b9050919050565b60006080820190506142c960008301876131f0565b6142d660208301866131f0565b6142e3604083018561315a565b6142f06060830184612fe9565b95945050505050565b7f4e487b7100000000000000000000000000000000000000000000000000000000600052603160045260246000fd5b7f4e487b7100000000000000000000000000000000000000000000000000000000600052601260045260246000fd5b600060408201905061436c600083018561315a565b61437960208301846131f0565b939250505056fea26469706673582212204cda7de77005cc3441c32783a8d5f351a6db5709a86faa81d83e9ade038b91e864736f6c63430008140033",
  "immutableReferences": {},
  "source": "// SPDX-License-Identifier: MIT\r\n// Compatible with OpenZeppelin Contracts ^5.0.0\r\npragma solidity 0.8.20;\r\n\r\nimport \"@openzeppelin/contracts/token/ERC721/extensions/ERC721URIStorage.sol\";\r\nimport \"@openzeppelin/contracts/token/ERC721/ERC721.sol\";\r\nimport \"@openzeppelin/contracts/access/Ownable.sol\";\r\n\r\ncontract NftMarket is ERC721URIStorage, Ownable {\r\n    uint256 private _listedItems;\r\n    uint256 private _tokenIds;\r\n    uint256[] private _allNfts;\r\n\r\n    uint public listingPrice = 0.25 ether;\r\n\r\n    mapping(string => bool) private _usedTokenURIs;\r\n    mapping(uint => NftItem) private _idToNftItem;\r\n    mapping(uint => uint) private _idToNftIndex;\r\n    mapping(address => mapping(uint => uint)) private _ownedTokens;\r\n    mapping(uint => uint) private _idToOwnedIndex;\r\n\r\n    struct NftItem {\r\n        uint tokenId;\r\n        uint price;\r\n        address creator;\r\n        bool isListed;\r\n    }\r\n\r\n    event NftItemCreated(\r\n        uint tokenId,\r\n        uint price,\r\n        address creator,\r\n        bool isListed\r\n    );\r\n\r\n    constructor() ERC721(\"CreaturesNFT\", \"CNFT\") Ownable(_msgSender()) {}\r\n\r\n    function setListingPrice(uint newPrice) external onlyOwner {\r\n        require(newPrice > 0, \"price must be at least 1 wei\");\r\n        listingPrice = newPrice;\r\n    }\r\n\r\n    function tokenURIExist(string memory tokenURI) public view returns (bool) {\r\n        return _usedTokenURIs[tokenURI] == true;\r\n    }\r\n\r\n    function totalSupply() public view returns (uint) {\r\n        return _allNfts.length;\r\n    }\r\n\r\n    function tokenByIndex(uint index) public view returns (uint) {\r\n        require(index < totalSupply(), \"Index out of bounds\");\r\n        return _allNfts[index];\r\n    }\r\n\r\n    function tokenOfOwnerByIndex(\r\n        address owner,\r\n        uint index\r\n    ) public view returns (uint) {\r\n        require(index < ERC721.balanceOf(owner), \"Index out of bounds\");\r\n        return _ownedTokens[owner][index];\r\n    }\r\n\r\n    function getAllNftsOnSale() public view returns (NftItem[] memory) {\r\n        uint allItemsCounts = totalSupply();\r\n        uint currectIndex = 0;\r\n        NftItem[] memory items = new NftItem[](_listedItems);\r\n\r\n        for (uint256 index = 0; index < allItemsCounts; index++) {\r\n            uint tokenId = tokenByIndex(index);\r\n            NftItem storage item = _idToNftItem[tokenId];\r\n\r\n            if (item.isListed == true) {\r\n                items[currectIndex] = item;\r\n                currectIndex += 1;\r\n            }\r\n        }\r\n        return items;\r\n    }\r\n\r\n    function getOwnedNfts() public view returns (NftItem[] memory) {\r\n        uint ownedItemsCount = ERC721.balanceOf(_msgSender());\r\n        NftItem[] memory items = new NftItem[](ownedItemsCount);\r\n\r\n        for (uint i = 0; i < ownedItemsCount; i++) {\r\n            uint tokenId = tokenOfOwnerByIndex(_msgSender(), i);\r\n            NftItem storage item = _idToNftItem[tokenId];\r\n            items[i] = item;\r\n        }\r\n\r\n        return items;\r\n    }\r\n\r\n    function createNftItem(uint tokenId, uint price) private {\r\n        require(price > 0, \"price most be at least 1 wei\");\r\n        _idToNftItem[tokenId] = NftItem(tokenId, price, msg.sender, true);\r\n\r\n        emit NftItemCreated(tokenId, price, msg.sender, true);\r\n    }\r\n\r\n    function placeNftOnSale(uint tokenId, uint newPrice) public payable {\r\n        require(\r\n            _ownerOf(tokenId) == _msgSender(),\r\n            \"you are not owner of this nft\"\r\n        );\r\n        require(\r\n            _idToNftItem[tokenId].isListed == false,\r\n            \"Item is aleady on sale\"\r\n        );\r\n\r\n        require(\r\n            msg.value == listingPrice,\r\n            \"price must be equal to listing price\"\r\n        );\r\n\r\n        _idToNftItem[tokenId].isListed = true;\r\n        _idToNftItem[tokenId].price = newPrice;\r\n        _listedItems += 1;\r\n    }\r\n\r\n    function getNftItem(uint tokenId) public view returns (NftItem memory) {\r\n        return _idToNftItem[tokenId];\r\n    }\r\n\r\n    function listedItemsCount() public view returns (uint) {\r\n        return _listedItems;\r\n    }\r\n\r\n    function mintToken(\r\n        string memory tokenURI,\r\n        uint price\r\n    ) public payable returns (uint) {\r\n        require(!tokenURIExist(tokenURI), \"Token URI already exists\");\r\n        require(msg.value == listingPrice, \"Price must be equal listing price\");\r\n\r\n        _tokenIds += 1;\r\n        _listedItems += 1;\r\n\r\n        uint newTokenId = _tokenIds;\r\n\r\n        _safeMint(_msgSender(), newTokenId);\r\n        _setTokenURI(newTokenId, tokenURI);\r\n        _usedTokenURIs[tokenURI] = true;\r\n        createNftItem(newTokenId, price);\r\n\r\n        return newTokenId;\r\n    }\r\n\r\n    function buyNft(uint tokenId) public payable {\r\n        uint price = _idToNftItem[tokenId].price;\r\n        address owner = ERC721.ownerOf(tokenId);\r\n\r\n        require(_listedItems > 0, \"There are no NFTs for sale\");\r\n        require(_msgSender() != owner, \"You already own this NFT\");\r\n        require(msg.value == price, \"Please, submit the asking price\");\r\n\r\n        _idToNftItem[tokenId].isListed = false;\r\n        _listedItems -= 1;\r\n\r\n        _safeTransfer(owner, _msgSender(), tokenId);\r\n        payable(owner).transfer(msg.value);\r\n    }\r\n\r\n    function _update(\r\n        address to,\r\n        uint256 tokenId,\r\n        address auth\r\n    ) internal virtual override returns (address) {\r\n        address previousOwner = super._update(to, tokenId, auth);\r\n\r\n        if (previousOwner == address(0)) {\r\n            _addTokenToAllTokensEnumeration(tokenId);\r\n        } else if (previousOwner != to) {\r\n            _removeTokenFromOwnerEnumeration(previousOwner, tokenId);\r\n        }\r\n\r\n        if (to == address(0)) {\r\n            _removeTokenFromAllTokensEnumeration(tokenId);\r\n        } else if (to != previousOwner) {\r\n            _addTokenToOwnerEnumeration(to, tokenId);\r\n        }\r\n\r\n        return previousOwner;\r\n    }\r\n\r\n    function _addTokenToAllTokensEnumeration(uint tokenId) private {\r\n        _idToNftIndex[tokenId] = _allNfts.length;\r\n        _allNfts.push(tokenId);\r\n    }\r\n\r\n    function _addTokenToOwnerEnumeration(address to, uint tokenId) private {\r\n        uint length = ERC721.balanceOf(to);\r\n        if (length > 0) {\r\n            length -= 1;\r\n        }\r\n        _ownedTokens[to][length] = tokenId;\r\n        _idToOwnedIndex[tokenId] = length;\r\n    }\r\n\r\n    function _removeTokenFromOwnerEnumeration(\r\n        address from,\r\n        uint tokenId\r\n    ) private {\r\n        uint lastTokenIndex = ERC721.balanceOf(from);\r\n        uint tokenIndex = _idToNftIndex[tokenId];\r\n        if (tokenIndex != lastTokenIndex) {\r\n            uint lastTokenId = _ownedTokens[from][lastTokenIndex];\r\n            _ownedTokens[from][tokenIndex] = lastTokenId;\r\n            _idToOwnedIndex[lastTokenId] = tokenIndex;\r\n        }\r\n        delete _idToOwnedIndex[tokenId];\r\n        delete _ownedTokens[from][lastTokenIndex];\r\n    }\r\n\r\n    function _removeTokenFromAllTokensEnumeration(uint tokenId) private {\r\n        uint lastTokenIndex = _allNfts.length - 1;\r\n        uint tokenIndex = _idToNftIndex[tokenId];\r\n        uint lastTokenId = _allNfts[lastTokenIndex];\r\n\r\n        _allNfts[tokenIndex] = lastTokenId;\r\n        _idToNftIndex[lastTokenId] = tokenIndex;\r\n\r\n        delete _idToNftIndex[tokenId];\r\n        _allNfts.pop();\r\n    }\r\n}\r\n",
  "sourcePath": "D:\\Programming\\project\\NFT-marketplace-git\\NFT-marketplace\\nft-marketplace\\contracts\\NftMarket.sol",
  "compiler": {
    "name": "solc",
    "version": "0.8.20+commit.a1b79de6.Emscripten.clang"
  },
  "schemaVersion": "3.4.16",
  "updatedAt": "2024-09-28T19:00:07.887Z",
  "networkType": "ethereum",
  "devdoc": {
    "errors": {
      "ERC721IncorrectOwner(address,uint256,address)": [
        {
          "details": "Indicates an error related to the ownership over a particular token. Used in transfers.",
          "params": {
            "owner": "Address of the current owner of a token.",
            "sender": "Address whose tokens are being transferred.",
            "tokenId": "Identifier number of a token."
          }
        }
      ],
      "ERC721InsufficientApproval(address,uint256)": [
        {
          "details": "Indicates a failure with the `operator`s approval. Used in transfers.",
          "params": {
            "operator": "Address that may be allowed to operate on tokens without being their owner.",
            "tokenId": "Identifier number of a token."
          }
        }
      ],
      "ERC721InvalidApprover(address)": [
        {
          "details": "Indicates a failure with the `approver` of a token to be approved. Used in approvals.",
          "params": {
            "approver": "Address initiating an approval operation."
          }
        }
      ],
      "ERC721InvalidOperator(address)": [
        {
          "details": "Indicates a failure with the `operator` to be approved. Used in approvals.",
          "params": {
            "operator": "Address that may be allowed to operate on tokens without being their owner."
          }
        }
      ],
      "ERC721InvalidOwner(address)": [
        {
          "details": "Indicates that an address can't be an owner. For example, `address(0)` is a forbidden owner in EIP-20. Used in balance queries.",
          "params": {
            "owner": "Address of the current owner of a token."
          }
        }
      ],
      "ERC721InvalidReceiver(address)": [
        {
          "details": "Indicates a failure with the token `receiver`. Used in transfers.",
          "params": {
            "receiver": "Address to which tokens are being transferred."
          }
        }
      ],
      "ERC721InvalidSender(address)": [
        {
          "details": "Indicates a failure with the token `sender`. Used in transfers.",
          "params": {
            "sender": "Address whose tokens are being transferred."
          }
        }
      ],
      "ERC721NonexistentToken(uint256)": [
        {
          "details": "Indicates a `tokenId` whose `owner` is the zero address.",
          "params": {
            "tokenId": "Identifier number of a token."
          }
        }
      ],
      "OwnableInvalidOwner(address)": [
        {
          "details": "The owner is not a valid owner account. (eg. `address(0)`)"
        }
      ],
      "OwnableUnauthorizedAccount(address)": [
        {
          "details": "The caller account is not authorized to perform an operation."
        }
      ]
    },
    "events": {
      "Approval(address,address,uint256)": {
        "details": "Emitted when `owner` enables `approved` to manage the `tokenId` token."
      },
      "ApprovalForAll(address,address,bool)": {
        "details": "Emitted when `owner` enables or disables (`approved`) `operator` to manage all of its assets."
      },
      "BatchMetadataUpdate(uint256,uint256)": {
        "details": "This event emits when the metadata of a range of tokens is changed. So that the third-party platforms such as NFT market could timely update the images and related attributes of the NFTs."
      },
      "MetadataUpdate(uint256)": {
        "details": "This event emits when the metadata of a token is changed. So that the third-party platforms such as NFT market could timely update the images and related attributes of the NFT."
      },
      "Transfer(address,address,uint256)": {
        "details": "Emitted when `tokenId` token is transferred from `from` to `to`."
      }
    },
    "kind": "dev",
    "methods": {
      "approve(address,uint256)": {
        "details": "See {IERC721-approve}."
      },
      "balanceOf(address)": {
        "details": "See {IERC721-balanceOf}."
      },
      "getApproved(uint256)": {
        "details": "See {IERC721-getApproved}."
      },
      "isApprovedForAll(address,address)": {
        "details": "See {IERC721-isApprovedForAll}."
      },
      "name()": {
        "details": "See {IERC721Metadata-name}."
      },
      "owner()": {
        "details": "Returns the address of the current owner."
      },
      "ownerOf(uint256)": {
        "details": "See {IERC721-ownerOf}."
      },
      "renounceOwnership()": {
        "details": "Leaves the contract without owner. It will not be possible to call `onlyOwner` functions. Can only be called by the current owner. NOTE: Renouncing ownership will leave the contract without an owner, thereby disabling any functionality that is only available to the owner."
      },
      "safeTransferFrom(address,address,uint256)": {
        "details": "See {IERC721-safeTransferFrom}."
      },
      "safeTransferFrom(address,address,uint256,bytes)": {
        "details": "See {IERC721-safeTransferFrom}."
      },
      "setApprovalForAll(address,bool)": {
        "details": "See {IERC721-setApprovalForAll}."
      },
      "supportsInterface(bytes4)": {
        "details": "See {IERC165-supportsInterface}"
      },
      "symbol()": {
        "details": "See {IERC721Metadata-symbol}."
      },
      "tokenURI(uint256)": {
        "details": "See {IERC721Metadata-tokenURI}."
      },
      "transferFrom(address,address,uint256)": {
        "details": "See {IERC721-transferFrom}."
      },
      "transferOwnership(address)": {
        "details": "Transfers ownership of the contract to a new account (`newOwner`). Can only be called by the current owner."
      }
    },
    "version": 1
  },
  "userdoc": {
    "kind": "user",
    "methods": {},
    "version": 1
  }
}