{
  "contractName": "NftMarket",
  "abi": [
    {
      "inputs": [],
      "stateMutability": "payable",
      "type": "constructor",
      "payable": true
    },
    {
      "inputs": [
        {
          "internalType": "address",
          "name": "sender",
          "type": "address"
        },
        {
          "internalType": "uint256",
          "name": "tokenId",
          "type": "uint256"
        },
        {
          "internalType": "address",
          "name": "owner",
          "type": "address"
        }
      ],
      "name": "ERC721IncorrectOwner",
      "type": "error"
    },
    {
      "inputs": [
        {
          "internalType": "address",
          "name": "operator",
          "type": "address"
        },
        {
          "internalType": "uint256",
          "name": "tokenId",
          "type": "uint256"
        }
      ],
      "name": "ERC721InsufficientApproval",
      "type": "error"
    },
    {
      "inputs": [
        {
          "internalType": "address",
          "name": "approver",
          "type": "address"
        }
      ],
      "name": "ERC721InvalidApprover",
      "type": "error"
    },
    {
      "inputs": [
        {
          "internalType": "address",
          "name": "operator",
          "type": "address"
        }
      ],
      "name": "ERC721InvalidOperator",
      "type": "error"
    },
    {
      "inputs": [
        {
          "internalType": "address",
          "name": "owner",
          "type": "address"
        }
      ],
      "name": "ERC721InvalidOwner",
      "type": "error"
    },
    {
      "inputs": [
        {
          "internalType": "address",
          "name": "receiver",
          "type": "address"
        }
      ],
      "name": "ERC721InvalidReceiver",
      "type": "error"
    },
    {
      "inputs": [
        {
          "internalType": "address",
          "name": "sender",
          "type": "address"
        }
      ],
      "name": "ERC721InvalidSender",
      "type": "error"
    },
    {
      "inputs": [
        {
          "internalType": "uint256",
          "name": "tokenId",
          "type": "uint256"
        }
      ],
      "name": "ERC721NonexistentToken",
      "type": "error"
    },
    {
      "inputs": [
        {
          "internalType": "address",
          "name": "owner",
          "type": "address"
        }
      ],
      "name": "OwnableInvalidOwner",
      "type": "error"
    },
    {
      "inputs": [
        {
          "internalType": "address",
          "name": "account",
          "type": "address"
        }
      ],
      "name": "OwnableUnauthorizedAccount",
      "type": "error"
    },
    {
      "anonymous": false,
      "inputs": [
        {
          "indexed": true,
          "internalType": "address",
          "name": "owner",
          "type": "address"
        },
        {
          "indexed": true,
          "internalType": "address",
          "name": "approved",
          "type": "address"
        },
        {
          "indexed": true,
          "internalType": "uint256",
          "name": "tokenId",
          "type": "uint256"
        }
      ],
      "name": "Approval",
      "type": "event"
    },
    {
      "anonymous": false,
      "inputs": [
        {
          "indexed": true,
          "internalType": "address",
          "name": "owner",
          "type": "address"
        },
        {
          "indexed": true,
          "internalType": "address",
          "name": "operator",
          "type": "address"
        },
        {
          "indexed": false,
          "internalType": "bool",
          "name": "approved",
          "type": "bool"
        }
      ],
      "name": "ApprovalForAll",
      "type": "event"
    },
    {
      "anonymous": false,
      "inputs": [
        {
          "indexed": false,
          "internalType": "uint256",
          "name": "_fromTokenId",
          "type": "uint256"
        },
        {
          "indexed": false,
          "internalType": "uint256",
          "name": "_toTokenId",
          "type": "uint256"
        }
      ],
      "name": "BatchMetadataUpdate",
      "type": "event"
    },
    {
      "anonymous": false,
      "inputs": [
        {
          "indexed": false,
          "internalType": "uint256",
          "name": "_tokenId",
          "type": "uint256"
        }
      ],
      "name": "MetadataUpdate",
      "type": "event"
    },
    {
      "anonymous": false,
      "inputs": [
        {
          "indexed": false,
          "internalType": "uint256",
          "name": "tokenId",
          "type": "uint256"
        },
        {
          "indexed": false,
          "internalType": "uint256",
          "name": "price",
          "type": "uint256"
        },
        {
          "indexed": false,
          "internalType": "address",
          "name": "creator",
          "type": "address"
        },
        {
          "indexed": false,
          "internalType": "bool",
          "name": "isListed",
          "type": "bool"
        }
      ],
      "name": "NftItemCreated",
      "type": "event"
    },
    {
      "anonymous": false,
      "inputs": [
        {
          "indexed": true,
          "internalType": "address",
          "name": "previousOwner",
          "type": "address"
        },
        {
          "indexed": true,
          "internalType": "address",
          "name": "newOwner",
          "type": "address"
        }
      ],
      "name": "OwnershipTransferred",
      "type": "event"
    },
    {
      "anonymous": false,
      "inputs": [
        {
          "indexed": true,
          "internalType": "address",
          "name": "from",
          "type": "address"
        },
        {
          "indexed": true,
          "internalType": "address",
          "name": "to",
          "type": "address"
        },
        {
          "indexed": true,
          "internalType": "uint256",
          "name": "tokenId",
          "type": "uint256"
        }
      ],
      "name": "Transfer",
      "type": "event"
    },
    {
      "inputs": [
        {
          "internalType": "address",
          "name": "to",
          "type": "address"
        },
        {
          "internalType": "uint256",
          "name": "tokenId",
          "type": "uint256"
        }
      ],
      "name": "approve",
      "outputs": [],
      "stateMutability": "nonpayable",
      "type": "function"
    },
    {
      "inputs": [
        {
          "internalType": "address",
          "name": "owner",
          "type": "address"
        }
      ],
      "name": "balanceOf",
      "outputs": [
        {
          "internalType": "uint256",
          "name": "",
          "type": "uint256"
        }
      ],
      "stateMutability": "view",
      "type": "function",
      "constant": true
    },
    {
      "inputs": [
        {
          "internalType": "uint256",
          "name": "tokenId",
          "type": "uint256"
        }
      ],
      "name": "getApproved",
      "outputs": [
        {
          "internalType": "address",
          "name": "",
          "type": "address"
        }
      ],
      "stateMutability": "view",
      "type": "function",
      "constant": true
    },
    {
      "inputs": [
        {
          "internalType": "address",
          "name": "owner",
          "type": "address"
        },
        {
          "internalType": "address",
          "name": "operator",
          "type": "address"
        }
      ],
      "name": "isApprovedForAll",
      "outputs": [
        {
          "internalType": "bool",
          "name": "",
          "type": "bool"
        }
      ],
      "stateMutability": "view",
      "type": "function",
      "constant": true
    },
    {
      "inputs": [],
      "name": "listingPrice",
      "outputs": [
        {
          "internalType": "uint256",
          "name": "",
          "type": "uint256"
        }
      ],
      "stateMutability": "view",
      "type": "function",
      "constant": true
    },
    {
      "inputs": [],
      "name": "name",
      "outputs": [
        {
          "internalType": "string",
          "name": "",
          "type": "string"
        }
      ],
      "stateMutability": "view",
      "type": "function",
      "constant": true
    },
    {
      "inputs": [],
      "name": "owner",
      "outputs": [
        {
          "internalType": "address",
          "name": "",
          "type": "address"
        }
      ],
      "stateMutability": "view",
      "type": "function",
      "constant": true
    },
    {
      "inputs": [
        {
          "internalType": "uint256",
          "name": "tokenId",
          "type": "uint256"
        }
      ],
      "name": "ownerOf",
      "outputs": [
        {
          "internalType": "address",
          "name": "",
          "type": "address"
        }
      ],
      "stateMutability": "view",
      "type": "function",
      "constant": true
    },
    {
      "inputs": [],
      "name": "renounceOwnership",
      "outputs": [],
      "stateMutability": "nonpayable",
      "type": "function"
    },
    {
      "inputs": [
        {
          "internalType": "address",
          "name": "from",
          "type": "address"
        },
        {
          "internalType": "address",
          "name": "to",
          "type": "address"
        },
        {
          "internalType": "uint256",
          "name": "tokenId",
          "type": "uint256"
        }
      ],
      "name": "safeTransferFrom",
      "outputs": [],
      "stateMutability": "nonpayable",
      "type": "function"
    },
    {
      "inputs": [
        {
          "internalType": "address",
          "name": "from",
          "type": "address"
        },
        {
          "internalType": "address",
          "name": "to",
          "type": "address"
        },
        {
          "internalType": "uint256",
          "name": "tokenId",
          "type": "uint256"
        },
        {
          "internalType": "bytes",
          "name": "data",
          "type": "bytes"
        }
      ],
      "name": "safeTransferFrom",
      "outputs": [],
      "stateMutability": "nonpayable",
      "type": "function"
    },
    {
      "inputs": [
        {
          "internalType": "address",
          "name": "operator",
          "type": "address"
        },
        {
          "internalType": "bool",
          "name": "approved",
          "type": "bool"
        }
      ],
      "name": "setApprovalForAll",
      "outputs": [],
      "stateMutability": "nonpayable",
      "type": "function"
    },
    {
      "inputs": [
        {
          "internalType": "bytes4",
          "name": "interfaceId",
          "type": "bytes4"
        }
      ],
      "name": "supportsInterface",
      "outputs": [
        {
          "internalType": "bool",
          "name": "",
          "type": "bool"
        }
      ],
      "stateMutability": "view",
      "type": "function",
      "constant": true
    },
    {
      "inputs": [],
      "name": "symbol",
      "outputs": [
        {
          "internalType": "string",
          "name": "",
          "type": "string"
        }
      ],
      "stateMutability": "view",
      "type": "function",
      "constant": true
    },
    {
      "inputs": [
        {
          "internalType": "uint256",
          "name": "tokenId",
          "type": "uint256"
        }
      ],
      "name": "tokenURI",
      "outputs": [
        {
          "internalType": "string",
          "name": "",
          "type": "string"
        }
      ],
      "stateMutability": "view",
      "type": "function",
      "constant": true
    },
    {
      "inputs": [
        {
          "internalType": "address",
          "name": "from",
          "type": "address"
        },
        {
          "internalType": "address",
          "name": "to",
          "type": "address"
        },
        {
          "internalType": "uint256",
          "name": "tokenId",
          "type": "uint256"
        }
      ],
      "name": "transferFrom",
      "outputs": [],
      "stateMutability": "nonpayable",
      "type": "function"
    },
    {
      "inputs": [
        {
          "internalType": "address",
          "name": "newOwner",
          "type": "address"
        }
      ],
      "name": "transferOwnership",
      "outputs": [],
      "stateMutability": "nonpayable",
      "type": "function"
    },
    {
      "inputs": [
        {
          "internalType": "uint256",
          "name": "newPrice",
          "type": "uint256"
        }
      ],
      "name": "setListingPrice",
      "outputs": [],
      "stateMutability": "nonpayable",
      "type": "function"
    },
    {
      "inputs": [
        {
          "internalType": "string",
          "name": "tokenURI",
          "type": "string"
        }
      ],
      "name": "tokenURIExist",
      "outputs": [
        {
          "internalType": "bool",
          "name": "",
          "type": "bool"
        }
      ],
      "stateMutability": "view",
      "type": "function",
      "constant": true
    },
    {
      "inputs": [],
      "name": "totalSupply",
      "outputs": [
        {
          "internalType": "uint256",
          "name": "",
          "type": "uint256"
        }
      ],
      "stateMutability": "view",
      "type": "function",
      "constant": true
    },
    {
      "inputs": [
        {
          "internalType": "uint256",
          "name": "index",
          "type": "uint256"
        }
      ],
      "name": "tokenByIndex",
      "outputs": [
        {
          "internalType": "uint256",
          "name": "",
          "type": "uint256"
        }
      ],
      "stateMutability": "view",
      "type": "function",
      "constant": true
    },
    {
      "inputs": [
        {
          "internalType": "address",
          "name": "owner",
          "type": "address"
        },
        {
          "internalType": "uint256",
          "name": "index",
          "type": "uint256"
        }
      ],
      "name": "tokenOfOwnerByIndex",
      "outputs": [
        {
          "internalType": "uint256",
          "name": "",
          "type": "uint256"
        }
      ],
      "stateMutability": "view",
      "type": "function",
      "constant": true
    },
    {
      "inputs": [],
      "name": "getAllNftsOnSale",
      "outputs": [
        {
          "components": [
            {
              "internalType": "uint256",
              "name": "tokenId",
              "type": "uint256"
            },
            {
              "internalType": "uint256",
              "name": "price",
              "type": "uint256"
            },
            {
              "internalType": "address",
              "name": "creator",
              "type": "address"
            },
            {
              "internalType": "bool",
              "name": "isListed",
              "type": "bool"
            }
          ],
          "internalType": "struct NftMarket.NftItem[]",
          "name": "items",
          "type": "tuple[]"
        }
      ],
      "stateMutability": "view",
      "type": "function",
      "constant": true
    },
    {
      "inputs": [],
      "name": "getOwnedNfts",
      "outputs": [
        {
          "components": [
            {
              "internalType": "uint256",
              "name": "tokenId",
              "type": "uint256"
            },
            {
              "internalType": "uint256",
              "name": "price",
              "type": "uint256"
            },
            {
              "internalType": "address",
              "name": "creator",
              "type": "address"
            },
            {
              "internalType": "bool",
              "name": "isListed",
              "type": "bool"
            }
          ],
          "internalType": "struct NftMarket.NftItem[]",
          "name": "items",
          "type": "tuple[]"
        }
      ],
      "stateMutability": "view",
      "type": "function",
      "constant": true
    },
    {
      "inputs": [
        {
          "internalType": "uint256",
          "name": "tokenId",
          "type": "uint256"
        },
        {
          "internalType": "uint256",
          "name": "newPrice",
          "type": "uint256"
        }
      ],
      "name": "placeNftOnSale",
      "outputs": [],
      "stateMutability": "payable",
      "type": "function",
      "payable": true
    },
    {
      "inputs": [
        {
          "internalType": "uint256",
          "name": "tokenId",
          "type": "uint256"
        }
      ],
      "name": "getNftItem",
      "outputs": [
        {
          "components": [
            {
              "internalType": "uint256",
              "name": "tokenId",
              "type": "uint256"
            },
            {
              "internalType": "uint256",
              "name": "price",
              "type": "uint256"
            },
            {
              "internalType": "address",
              "name": "creator",
              "type": "address"
            },
            {
              "internalType": "bool",
              "name": "isListed",
              "type": "bool"
            }
          ],
          "internalType": "struct NftMarket.NftItem",
          "name": "",
          "type": "tuple"
        }
      ],
      "stateMutability": "view",
      "type": "function",
      "constant": true
    },
    {
      "inputs": [],
      "name": "listedItemsCount",
      "outputs": [
        {
          "internalType": "uint256",
          "name": "",
          "type": "uint256"
        }
      ],
      "stateMutability": "view",
      "type": "function",
      "constant": true
    },
    {
      "inputs": [
        {
          "internalType": "string",
          "name": "tokenURI",
          "type": "string"
        },
        {
          "internalType": "uint256",
          "name": "price",
          "type": "uint256"
        }
      ],
      "name": "mintToken",
      "outputs": [
        {
          "internalType": "uint256",
          "name": "newTokenId",
          "type": "uint256"
        }
      ],
      "stateMutability": "payable",
      "type": "function",
      "payable": true
    },
    {
      "inputs": [
        {
          "internalType": "uint256",
          "name": "tokenId",
          "type": "uint256"
        }
      ],
      "name": "buyNft",
      "outputs": [],
      "stateMutability": "payable",
      "type": "function",
      "payable": true
    }
  ],
  "bytecode": "0x60806040526658d15e17628000600b556200001f6200013e60201b60201c565b6040518060400160405280600c81526020017f4372656174757265734e465400000000000000000000000000000000000000008152506040518060400160405280600481526020017f434e46540000000000000000000000000000000000000000000000000000000081525081600090816200009c919062000486565b508060019081620000ae919062000486565b505050600073ffffffffffffffffffffffffffffffffffffffff168173ffffffffffffffffffffffffffffffffffffffff1603620001265760006040517f1e4fbdf70000000000000000000000000000000000000000000000000000000081526004016200011d9190620005b2565b60405180910390fd5b62000137816200014660201b60201c565b50620005cf565b600033905090565b6000600760009054906101000a900473ffffffffffffffffffffffffffffffffffffffff16905081600760006101000a81548173ffffffffffffffffffffffffffffffffffffffff021916908373ffffffffffffffffffffffffffffffffffffffff1602179055508173ffffffffffffffffffffffffffffffffffffffff168173ffffffffffffffffffffffffffffffffffffffff167f8be0079c531659141344cd1fd0a4f28419497f9722a3daafe3b4186f6b6457e060405160405180910390a35050565b600081519050919050565b7f4e487b7100000000000000000000000000000000000000000000000000000000600052604160045260246000fd5b7f4e487b7100000000000000000000000000000000000000000000000000000000600052602260045260246000fd5b600060028204905060018216806200028e57607f821691505b602082108103620002a457620002a362000246565b5b50919050565b60008190508160005260206000209050919050565b60006020601f8301049050919050565b600082821b905092915050565b6000600883026200030e7fffffffffffffffffffffffffffffffffffffffffffffffffffffffffffffffff82620002cf565b6200031a8683620002cf565b95508019841693508086168417925050509392505050565b6000819050919050565b6000819050919050565b600062000367620003616200035b8462000332565b6200033c565b62000332565b9050919050565b6000819050919050565b620003838362000346565b6200039b62000392826200036e565b848454620002dc565b825550505050565b600090565b620003b2620003a3565b620003bf81848462000378565b505050565b5b81811015620003e757620003db600082620003a8565b600181019050620003c5565b5050565b601f82111562000436576200040081620002aa565b6200040b84620002bf565b810160208510156200041b578190505b620004336200042a85620002bf565b830182620003c4565b50505b505050565b600082821c905092915050565b60006200045b600019846008026200043b565b1980831691505092915050565b600062000476838362000448565b9150826002028217905092915050565b62000491826200020c565b67ffffffffffffffff811115620004ad57620004ac62000217565b5b620004b9825462000275565b620004c6828285620003eb565b600060209050601f831160018114620004fe5760008415620004e9578287015190505b620004f5858262000468565b86555062000565565b601f1984166200050e86620002aa565b60005b82811015620005385784890151825560018201915060208501945060208101905062000511565b8683101562000558578489015162000554601f89168262000448565b8355505b6001600288020188555050505b505050505050565b600073ffffffffffffffffffffffffffffffffffffffff82169050919050565b60006200059a826200056d565b9050919050565b620005ac816200058d565b82525050565b6000602082019050620005c96000830184620005a1565b92915050565b61446480620005df6000396000f3fe6080604052600436106101c25760003560e01c806370a08231116100f7578063ae1fef8711610095578063c87b56dd11610064578063c87b56dd14610651578063ccb4918d1461068e578063e985e9c5146106b9578063f2fde38b146106f6576101c2565b8063ae1fef8714610590578063b88d4fde146105cd578063c046372c146105f6578063c78f19f914610626576101c2565b80637c726b69116100d15780637c726b69146104e85780638da5cb5b1461051157806395d89b411461053c578063a22cb46514610567576101c2565b806370a082311461046957806370cbcb43146104a6578063715018a6146104d1576101c2565b8063243adbdd1161016457806342842e0e1161013e57806342842e0e146103895780634f6ccce7146103b25780636352211e146103ef5780636f1a0af51461042c576101c2565b8063243adbdd146103055780632f745c591461032157806336b536be1461035e576101c2565b8063095ea7b3116101a0578063095ea7b31461026c57806318160ddd1461029557806321f422e5146102c057806323b872dd146102dc576101c2565b806301ffc9a7146101c757806306fdde0314610204578063081812fc1461022f575b600080fd5b3480156101d357600080fd5b506101ee60048036038101906101e99190613084565b61071f565b6040516101fb91906130cc565b60405180910390f35b34801561021057600080fd5b50610219610780565b6040516102269190613177565b60405180910390f35b34801561023b57600080fd5b50610256600480360381019061025191906131cf565b610812565b604051610263919061323d565b60405180910390f35b34801561027857600080fd5b50610293600480360381019061028e9190613284565b61082e565b005b3480156102a157600080fd5b506102aa610844565b6040516102b791906132d3565b60405180910390f35b6102da60048036038101906102d591906132ee565b610851565b005b3480156102e857600080fd5b5061030360048036038101906102fe919061332e565b610a86565b005b61031f600480360381019061031a91906131cf565b610b88565b005b34801561032d57600080fd5b5061034860048036038101906103439190613284565b610d42565b60405161035591906132d3565b60405180910390f35b34801561036a57600080fd5b50610373610de7565b60405161038091906134b2565b60405180910390f35b34801561039557600080fd5b506103b060048036038101906103ab919061332e565b610f73565b005b3480156103be57600080fd5b506103d960048036038101906103d491906131cf565b610f93565b6040516103e691906132d3565b60405180910390f35b3480156103fb57600080fd5b50610416600480360381019061041191906131cf565b611004565b604051610423919061323d565b60405180910390f35b34801561043857600080fd5b50610453600480360381019061044e91906131cf565b611016565b6040516104609190613529565b60405180910390f35b34801561047557600080fd5b50610490600480360381019061048b9190613544565b6110c8565b60405161049d91906132d3565b60405180910390f35b3480156104b257600080fd5b506104bb611182565b6040516104c891906134b2565b60405180910390f35b3480156104dd57600080fd5b506104e66112ec565b005b3480156104f457600080fd5b5061050f600480360381019061050a91906131cf565b611300565b005b34801561051d57600080fd5b50610526611355565b604051610533919061323d565b60405180910390f35b34801561054857600080fd5b5061055161137f565b60405161055e9190613177565b60405180910390f35b34801561057357600080fd5b5061058e6004803603810190610589919061359d565b611411565b005b34801561059c57600080fd5b506105b760048036038101906105b29190613712565b611427565b6040516105c491906130cc565b60405180910390f35b3480156105d957600080fd5b506105f460048036038101906105ef91906137fc565b611463565b005b610610600480360381019061060b919061387f565b611480565b60405161061d91906132d3565b60405180910390f35b34801561063257600080fd5b5061063b6115a0565b60405161064891906132d3565b60405180910390f35b34801561065d57600080fd5b50610678600480360381019061067391906131cf565b6115a6565b6040516106859190613177565b60405180910390f35b34801561069a57600080fd5b506106a36116b9565b6040516106b091906132d3565b60405180910390f35b3480156106c557600080fd5b506106e060048036038101906106db91906138db565b6116c3565b6040516106ed91906130cc565b60405180910390f35b34801561070257600080fd5b5061071d60048036038101906107189190613544565b611757565b005b6000634906490660e01b7bffffffffffffffffffffffffffffffffffffffffffffffffffffffff1916827bffffffffffffffffffffffffffffffffffffffffffffffffffffffff191614806107795750610778826117dd565b5b9050919050565b60606000805461078f9061394a565b80601f01602080910402602001604051908101604052809291908181526020018280546107bb9061394a565b80156108085780601f106107dd57610100808354040283529160200191610808565b820191906000526020600020905b8154815290600101906020018083116107eb57829003601f168201915b5050505050905090565b600061081d826118bf565b5061082782611947565b9050919050565b610840828261083b611984565b61198c565b5050565b6000600a80549050905090565b610859611984565b73ffffffffffffffffffffffffffffffffffffffff166108788361199e565b73ffffffffffffffffffffffffffffffffffffffff16146108ce576040517f08c379a00000000000000000000000000000000000000000000000000000000081526004016108c5906139c7565b60405180910390fd5b6000600d600084815260200190815260200160002060405180608001604052908160008201548152602001600182015481526020016002820160009054906101000a900473ffffffffffffffffffffffffffffffffffffffff1673ffffffffffffffffffffffffffffffffffffffff1673ffffffffffffffffffffffffffffffffffffffff1681526020016002820160149054906101000a900460ff16151515158152505090506000151581606001511515146109c0576040517f08c379a00000000000000000000000000000000000000000000000000000000081526004016109b790613a33565b60405180910390fd5b600b543414610a04576040517f08c379a00000000000000000000000000000000000000000000000000000000081526004016109fb90613ac5565b60405180910390fd5b6001600d600085815260200190815260200160002060020160146101000a81548160ff02191690831515021790555081600d60008581526020019081526020016000206001015414610a6c5781600d6000858152602001908152602001600020600101819055505b6001600854610a7b9190613b14565b600881905550505050565b600073ffffffffffffffffffffffffffffffffffffffff168273ffffffffffffffffffffffffffffffffffffffff1603610af85760006040517f64a0ae92000000000000000000000000000000000000000000000000000000008152600401610aef919061323d565b60405180910390fd5b6000610b0c8383610b07611984565b6119db565b90508373ffffffffffffffffffffffffffffffffffffffff168173ffffffffffffffffffffffffffffffffffffffff1614610b82578382826040517f64283d7b000000000000000000000000000000000000000000000000000000008152600401610b7993929190613b48565b60405180910390fd5b50505050565b6000600d600083815260200190815260200160002090506000816001015490506000610bb384611004565b9050600060085403610bfa576040517f08c379a0000000000000000000000000000000000000000000000000000000008152600401610bf190613bcb565b60405180910390fd5b8073ffffffffffffffffffffffffffffffffffffffff16610c19611984565b73ffffffffffffffffffffffffffffffffffffffff1603610c6f576040517f08c379a0000000000000000000000000000000000000000000000000000000008152600401610c6690613c37565b60405180910390fd5b813414610cb1576040517f08c379a0000000000000000000000000000000000000000000000000000000008152600401610ca890613ca3565b60405180910390fd5b60008360020160146101000a81548160ff0219169083151502179055506001600854610cdd9190613cc3565b600881905550610cf581610cef611984565b86611af3565b8073ffffffffffffffffffffffffffffffffffffffff166108fc349081150290604051600060405180830381858888f19350505050158015610d3b573d6000803e3d6000fd5b5050505050565b6000610d4d836110c8565b8210610d8e576040517f08c379a0000000000000000000000000000000000000000000000000000000008152600401610d8590613d43565b60405180910390fd5b600f60008473ffffffffffffffffffffffffffffffffffffffff1673ffffffffffffffffffffffffffffffffffffffff168152602001908152602001600020600083815260200190815260200160002054905092915050565b60606000610df3610844565b9050600060085467ffffffffffffffff811115610e1357610e126135e7565b5b604051908082528060200260200182016040528015610e4c57816020015b610e39612fd8565b815260200190600190039081610e315790505b50925060005b82811015610f6d576000610e6582610f93565b90506000600d60008381526020019081526020016000209050600115158160020160149054906101000a900460ff16151503610f5a578060405180608001604052908160008201548152602001600182015481526020016002820160009054906101000a900473ffffffffffffffffffffffffffffffffffffffff1673ffffffffffffffffffffffffffffffffffffffff1673ffffffffffffffffffffffffffffffffffffffff1681526020016002820160149054906101000a900460ff161515151581525050868581518110610f3f57610f3e613d63565b5b6020026020010181905250600184610f579190613b14565b93505b505080610f6690613d92565b9050610e52565b50505090565b610f8e83838360405180602001604052806000815250611463565b505050565b6000610f9d610844565b8210610fde576040517f08c379a0000000000000000000000000000000000000000000000000000000008152600401610fd590613d43565b60405180910390fd5b600a8281548110610ff257610ff1613d63565b5b90600052602060002001549050919050565b600061100f826118bf565b9050919050565b61101e612fd8565b600d600083815260200190815260200160002060405180608001604052908160008201548152602001600182015481526020016002820160009054906101000a900473ffffffffffffffffffffffffffffffffffffffff1673ffffffffffffffffffffffffffffffffffffffff1673ffffffffffffffffffffffffffffffffffffffff1681526020016002820160149054906101000a900460ff1615151515815250509050919050565b60008073ffffffffffffffffffffffffffffffffffffffff168273ffffffffffffffffffffffffffffffffffffffff160361113b5760006040517f89c62b64000000000000000000000000000000000000000000000000000000008152600401611132919061323d565b60405180910390fd5b600360008373ffffffffffffffffffffffffffffffffffffffff1673ffffffffffffffffffffffffffffffffffffffff168152602001908152602001600020549050919050565b60606000611196611191611984565b6110c8565b90508067ffffffffffffffff8111156111b2576111b16135e7565b5b6040519080825280602002602001820160405280156111eb57816020015b6111d8612fd8565b8152602001906001900390816111d05790505b50915060005b818110156112e757600061120c611206611984565b83610d42565b90506000600d600083815260200190815260200160002090508060405180608001604052908160008201548152602001600182015481526020016002820160009054906101000a900473ffffffffffffffffffffffffffffffffffffffff1673ffffffffffffffffffffffffffffffffffffffff1673ffffffffffffffffffffffffffffffffffffffff1681526020016002820160149054906101000a900460ff1615151515815250508584815181106112c9576112c8613d63565b5b60200260200101819052505050806112e090613d92565b90506111f1565b505090565b6112f4611b13565b6112fe6000611b9a565b565b611308611b13565b6000810361134b576040517f08c379a000000000000000000000000000000000000000000000000000000000815260040161134290613e26565b60405180910390fd5b80600b8190555050565b6000600760009054906101000a900473ffffffffffffffffffffffffffffffffffffffff16905090565b60606001805461138e9061394a565b80601f01602080910402602001604051908101604052809291908181526020018280546113ba9061394a565b80156114075780601f106113dc57610100808354040283529160200191611407565b820191906000526020600020905b8154815290600101906020018083116113ea57829003601f168201915b5050505050905090565b61142361141c611984565b8383611c60565b5050565b600060011515600c8360405161143d9190613e82565b908152602001604051809103902060009054906101000a900460ff161515149050919050565b61146e848484610a86565b61147a84848484611dcf565b50505050565b600061148b83611427565b156114cb576040517f08c379a00000000000000000000000000000000000000000000000000000000081526004016114c290613ee5565b60405180910390fd5b600b54341461150f576040517f08c379a000000000000000000000000000000000000000000000000000000000815260040161150690613f51565b60405180910390fd5b600160095461151e9190613b14565b60098190555060016008546115339190613b14565b600881905550600954905061154f611549611984565b82611f86565b6115598184611fa4565b6001600c8460405161156b9190613e82565b908152602001604051809103902060006101000a81548160ff02191690831515021790555061159a8183612000565b92915050565b600b5481565b60606115b1826118bf565b5060006006600084815260200190815260200160002080546115d29061394a565b80601f01602080910402602001604051908101604052809291908181526020018280546115fe9061394a565b801561164b5780601f106116205761010080835404028352916020019161164b565b820191906000526020600020905b81548152906001019060200180831161162e57829003601f168201915b50505050509050600061165c61213f565b905060008151036116715781925050506116b4565b6000825111156116a657808260405160200161168e929190613f71565b604051602081830303815290604052925050506116b4565b6116af84612156565b925050505b919050565b6000600854905090565b6000600560008473ffffffffffffffffffffffffffffffffffffffff1673ffffffffffffffffffffffffffffffffffffffff16815260200190815260200160002060008373ffffffffffffffffffffffffffffffffffffffff1673ffffffffffffffffffffffffffffffffffffffff16815260200190815260200160002060009054906101000a900460ff16905092915050565b61175f611b13565b600073ffffffffffffffffffffffffffffffffffffffff168173ffffffffffffffffffffffffffffffffffffffff16036117d15760006040517f1e4fbdf70000000000000000000000000000000000000000000000000000000081526004016117c8919061323d565b60405180910390fd5b6117da81611b9a565b50565b60007f80ac58cd000000000000000000000000000000000000000000000000000000007bffffffffffffffffffffffffffffffffffffffffffffffffffffffff1916827bffffffffffffffffffffffffffffffffffffffffffffffffffffffff191614806118a857507f5b5e139f000000000000000000000000000000000000000000000000000000007bffffffffffffffffffffffffffffffffffffffffffffffffffffffff1916827bffffffffffffffffffffffffffffffffffffffffffffffffffffffff1916145b806118b857506118b7826121bf565b5b9050919050565b6000806118cb8361199e565b9050600073ffffffffffffffffffffffffffffffffffffffff168173ffffffffffffffffffffffffffffffffffffffff160361193e57826040517f7e27328900000000000000000000000000000000000000000000000000000000815260040161193591906132d3565b60405180910390fd5b80915050919050565b60006004600083815260200190815260200160002060009054906101000a900473ffffffffffffffffffffffffffffffffffffffff169050919050565b600033905090565b6119998383836001612229565b505050565b60006002600083815260200190815260200160002060009054906101000a900473ffffffffffffffffffffffffffffffffffffffff169050919050565b60006119e88484846123ee565b9050600073ffffffffffffffffffffffffffffffffffffffff168173ffffffffffffffffffffffffffffffffffffffff1603611a2c57611a2783612608565b611a6b565b8373ffffffffffffffffffffffffffffffffffffffff168173ffffffffffffffffffffffffffffffffffffffff1614611a6a57611a698184612657565b5b5b600073ffffffffffffffffffffffffffffffffffffffff168473ffffffffffffffffffffffffffffffffffffffff1603611aad57611aa8836127b8565b611aec565b8073ffffffffffffffffffffffffffffffffffffffff168473ffffffffffffffffffffffffffffffffffffffff1614611aeb57611aea8484612889565b5b5b9392505050565b611b0e83838360405180602001604052806000815250612993565b505050565b611b1b611984565b73ffffffffffffffffffffffffffffffffffffffff16611b39611355565b73ffffffffffffffffffffffffffffffffffffffff1614611b9857611b5c611984565b6040517f118cdaa7000000000000000000000000000000000000000000000000000000008152600401611b8f919061323d565b60405180910390fd5b565b6000600760009054906101000a900473ffffffffffffffffffffffffffffffffffffffff16905081600760006101000a81548173ffffffffffffffffffffffffffffffffffffffff021916908373ffffffffffffffffffffffffffffffffffffffff1602179055508173ffffffffffffffffffffffffffffffffffffffff168173ffffffffffffffffffffffffffffffffffffffff167f8be0079c531659141344cd1fd0a4f28419497f9722a3daafe3b4186f6b6457e060405160405180910390a35050565b600073ffffffffffffffffffffffffffffffffffffffff168273ffffffffffffffffffffffffffffffffffffffff1603611cd157816040517f5b08ba18000000000000000000000000000000000000000000000000000000008152600401611cc8919061323d565b60405180910390fd5b80600560008573ffffffffffffffffffffffffffffffffffffffff1673ffffffffffffffffffffffffffffffffffffffff16815260200190815260200160002060008473ffffffffffffffffffffffffffffffffffffffff1673ffffffffffffffffffffffffffffffffffffffff16815260200190815260200160002060006101000a81548160ff0219169083151502179055508173ffffffffffffffffffffffffffffffffffffffff168373ffffffffffffffffffffffffffffffffffffffff167f17307eab39ab6107e8899845ad3d59bd9653f200f220920489ca2b5937696c3183604051611dc291906130cc565b60405180910390a3505050565b60008373ffffffffffffffffffffffffffffffffffffffff163b1115611f80578273ffffffffffffffffffffffffffffffffffffffff1663150b7a02611e13611984565b8685856040518563ffffffff1660e01b8152600401611e359493929190613fea565b6020604051808303816000875af1925050508015611e7157506040513d601f19601f82011682018060405250810190611e6e919061404b565b60015b611ef5573d8060008114611ea1576040519150601f19603f3d011682016040523d82523d6000602084013e611ea6565b606091505b506000815103611eed57836040517f64a0ae92000000000000000000000000000000000000000000000000000000008152600401611ee4919061323d565b60405180910390fd5b805181602001fd5b63150b7a0260e01b7bffffffffffffffffffffffffffffffffffffffffffffffffffffffff1916817bffffffffffffffffffffffffffffffffffffffffffffffffffffffff191614611f7e57836040517f64a0ae92000000000000000000000000000000000000000000000000000000008152600401611f75919061323d565b60405180910390fd5b505b50505050565b611fa08282604051806020016040528060008152506129b0565b5050565b80600660008481526020019081526020016000209081611fc49190614224565b507ff8e1a15aba9398e019f0b49df1a4fde98ee17ae345cb5f6b5e2c27f5033e8ce782604051611ff491906132d3565b60405180910390a15050565b60008103612043576040517f08c379a000000000000000000000000000000000000000000000000000000000815260040161203a90614342565b60405180910390fd5b81600d60008481526020019081526020016000206000018190555080600d60008481526020019081526020016000206001018190555033600d600084815260200190815260200160002060020160006101000a81548173ffffffffffffffffffffffffffffffffffffffff021916908373ffffffffffffffffffffffffffffffffffffffff1602179055506001600d600084815260200190815260200160002060020160146101000a81548160ff0219169083151502179055507f470031062672bc0246e132c723a729c4676710ec663a29e86c88678032daddea82823360016040516121339493929190614362565b60405180910390a15050565b606060405180602001604052806000815250905090565b6060612161826118bf565b50600061216c61213f565b9050600081511161218c57604051806020016040528060008152506121b7565b80612196846129cc565b6040516020016121a7929190613f71565b6040516020818303038152906040525b915050919050565b60007f01ffc9a7000000000000000000000000000000000000000000000000000000007bffffffffffffffffffffffffffffffffffffffffffffffffffffffff1916827bffffffffffffffffffffffffffffffffffffffffffffffffffffffff1916149050919050565b80806122625750600073ffffffffffffffffffffffffffffffffffffffff168273ffffffffffffffffffffffffffffffffffffffff1614155b15612396576000612272846118bf565b9050600073ffffffffffffffffffffffffffffffffffffffff168373ffffffffffffffffffffffffffffffffffffffff16141580156122dd57508273ffffffffffffffffffffffffffffffffffffffff168173ffffffffffffffffffffffffffffffffffffffff1614155b80156122f057506122ee81846116c3565b155b1561233257826040517fa9fbf51f000000000000000000000000000000000000000000000000000000008152600401612329919061323d565b60405180910390fd5b811561239457838573ffffffffffffffffffffffffffffffffffffffff168273ffffffffffffffffffffffffffffffffffffffff167f8c5be1e5ebec7d5bd14f71427d1e84f3dd0314c0f7b2291e5b200ac8c7c3b92560405160405180910390a45b505b836004600085815260200190815260200160002060006101000a81548173ffffffffffffffffffffffffffffffffffffffff021916908373ffffffffffffffffffffffffffffffffffffffff16021790555050505050565b6000806123fa8461199e565b9050600073ffffffffffffffffffffffffffffffffffffffff168373ffffffffffffffffffffffffffffffffffffffff161461243c5761243b818486612a9a565b5b600073ffffffffffffffffffffffffffffffffffffffff168173ffffffffffffffffffffffffffffffffffffffff16146124cd5761247e600085600080612229565b6001600360008373ffffffffffffffffffffffffffffffffffffffff1673ffffffffffffffffffffffffffffffffffffffff168152602001908152602001600020600082825403925050819055505b600073ffffffffffffffffffffffffffffffffffffffff168573ffffffffffffffffffffffffffffffffffffffff1614612550576001600360008773ffffffffffffffffffffffffffffffffffffffff1673ffffffffffffffffffffffffffffffffffffffff168152602001908152602001600020600082825401925050819055505b846002600086815260200190815260200160002060006101000a81548173ffffffffffffffffffffffffffffffffffffffff021916908373ffffffffffffffffffffffffffffffffffffffff160217905550838573ffffffffffffffffffffffffffffffffffffffff168273ffffffffffffffffffffffffffffffffffffffff167fddf252ad1be2c89b69c2b068fc378daa952ba7f163c4a11628f55a4df523b3ef60405160405180910390a4809150509392505050565b6000600a80549050905080600e600084815260200190815260200160002081905550600a8290806001815401808255809150506001900390600052602060002001600090919091909150555050565b6000612662836110c8565b90506000600e6000848152602001908152602001600020549050818114612747576000600f60008673ffffffffffffffffffffffffffffffffffffffff1673ffffffffffffffffffffffffffffffffffffffff168152602001908152602001600020600084815260200190815260200160002054905080600f60008773ffffffffffffffffffffffffffffffffffffffff1673ffffffffffffffffffffffffffffffffffffffff168152602001908152602001600020600084815260200190815260200160002081905550816010600083815260200190815260200160002081905550505b6010600084815260200190815260200160002060009055600f60008573ffffffffffffffffffffffffffffffffffffffff1673ffffffffffffffffffffffffffffffffffffffff16815260200190815260200160002060008381526020019081526020016000206000905550505050565b60006001600a805490506127cc9190613cc3565b90506000600e60008481526020019081526020016000205490506000600a83815481106127fc576127fb613d63565b5b9060005260206000200154905080600a838154811061281e5761281d613d63565b5b906000526020600020018190555081600e600083815260200190815260200160002081905550600e600085815260200190815260200160002060009055600a80548061286d5761286c6143a7565b5b6001900381819060005260206000200160009055905550505050565b6000612894836110c8565b9050600181106128ae576001816128ab9190613cc3565b90505b81600f60008573ffffffffffffffffffffffffffffffffffffffff1673ffffffffffffffffffffffffffffffffffffffff1681526020019081526020016000206000838152602001908152602001600020541461295b5781600f60008573ffffffffffffffffffffffffffffffffffffffff1673ffffffffffffffffffffffffffffffffffffffff1681526020019081526020016000206000838152602001908152602001600020819055505b8060106000848152602001908152602001600020541461298e578060106000848152602001908152602001600020819055505b505050565b61299e848484612b5e565b6129aa84848484611dcf565b50505050565b6129ba8383612ccb565b6129c76000848484611dcf565b505050565b6060600060016129db84612dc4565b01905060008167ffffffffffffffff8111156129fa576129f96135e7565b5b6040519080825280601f01601f191660200182016040528015612a2c5781602001600182028036833780820191505090505b509050600082602001820190505b600115612a8f578080600190039150507f3031323334353637383961626364656600000000000000000000000000000000600a86061a8153600a8581612a8357612a826143d6565b5b04945060008503612a3a575b819350505050919050565b612aa5838383612f17565b612b5957600073ffffffffffffffffffffffffffffffffffffffff168373ffffffffffffffffffffffffffffffffffffffff1603612b1a57806040517f7e273289000000000000000000000000000000000000000000000000000000008152600401612b1191906132d3565b60405180910390fd5b81816040517f177e802f000000000000000000000000000000000000000000000000000000008152600401612b50929190614405565b60405180910390fd5b505050565b600073ffffffffffffffffffffffffffffffffffffffff168273ffffffffffffffffffffffffffffffffffffffff1603612bd05760006040517f64a0ae92000000000000000000000000000000000000000000000000000000008152600401612bc7919061323d565b60405180910390fd5b6000612bde838360006119db565b9050600073ffffffffffffffffffffffffffffffffffffffff168173ffffffffffffffffffffffffffffffffffffffff1603612c5157816040517f7e273289000000000000000000000000000000000000000000000000000000008152600401612c4891906132d3565b60405180910390fd5b8373ffffffffffffffffffffffffffffffffffffffff168173ffffffffffffffffffffffffffffffffffffffff1614612cc5578382826040517f64283d7b000000000000000000000000000000000000000000000000000000008152600401612cbc93929190613b48565b60405180910390fd5b50505050565b600073ffffffffffffffffffffffffffffffffffffffff168273ffffffffffffffffffffffffffffffffffffffff1603612d3d5760006040517f64a0ae92000000000000000000000000000000000000000000000000000000008152600401612d34919061323d565b60405180910390fd5b6000612d4b838360006119db565b9050600073ffffffffffffffffffffffffffffffffffffffff168173ffffffffffffffffffffffffffffffffffffffff1614612dbf5760006040517f73c6ac6e000000000000000000000000000000000000000000000000000000008152600401612db6919061323d565b60405180910390fd5b505050565b600080600090507a184f03e93ff9f4daa797ed6e38ed64bf6a1f0100000000000000008310612e22577a184f03e93ff9f4daa797ed6e38ed64bf6a1f0100000000000000008381612e1857612e176143d6565b5b0492506040810190505b6d04ee2d6d415b85acef81000000008310612e5f576d04ee2d6d415b85acef81000000008381612e5557612e546143d6565b5b0492506020810190505b662386f26fc100008310612e8e57662386f26fc100008381612e8457612e836143d6565b5b0492506010810190505b6305f5e1008310612eb7576305f5e1008381612ead57612eac6143d6565b5b0492506008810190505b6127108310612edc576127108381612ed257612ed16143d6565b5b0492506004810190505b60648310612eff5760648381612ef557612ef46143d6565b5b0492506002810190505b600a8310612f0e576001810190505b80915050919050565b60008073ffffffffffffffffffffffffffffffffffffffff168373ffffffffffffffffffffffffffffffffffffffff1614158015612fcf57508273ffffffffffffffffffffffffffffffffffffffff168473ffffffffffffffffffffffffffffffffffffffff161480612f905750612f8f84846116c3565b5b80612fce57508273ffffffffffffffffffffffffffffffffffffffff16612fb683611947565b73ffffffffffffffffffffffffffffffffffffffff16145b5b90509392505050565b60405180608001604052806000815260200160008152602001600073ffffffffffffffffffffffffffffffffffffffff1681526020016000151581525090565b6000604051905090565b600080fd5b600080fd5b60007fffffffff0000000000000000000000000000000000000000000000000000000082169050919050565b6130618161302c565b811461306c57600080fd5b50565b60008135905061307e81613058565b92915050565b60006020828403121561309a57613099613022565b5b60006130a88482850161306f565b91505092915050565b60008115159050919050565b6130c6816130b1565b82525050565b60006020820190506130e160008301846130bd565b92915050565b600081519050919050565b600082825260208201905092915050565b60005b83811015613121578082015181840152602081019050613106565b60008484015250505050565b6000601f19601f8301169050919050565b6000613149826130e7565b61315381856130f2565b9350613163818560208601613103565b61316c8161312d565b840191505092915050565b60006020820190508181036000830152613191818461313e565b905092915050565b6000819050919050565b6131ac81613199565b81146131b757600080fd5b50565b6000813590506131c9816131a3565b92915050565b6000602082840312156131e5576131e4613022565b5b60006131f3848285016131ba565b91505092915050565b600073ffffffffffffffffffffffffffffffffffffffff82169050919050565b6000613227826131fc565b9050919050565b6132378161321c565b82525050565b6000602082019050613252600083018461322e565b92915050565b6132618161321c565b811461326c57600080fd5b50565b60008135905061327e81613258565b92915050565b6000806040838503121561329b5761329a613022565b5b60006132a98582860161326f565b92505060206132ba858286016131ba565b9150509250929050565b6132cd81613199565b82525050565b60006020820190506132e860008301846132c4565b92915050565b6000806040838503121561330557613304613022565b5b6000613313858286016131ba565b9250506020613324858286016131ba565b9150509250929050565b60008060006060848603121561334757613346613022565b5b60006133558682870161326f565b93505060206133668682870161326f565b9250506040613377868287016131ba565b9150509250925092565b600081519050919050565b600082825260208201905092915050565b6000819050602082019050919050565b6133b681613199565b82525050565b6133c58161321c565b82525050565b6133d4816130b1565b82525050565b6080820160008201516133f060008501826133ad565b50602082015161340360208501826133ad565b50604082015161341660408501826133bc565b50606082015161342960608501826133cb565b50505050565b600061343b83836133da565b60808301905092915050565b6000602082019050919050565b600061345f82613381565b613469818561338c565b93506134748361339d565b8060005b838110156134a557815161348c888261342f565b975061349783613447565b925050600181019050613478565b5085935050505092915050565b600060208201905081810360008301526134cc8184613454565b905092915050565b6080820160008201516134ea60008501826133ad565b5060208201516134fd60208501826133ad565b50604082015161351060408501826133bc565b50606082015161352360608501826133cb565b50505050565b600060808201905061353e60008301846134d4565b92915050565b60006020828403121561355a57613559613022565b5b60006135688482850161326f565b91505092915050565b61357a816130b1565b811461358557600080fd5b50565b60008135905061359781613571565b92915050565b600080604083850312156135b4576135b3613022565b5b60006135c28582860161326f565b92505060206135d385828601613588565b9150509250929050565b600080fd5b600080fd5b7f4e487b7100000000000000000000000000000000000000000000000000000000600052604160045260246000fd5b61361f8261312d565b810181811067ffffffffffffffff8211171561363e5761363d6135e7565b5b80604052505050565b6000613651613018565b905061365d8282613616565b919050565b600067ffffffffffffffff82111561367d5761367c6135e7565b5b6136868261312d565b9050602081019050919050565b82818337600083830152505050565b60006136b56136b084613662565b613647565b9050828152602081018484840111156136d1576136d06135e2565b5b6136dc848285613693565b509392505050565b600082601f8301126136f9576136f86135dd565b5b81356137098482602086016136a2565b91505092915050565b60006020828403121561372857613727613022565b5b600082013567ffffffffffffffff81111561374657613745613027565b5b613752848285016136e4565b91505092915050565b600067ffffffffffffffff821115613776576137756135e7565b5b61377f8261312d565b9050602081019050919050565b600061379f61379a8461375b565b613647565b9050828152602081018484840111156137bb576137ba6135e2565b5b6137c6848285613693565b509392505050565b600082601f8301126137e3576137e26135dd565b5b81356137f384826020860161378c565b91505092915050565b6000806000806080858703121561381657613815613022565b5b60006138248782880161326f565b94505060206138358782880161326f565b9350506040613846878288016131ba565b925050606085013567ffffffffffffffff81111561386757613866613027565b5b613873878288016137ce565b91505092959194509250565b6000806040838503121561389657613895613022565b5b600083013567ffffffffffffffff8111156138b4576138b3613027565b5b6138c0858286016136e4565b92505060206138d1858286016131ba565b9150509250929050565b600080604083850312156138f2576138f1613022565b5b60006139008582860161326f565b92505060206139118582860161326f565b9150509250929050565b7f4e487b7100000000000000000000000000000000000000000000000000000000600052602260045260246000fd5b6000600282049050600182168061396257607f821691505b6020821081036139755761397461391b565b5b50919050565b7f796f7520617265206e6f74206f776e6572206f662074686973206e6674000000600082015250565b60006139b1601d836130f2565b91506139bc8261397b565b602082019050919050565b600060208201905081810360008301526139e0816139a4565b9050919050565b7f4974656d20697320616c7265616479206f6e2073616c65000000000000000000600082015250565b6000613a1d6017836130f2565b9150613a28826139e7565b602082019050919050565b60006020820190508181036000830152613a4c81613a10565b9050919050565b7f7072696365206d75737420626520657175616c20746f206c697374696e67207060008201527f7269636500000000000000000000000000000000000000000000000000000000602082015250565b6000613aaf6024836130f2565b9150613aba82613a53565b604082019050919050565b60006020820190508181036000830152613ade81613aa2565b9050919050565b7f4e487b7100000000000000000000000000000000000000000000000000000000600052601160045260246000fd5b6000613b1f82613199565b9150613b2a83613199565b9250828201905080821115613b4257613b41613ae5565b5b92915050565b6000606082019050613b5d600083018661322e565b613b6a60208301856132c4565b613b77604083018461322e565b949350505050565b7f546865726520617265206e6f204e46547320666f722073616c65000000000000600082015250565b6000613bb5601a836130f2565b9150613bc082613b7f565b602082019050919050565b60006020820190508181036000830152613be481613ba8565b9050919050565b7f596f7520616c7265616479206f776e2074686973204e46540000000000000000600082015250565b6000613c216018836130f2565b9150613c2c82613beb565b602082019050919050565b60006020820190508181036000830152613c5081613c14565b9050919050565b7f506c656173652c207375626d6974207468652061736b696e6720707269636500600082015250565b6000613c8d601f836130f2565b9150613c9882613c57565b602082019050919050565b60006020820190508181036000830152613cbc81613c80565b9050919050565b6000613cce82613199565b9150613cd983613199565b9250828203905081811115613cf157613cf0613ae5565b5b92915050565b7f496e646578206f7574206f6620626f756e647300000000000000000000000000600082015250565b6000613d2d6013836130f2565b9150613d3882613cf7565b602082019050919050565b60006020820190508181036000830152613d5c81613d20565b9050919050565b7f4e487b7100000000000000000000000000000000000000000000000000000000600052603260045260246000fd5b6000613d9d82613199565b91507fffffffffffffffffffffffffffffffffffffffffffffffffffffffffffffffff8203613dcf57613dce613ae5565b5b600182019050919050565b7f7072696365206d757374206265206174206c6561737420312077656900000000600082015250565b6000613e10601c836130f2565b9150613e1b82613dda565b602082019050919050565b60006020820190508181036000830152613e3f81613e03565b9050919050565b600081905092915050565b6000613e5c826130e7565b613e668185613e46565b9350613e76818560208601613103565b80840191505092915050565b6000613e8e8284613e51565b915081905092915050565b7f546f6b656e2055524920616c7265616479206578697374730000000000000000600082015250565b6000613ecf6018836130f2565b9150613eda82613e99565b602082019050919050565b60006020820190508181036000830152613efe81613ec2565b9050919050565b7f496e76616c696420707269636500000000000000000000000000000000000000600082015250565b6000613f3b600d836130f2565b9150613f4682613f05565b602082019050919050565b60006020820190508181036000830152613f6a81613f2e565b9050919050565b6000613f7d8285613e51565b9150613f898284613e51565b91508190509392505050565b600081519050919050565b600082825260208201905092915050565b6000613fbc82613f95565b613fc68185613fa0565b9350613fd6818560208601613103565b613fdf8161312d565b840191505092915050565b6000608082019050613fff600083018761322e565b61400c602083018661322e565b61401960408301856132c4565b818103606083015261402b8184613fb1565b905095945050505050565b60008151905061404581613058565b92915050565b60006020828403121561406157614060613022565b5b600061406f84828501614036565b91505092915050565b60008190508160005260206000209050919050565b60006020601f8301049050919050565b600082821b905092915050565b6000600883026140da7fffffffffffffffffffffffffffffffffffffffffffffffffffffffffffffffff8261409d565b6140e4868361409d565b95508019841693508086168417925050509392505050565b6000819050919050565b600061412161411c61411784613199565b6140fc565b613199565b9050919050565b6000819050919050565b61413b83614106565b61414f61414782614128565b8484546140aa565b825550505050565b600090565b614164614157565b61416f818484614132565b505050565b5b818110156141935761418860008261415c565b600181019050614175565b5050565b601f8211156141d8576141a981614078565b6141b28461408d565b810160208510156141c1578190505b6141d56141cd8561408d565b830182614174565b50505b505050565b600082821c905092915050565b60006141fb600019846008026141dd565b1980831691505092915050565b600061421483836141ea565b9150826002028217905092915050565b61422d826130e7565b67ffffffffffffffff811115614246576142456135e7565b5b614250825461394a565b61425b828285614197565b600060209050601f83116001811461428e576000841561427c578287015190505b6142868582614208565b8655506142ee565b601f19841661429c86614078565b60005b828110156142c45784890151825560018201915060208501945060208101905061429f565b868310156142e157848901516142dd601f8916826141ea565b8355505b6001600288020188555050505b505050505050565b7f7072696365206d6f7374206265206174206c6561737420312077656900000000600082015250565b600061432c601c836130f2565b9150614337826142f6565b602082019050919050565b6000602082019050818103600083015261435b8161431f565b9050919050565b600060808201905061437760008301876132c4565b61438460208301866132c4565b614391604083018561322e565b61439e60608301846130bd565b95945050505050565b7f4e487b7100000000000000000000000000000000000000000000000000000000600052603160045260246000fd5b7f4e487b7100000000000000000000000000000000000000000000000000000000600052601260045260246000fd5b600060408201905061441a600083018561322e565b61442760208301846132c4565b939250505056fea2646970667358221220d35b0e86a946a8386d9c7a408f0966812ddddc51a240fe5c4fa6ee88be4ed1f764736f6c63430008140033",
  "immutableReferences": {},
  "source": "// SPDX-License-Identifier: MIT\r\n// Compatible with OpenZeppelin Contracts ^5.0.0\r\npragma solidity 0.8.20;\r\n\r\nimport \"@openzeppelin/contracts/token/ERC721/extensions/ERC721URIStorage.sol\";\r\nimport \"@openzeppelin/contracts/token/ERC721/ERC721.sol\";\r\nimport \"@openzeppelin/contracts/access/Ownable.sol\";\r\n\r\ncontract NftMarket is ERC721URIStorage, Ownable {\r\n    uint256 private _listedItems;\r\n    uint256 private _tokenIds;\r\n    uint256[] private _allNfts;\r\n\r\n    uint public listingPrice = 0.025 ether;\r\n\r\n    mapping(string => bool) private _usedTokenURIs;\r\n    mapping(uint => NftItem) private _idToNftItem;\r\n    mapping(uint => uint) private _idToNftIndex;\r\n    mapping(address => mapping(uint => uint)) private _ownedTokens;\r\n    mapping(uint => uint) private _idToOwnedIndex;\r\n\r\n    struct NftItem {\r\n        uint tokenId;\r\n        uint price;\r\n        address creator;\r\n        bool isListed;\r\n    }\r\n\r\n    event NftItemCreated(\r\n        uint tokenId,\r\n        uint price,\r\n        address creator,\r\n        bool isListed\r\n    );\r\n\r\n    constructor()\r\n        payable\r\n        ERC721(\"CreaturesNFT\", \"CNFT\")\r\n        Ownable(_msgSender())\r\n    {}\r\n\r\n    function setListingPrice(uint newPrice) external onlyOwner {\r\n        require(newPrice != 0, \"price must be at least 1 wei\");\r\n        listingPrice = newPrice;\r\n    }\r\n\r\n    function tokenURIExist(string memory tokenURI) public view returns (bool) {\r\n        return _usedTokenURIs[tokenURI] == true;\r\n    }\r\n\r\n    function totalSupply() public view returns (uint) {\r\n        return _allNfts.length;\r\n    }\r\n\r\n    function tokenByIndex(uint index) public view returns (uint) {\r\n        require(index < totalSupply(), \"Index out of bounds\");\r\n        return _allNfts[index];\r\n    }\r\n\r\n    function tokenOfOwnerByIndex(\r\n        address owner,\r\n        uint index\r\n    ) public view returns (uint) {\r\n        require(index < ERC721.balanceOf(owner), \"Index out of bounds\");\r\n        return _ownedTokens[owner][index];\r\n    }\r\n\r\n    function getAllNftsOnSale() public view returns (NftItem[] memory items) {\r\n        uint allItemsCounts = totalSupply();\r\n        uint currectIndex = 0;\r\n        items = new NftItem[](_listedItems);\r\n\r\n        for (uint256 index = 0; index < allItemsCounts; ++index) {\r\n            uint tokenId = tokenByIndex(index);\r\n            NftItem storage item = _idToNftItem[tokenId];\r\n\r\n            if (item.isListed == true) {\r\n                items[currectIndex] = item;\r\n                currectIndex += 1;\r\n            }\r\n        }\r\n    }\r\n\r\n    function getOwnedNfts() public view returns (NftItem[] memory items) {\r\n        uint ownedItemsCount = ERC721.balanceOf(_msgSender());\r\n        items = new NftItem[](ownedItemsCount);\r\n\r\n        for (uint i = 0; i < ownedItemsCount; ++i) {\r\n            uint tokenId = tokenOfOwnerByIndex(_msgSender(), i);\r\n            NftItem storage item = _idToNftItem[tokenId];\r\n            items[i] = item;\r\n        }\r\n    }\r\n\r\n    function createNftItem(uint tokenId, uint price) private {\r\n        require(price != 0, \"price most be at least 1 wei\");\r\n\r\n        _idToNftItem[tokenId].tokenId = tokenId;\r\n        _idToNftItem[tokenId].price = price;\r\n        _idToNftItem[tokenId].creator = msg.sender;\r\n        _idToNftItem[tokenId].isListed = true;\r\n\r\n        emit NftItemCreated(tokenId, price, msg.sender, true);\r\n    }\r\n\r\n    function placeNftOnSale(uint tokenId, uint newPrice) public payable {\r\n        require(\r\n            _ownerOf(tokenId) == _msgSender(),\r\n            \"you are not owner of this nft\"\r\n        );\r\n\r\n        NftItem memory nftItem = _idToNftItem[tokenId];\r\n\r\n        require(nftItem.isListed == false, \"Item is already on sale\");\r\n\r\n        require(\r\n            msg.value == listingPrice,\r\n            \"price must be equal to listing price\"\r\n        );\r\n\r\n        _idToNftItem[tokenId].isListed = true;\r\n        if (_idToNftItem[tokenId].price != newPrice) {\r\n            _idToNftItem[tokenId].price = newPrice;\r\n        }\r\n        _listedItems = _listedItems + 1;\r\n    }\r\n\r\n    function getNftItem(uint tokenId) public view returns (NftItem memory) {\r\n        return _idToNftItem[tokenId];\r\n    }\r\n\r\n    function listedItemsCount() public view returns (uint) {\r\n        return _listedItems;\r\n    }\r\n\r\n    function mintToken(\r\n        string memory tokenURI,\r\n        uint price\r\n    ) public payable returns (uint newTokenId) {\r\n        require(!tokenURIExist(tokenURI), \"Token URI already exists\");\r\n        require(msg.value == listingPrice, \"Invalid price\");\r\n\r\n        _tokenIds = _tokenIds + 1;\r\n        _listedItems = _listedItems + 1;\r\n\r\n        newTokenId = _tokenIds;\r\n\r\n        _safeMint(_msgSender(), newTokenId);\r\n        _setTokenURI(newTokenId, tokenURI);\r\n        _usedTokenURIs[tokenURI] = true;\r\n        createNftItem(newTokenId, price);\r\n    }\r\n\r\n    function buyNft(uint tokenId) public payable {\r\n        NftItem storage nftItem = _idToNftItem[tokenId];\r\n        uint price = nftItem.price;\r\n        address owner = ERC721.ownerOf(tokenId);\r\n\r\n        require(_listedItems != 0, \"There are no NFTs for sale\");\r\n        require(_msgSender() != owner, \"You already own this NFT\");\r\n        require(msg.value == price, \"Please, submit the asking price\");\r\n\r\n        nftItem.isListed = false;\r\n        _listedItems = _listedItems - 1;\r\n\r\n        _safeTransfer(owner, _msgSender(), tokenId);\r\n        payable(owner).transfer(msg.value);\r\n    }\r\n\r\n    function _update(\r\n        address to,\r\n        uint256 tokenId,\r\n        address auth\r\n    ) internal virtual override returns (address previousOwner) {\r\n        previousOwner = super._update(to, tokenId, auth);\r\n\r\n        if (previousOwner == address(0)) {\r\n            _addTokenToAllTokensEnumeration(tokenId);\r\n        } else if (previousOwner != to) {\r\n            _removeTokenFromOwnerEnumeration(previousOwner, tokenId);\r\n        }\r\n\r\n        if (to == address(0)) {\r\n            _removeTokenFromAllTokensEnumeration(tokenId);\r\n        } else if (to != previousOwner) {\r\n            _addTokenToOwnerEnumeration(to, tokenId);\r\n        }\r\n    }\r\n\r\n    function _addTokenToAllTokensEnumeration(uint tokenId) private {\r\n        uint length = _allNfts.length;\r\n        _idToNftIndex[tokenId] = length;\r\n        _allNfts.push(tokenId);\r\n    }\r\n\r\n    function _addTokenToOwnerEnumeration(address to, uint tokenId) private {\r\n        uint length = ERC721.balanceOf(to);\r\n        if (length >= 1) {\r\n            length -= 1;\r\n        }\r\n        if (_ownedTokens[to][length] != tokenId) {\r\n            _ownedTokens[to][length] = tokenId;\r\n        }\r\n\r\n        if (_idToOwnedIndex[tokenId] != length) {\r\n            _idToOwnedIndex[tokenId] = length;\r\n        }\r\n    }\r\n\r\n    function _removeTokenFromOwnerEnumeration(\r\n        address from,\r\n        uint tokenId\r\n    ) private {\r\n        uint lastTokenIndex = ERC721.balanceOf(from);\r\n        uint tokenIndex = _idToNftIndex[tokenId];\r\n        if (tokenIndex != lastTokenIndex) {\r\n            uint lastTokenId = _ownedTokens[from][lastTokenIndex];\r\n            _ownedTokens[from][tokenIndex] = lastTokenId;\r\n            _idToOwnedIndex[lastTokenId] = tokenIndex;\r\n        }\r\n        delete _idToOwnedIndex[tokenId];\r\n        delete _ownedTokens[from][lastTokenIndex];\r\n    }\r\n\r\n    function _removeTokenFromAllTokensEnumeration(uint tokenId) private {\r\n        uint lastTokenIndex = _allNfts.length - 1;\r\n        uint tokenIndex = _idToNftIndex[tokenId];\r\n        uint lastTokenId = _allNfts[lastTokenIndex];\r\n\r\n        _allNfts[tokenIndex] = lastTokenId;\r\n        _idToNftIndex[lastTokenId] = tokenIndex;\r\n\r\n        delete _idToNftIndex[tokenId];\r\n        _allNfts.pop();\r\n    }\r\n}\r\n\r\n// import \"@openzeppelin/contracts/token/ERC721/extensions/ERC721URIStorage.sol\";\r\n// import \"@openzeppelin/contracts/token/ERC721/ERC721.sol\";\r\n// import \"@openzeppelin/contracts/access/Ownable.sol\";\r\n\r\n// contract NftMarket is ERC721URIStorage, Ownable {\r\n//     uint256 private _listedItems;\r\n//     uint256 private _tokenIds;\r\n//     uint256[] private _allNfts;\r\n\r\n//     uint public listingPrice = 0.025 ether;\r\n\r\n//     mapping(string => bool) private _usedTokenURIs;\r\n//     mapping(uint => NftItem) private _idToNftItem;\r\n//     mapping(uint => uint) private _idToNftIndex;\r\n//     mapping(address => mapping(uint => uint)) private _ownedTokens;\r\n//     mapping(uint => uint) private _idToOwnedIndex;\r\n\r\n//     struct NftItem {\r\n//         uint tokenId;\r\n//         uint price;\r\n//         address creator;\r\n//         bool isListed;\r\n//     }\r\n\r\n//     event NftItemCreated(\r\n//         uint tokenId,\r\n//         uint price,\r\n//         address creator,\r\n//         bool isListed\r\n//     );\r\n\r\n//     constructor() ERC721(\"CreaturesNFT\", \"CNFT\") Ownable(_msgSender()) {}\r\n\r\n//     function setListingPrice(uint newPrice) external onlyOwner {\r\n//         require(newPrice > 0, \"price must be at least 1 wei\");\r\n//         listingPrice = newPrice;\r\n//     }\r\n\r\n//     function tokenURIExist(string memory tokenURI) public view returns (bool) {\r\n//         return _usedTokenURIs[tokenURI] == true;\r\n//     }\r\n\r\n//     function totalSupply() public view returns (uint) {\r\n//         return _allNfts.length;\r\n//     }\r\n\r\n//     function tokenByIndex(uint index) public view returns (uint) {\r\n//         require(index < totalSupply(), \"Index out of bounds\");\r\n//         return _allNfts[index];\r\n//     }\r\n\r\n//     function tokenOfOwnerByIndex(\r\n//         address owner,\r\n//         uint index\r\n//     ) public view returns (uint) {\r\n//         require(index < ERC721.balanceOf(owner), \"Index out of bounds\");\r\n//         return _ownedTokens[owner][index];\r\n//     }\r\n\r\n//     function getAllNftsOnSale() public view returns (NftItem[] memory) {\r\n//         uint allItemsCounts = totalSupply();\r\n//         uint currectIndex = 0;\r\n//         NftItem[] memory items = new NftItem[](_listedItems);\r\n\r\n//         for (uint256 index = 0; index < allItemsCounts; index++) {\r\n//             uint tokenId = tokenByIndex(index);\r\n//             NftItem storage item = _idToNftItem[tokenId];\r\n\r\n//             if (item.isListed == true) {\r\n//                 items[currectIndex] = item;\r\n//                 currectIndex += 1;\r\n//             }\r\n//         }\r\n//         return items;\r\n//     }\r\n\r\n//     function getOwnedNfts() public view returns (NftItem[] memory) {\r\n//         uint ownedItemsCount = ERC721.balanceOf(_msgSender());\r\n//         NftItem[] memory items = new NftItem[](ownedItemsCount);\r\n\r\n//         for (uint i = 0; i < ownedItemsCount; i++) {\r\n//             uint tokenId = tokenOfOwnerByIndex(_msgSender(), i);\r\n//             NftItem storage item = _idToNftItem[tokenId];\r\n//             items[i] = item;\r\n//         }\r\n\r\n//         return items;\r\n//     }\r\n\r\n//     function createNftItem(uint tokenId, uint price) private {\r\n//         require(price > 0, \"price most be at least 1 wei\");\r\n//         _idToNftItem[tokenId] = NftItem(tokenId, price, msg.sender, true);\r\n\r\n//         emit NftItemCreated(tokenId, price, msg.sender, true);\r\n//     }\r\n\r\n//     function placeNftOnSale(uint tokenId, uint newPrice) public payable {\r\n//         require(\r\n//             _ownerOf(tokenId) == _msgSender(),\r\n//             \"you are not owner of this nft\"\r\n//         );\r\n//         require(\r\n//             _idToNftItem[tokenId].isListed == false,\r\n//             \"Item is aleady on sale\"\r\n//         );\r\n\r\n//         require(\r\n//             msg.value == listingPrice,\r\n//             \"price must be equal to listing price\"\r\n//         );\r\n\r\n//         _idToNftItem[tokenId].isListed = true;\r\n//         _idToNftItem[tokenId].price = newPrice;\r\n//         _listedItems += 1;\r\n//     }\r\n\r\n//     function getNftItem(uint tokenId) public view returns (NftItem memory) {\r\n//         return _idToNftItem[tokenId];\r\n//     }\r\n\r\n//     function listedItemsCount() public view returns (uint) {\r\n//         return _listedItems;\r\n//     }\r\n\r\n//     function mintToken(\r\n//         string memory tokenURI,\r\n//         uint price\r\n//     ) public payable returns (uint) {\r\n//         require(!tokenURIExist(tokenURI), \"Token URI already exists\");\r\n//         require(msg.value == listingPrice, \"Price must be equal listing price\");\r\n\r\n//         _tokenIds += 1;\r\n//         _listedItems += 1;\r\n\r\n//         uint newTokenId = _tokenIds;\r\n\r\n//         _safeMint(_msgSender(), newTokenId);\r\n//         _setTokenURI(newTokenId, tokenURI);\r\n//         _usedTokenURIs[tokenURI] = true;\r\n//         createNftItem(newTokenId, price);\r\n\r\n//         return newTokenId;\r\n//     }\r\n\r\n//     function buyNft(uint tokenId) public payable {\r\n//         uint price = _idToNftItem[tokenId].price;\r\n//         address owner = ERC721.ownerOf(tokenId);\r\n\r\n//         require(_listedItems > 0, \"There are no NFTs for sale\");\r\n//         require(_msgSender() != owner, \"You already own this NFT\");\r\n//         require(msg.value == price, \"Please, submit the asking price\");\r\n\r\n//         _idToNftItem[tokenId].isListed = false;\r\n//         _listedItems -= 1;\r\n\r\n//         _safeTransfer(owner, _msgSender(), tokenId);\r\n//         payable(owner).transfer(msg.value);\r\n//     }\r\n\r\n//     function _update(\r\n//         address to,\r\n//         uint256 tokenId,\r\n//         address auth\r\n//     ) internal virtual override returns (address) {\r\n//         address previousOwner = super._update(to, tokenId, auth);\r\n\r\n//         if (previousOwner == address(0)) {\r\n//             _addTokenToAllTokensEnumeration(tokenId);\r\n//         } else if (previousOwner != to) {\r\n//             _removeTokenFromOwnerEnumeration(previousOwner, tokenId);\r\n//         }\r\n\r\n//         if (to == address(0)) {\r\n//             _removeTokenFromAllTokensEnumeration(tokenId);\r\n//         } else if (to != previousOwner) {\r\n//             _addTokenToOwnerEnumeration(to, tokenId);\r\n//         }\r\n\r\n//         return previousOwner;\r\n//     }\r\n\r\n//     function _addTokenToAllTokensEnumeration(uint tokenId) private {\r\n//         _idToNftIndex[tokenId] = _allNfts.length;\r\n//         _allNfts.push(tokenId);\r\n//     }\r\n\r\n//     function _addTokenToOwnerEnumeration(address to, uint tokenId) private {\r\n//         uint length = ERC721.balanceOf(to);\r\n//         if (length > 0) {\r\n//             length -= 1;\r\n//         }\r\n//         _ownedTokens[to][length] = tokenId;\r\n//         _idToOwnedIndex[tokenId] = length;\r\n//     }\r\n\r\n//     function _removeTokenFromOwnerEnumeration(\r\n//         address from,\r\n//         uint tokenId\r\n//     ) private {\r\n//         uint lastTokenIndex = ERC721.balanceOf(from);\r\n//         uint tokenIndex = _idToNftIndex[tokenId];\r\n//         if (tokenIndex != lastTokenIndex) {\r\n//             uint lastTokenId = _ownedTokens[from][lastTokenIndex];\r\n//             _ownedTokens[from][tokenIndex] = lastTokenId;\r\n//             _idToOwnedIndex[lastTokenId] = tokenIndex;\r\n//         }\r\n//         delete _idToOwnedIndex[tokenId];\r\n//         delete _ownedTokens[from][lastTokenIndex];\r\n//     }\r\n\r\n//     function _removeTokenFromAllTokensEnumeration(uint tokenId) private {\r\n//         uint lastTokenIndex = _allNfts.length - 1;\r\n//         uint tokenIndex = _idToNftIndex[tokenId];\r\n//         uint lastTokenId = _allNfts[lastTokenIndex];\r\n\r\n//         _allNfts[tokenIndex] = lastTokenId;\r\n//         _idToNftIndex[lastTokenId] = tokenIndex;\r\n\r\n//         delete _idToNftIndex[tokenId];\r\n//         _allNfts.pop();\r\n//     }\r\n// }\r\n",
  "sourcePath": "D:\\Programming\\project\\NFT-marketplace-git\\NFT-marketplace\\nft-marketplace\\contracts\\NftMarket.sol",
  "compiler": {
    "name": "solc",
    "version": "0.8.20+commit.a1b79de6.Emscripten.clang"
  },
  "schemaVersion": "3.4.16",
  "updatedAt": "2024-10-05T17:45:41.155Z",
  "networkType": "ethereum",
  "devdoc": {
    "errors": {
      "ERC721IncorrectOwner(address,uint256,address)": [
        {
          "details": "Indicates an error related to the ownership over a particular token. Used in transfers.",
          "params": {
            "owner": "Address of the current owner of a token.",
            "sender": "Address whose tokens are being transferred.",
            "tokenId": "Identifier number of a token."
          }
        }
      ],
      "ERC721InsufficientApproval(address,uint256)": [
        {
          "details": "Indicates a failure with the `operator`s approval. Used in transfers.",
          "params": {
            "operator": "Address that may be allowed to operate on tokens without being their owner.",
            "tokenId": "Identifier number of a token."
          }
        }
      ],
      "ERC721InvalidApprover(address)": [
        {
          "details": "Indicates a failure with the `approver` of a token to be approved. Used in approvals.",
          "params": {
            "approver": "Address initiating an approval operation."
          }
        }
      ],
      "ERC721InvalidOperator(address)": [
        {
          "details": "Indicates a failure with the `operator` to be approved. Used in approvals.",
          "params": {
            "operator": "Address that may be allowed to operate on tokens without being their owner."
          }
        }
      ],
      "ERC721InvalidOwner(address)": [
        {
          "details": "Indicates that an address can't be an owner. For example, `address(0)` is a forbidden owner in EIP-20. Used in balance queries.",
          "params": {
            "owner": "Address of the current owner of a token."
          }
        }
      ],
      "ERC721InvalidReceiver(address)": [
        {
          "details": "Indicates a failure with the token `receiver`. Used in transfers.",
          "params": {
            "receiver": "Address to which tokens are being transferred."
          }
        }
      ],
      "ERC721InvalidSender(address)": [
        {
          "details": "Indicates a failure with the token `sender`. Used in transfers.",
          "params": {
            "sender": "Address whose tokens are being transferred."
          }
        }
      ],
      "ERC721NonexistentToken(uint256)": [
        {
          "details": "Indicates a `tokenId` whose `owner` is the zero address.",
          "params": {
            "tokenId": "Identifier number of a token."
          }
        }
      ],
      "OwnableInvalidOwner(address)": [
        {
          "details": "The owner is not a valid owner account. (eg. `address(0)`)"
        }
      ],
      "OwnableUnauthorizedAccount(address)": [
        {
          "details": "The caller account is not authorized to perform an operation."
        }
      ]
    },
    "events": {
      "Approval(address,address,uint256)": {
        "details": "Emitted when `owner` enables `approved` to manage the `tokenId` token."
      },
      "ApprovalForAll(address,address,bool)": {
        "details": "Emitted when `owner` enables or disables (`approved`) `operator` to manage all of its assets."
      },
      "BatchMetadataUpdate(uint256,uint256)": {
        "details": "This event emits when the metadata of a range of tokens is changed. So that the third-party platforms such as NFT market could timely update the images and related attributes of the NFTs."
      },
      "MetadataUpdate(uint256)": {
        "details": "This event emits when the metadata of a token is changed. So that the third-party platforms such as NFT market could timely update the images and related attributes of the NFT."
      },
      "Transfer(address,address,uint256)": {
        "details": "Emitted when `tokenId` token is transferred from `from` to `to`."
      }
    },
    "kind": "dev",
    "methods": {
      "approve(address,uint256)": {
        "details": "See {IERC721-approve}."
      },
      "balanceOf(address)": {
        "details": "See {IERC721-balanceOf}."
      },
      "getApproved(uint256)": {
        "details": "See {IERC721-getApproved}."
      },
      "isApprovedForAll(address,address)": {
        "details": "See {IERC721-isApprovedForAll}."
      },
      "name()": {
        "details": "See {IERC721Metadata-name}."
      },
      "owner()": {
        "details": "Returns the address of the current owner."
      },
      "ownerOf(uint256)": {
        "details": "See {IERC721-ownerOf}."
      },
      "renounceOwnership()": {
        "details": "Leaves the contract without owner. It will not be possible to call `onlyOwner` functions. Can only be called by the current owner. NOTE: Renouncing ownership will leave the contract without an owner, thereby disabling any functionality that is only available to the owner."
      },
      "safeTransferFrom(address,address,uint256)": {
        "details": "See {IERC721-safeTransferFrom}."
      },
      "safeTransferFrom(address,address,uint256,bytes)": {
        "details": "See {IERC721-safeTransferFrom}."
      },
      "setApprovalForAll(address,bool)": {
        "details": "See {IERC721-setApprovalForAll}."
      },
      "supportsInterface(bytes4)": {
        "details": "See {IERC165-supportsInterface}"
      },
      "symbol()": {
        "details": "See {IERC721Metadata-symbol}."
      },
      "tokenURI(uint256)": {
        "details": "See {IERC721Metadata-tokenURI}."
      },
      "transferFrom(address,address,uint256)": {
        "details": "See {IERC721-transferFrom}."
      },
      "transferOwnership(address)": {
        "details": "Transfers ownership of the contract to a new account (`newOwner`). Can only be called by the current owner."
      }
    },
    "version": 1
  },
  "userdoc": {
    "kind": "user",
    "methods": {},
    "version": 1
  }
}