{
  "contractName": "NftMarket",
  "abi": [
    {
      "inputs": [],
      "stateMutability": "nonpayable",
      "type": "constructor"
    },
    {
      "inputs": [
        {
          "internalType": "address",
          "name": "sender",
          "type": "address"
        },
        {
          "internalType": "uint256",
          "name": "tokenId",
          "type": "uint256"
        },
        {
          "internalType": "address",
          "name": "owner",
          "type": "address"
        }
      ],
      "name": "ERC721IncorrectOwner",
      "type": "error"
    },
    {
      "inputs": [
        {
          "internalType": "address",
          "name": "operator",
          "type": "address"
        },
        {
          "internalType": "uint256",
          "name": "tokenId",
          "type": "uint256"
        }
      ],
      "name": "ERC721InsufficientApproval",
      "type": "error"
    },
    {
      "inputs": [
        {
          "internalType": "address",
          "name": "approver",
          "type": "address"
        }
      ],
      "name": "ERC721InvalidApprover",
      "type": "error"
    },
    {
      "inputs": [
        {
          "internalType": "address",
          "name": "operator",
          "type": "address"
        }
      ],
      "name": "ERC721InvalidOperator",
      "type": "error"
    },
    {
      "inputs": [
        {
          "internalType": "address",
          "name": "owner",
          "type": "address"
        }
      ],
      "name": "ERC721InvalidOwner",
      "type": "error"
    },
    {
      "inputs": [
        {
          "internalType": "address",
          "name": "receiver",
          "type": "address"
        }
      ],
      "name": "ERC721InvalidReceiver",
      "type": "error"
    },
    {
      "inputs": [
        {
          "internalType": "address",
          "name": "sender",
          "type": "address"
        }
      ],
      "name": "ERC721InvalidSender",
      "type": "error"
    },
    {
      "inputs": [
        {
          "internalType": "uint256",
          "name": "tokenId",
          "type": "uint256"
        }
      ],
      "name": "ERC721NonexistentToken",
      "type": "error"
    },
    {
      "anonymous": false,
      "inputs": [
        {
          "indexed": true,
          "internalType": "address",
          "name": "owner",
          "type": "address"
        },
        {
          "indexed": true,
          "internalType": "address",
          "name": "approved",
          "type": "address"
        },
        {
          "indexed": true,
          "internalType": "uint256",
          "name": "tokenId",
          "type": "uint256"
        }
      ],
      "name": "Approval",
      "type": "event"
    },
    {
      "anonymous": false,
      "inputs": [
        {
          "indexed": true,
          "internalType": "address",
          "name": "owner",
          "type": "address"
        },
        {
          "indexed": true,
          "internalType": "address",
          "name": "operator",
          "type": "address"
        },
        {
          "indexed": false,
          "internalType": "bool",
          "name": "approved",
          "type": "bool"
        }
      ],
      "name": "ApprovalForAll",
      "type": "event"
    },
    {
      "anonymous": false,
      "inputs": [
        {
          "indexed": false,
          "internalType": "uint256",
          "name": "_fromTokenId",
          "type": "uint256"
        },
        {
          "indexed": false,
          "internalType": "uint256",
          "name": "_toTokenId",
          "type": "uint256"
        }
      ],
      "name": "BatchMetadataUpdate",
      "type": "event"
    },
    {
      "anonymous": false,
      "inputs": [
        {
          "indexed": false,
          "internalType": "uint256",
          "name": "_tokenId",
          "type": "uint256"
        }
      ],
      "name": "MetadataUpdate",
      "type": "event"
    },
    {
      "anonymous": false,
      "inputs": [
        {
          "indexed": false,
          "internalType": "uint256",
          "name": "tokenId",
          "type": "uint256"
        },
        {
          "indexed": false,
          "internalType": "uint256",
          "name": "price",
          "type": "uint256"
        },
        {
          "indexed": false,
          "internalType": "address",
          "name": "creator",
          "type": "address"
        },
        {
          "indexed": false,
          "internalType": "bool",
          "name": "isListed",
          "type": "bool"
        }
      ],
      "name": "NftItemCreated",
      "type": "event"
    },
    {
      "anonymous": false,
      "inputs": [
        {
          "indexed": true,
          "internalType": "address",
          "name": "from",
          "type": "address"
        },
        {
          "indexed": true,
          "internalType": "address",
          "name": "to",
          "type": "address"
        },
        {
          "indexed": true,
          "internalType": "uint256",
          "name": "tokenId",
          "type": "uint256"
        }
      ],
      "name": "Transfer",
      "type": "event"
    },
    {
      "inputs": [
        {
          "internalType": "address",
          "name": "to",
          "type": "address"
        },
        {
          "internalType": "uint256",
          "name": "tokenId",
          "type": "uint256"
        }
      ],
      "name": "approve",
      "outputs": [],
      "stateMutability": "nonpayable",
      "type": "function"
    },
    {
      "inputs": [
        {
          "internalType": "address",
          "name": "owner",
          "type": "address"
        }
      ],
      "name": "balanceOf",
      "outputs": [
        {
          "internalType": "uint256",
          "name": "",
          "type": "uint256"
        }
      ],
      "stateMutability": "view",
      "type": "function",
      "constant": true
    },
    {
      "inputs": [
        {
          "internalType": "uint256",
          "name": "tokenId",
          "type": "uint256"
        }
      ],
      "name": "getApproved",
      "outputs": [
        {
          "internalType": "address",
          "name": "",
          "type": "address"
        }
      ],
      "stateMutability": "view",
      "type": "function",
      "constant": true
    },
    {
      "inputs": [
        {
          "internalType": "address",
          "name": "owner",
          "type": "address"
        },
        {
          "internalType": "address",
          "name": "operator",
          "type": "address"
        }
      ],
      "name": "isApprovedForAll",
      "outputs": [
        {
          "internalType": "bool",
          "name": "",
          "type": "bool"
        }
      ],
      "stateMutability": "view",
      "type": "function",
      "constant": true
    },
    {
      "inputs": [],
      "name": "listingPrice",
      "outputs": [
        {
          "internalType": "uint256",
          "name": "",
          "type": "uint256"
        }
      ],
      "stateMutability": "view",
      "type": "function",
      "constant": true
    },
    {
      "inputs": [],
      "name": "name",
      "outputs": [
        {
          "internalType": "string",
          "name": "",
          "type": "string"
        }
      ],
      "stateMutability": "view",
      "type": "function",
      "constant": true
    },
    {
      "inputs": [
        {
          "internalType": "uint256",
          "name": "tokenId",
          "type": "uint256"
        }
      ],
      "name": "ownerOf",
      "outputs": [
        {
          "internalType": "address",
          "name": "",
          "type": "address"
        }
      ],
      "stateMutability": "view",
      "type": "function",
      "constant": true
    },
    {
      "inputs": [
        {
          "internalType": "address",
          "name": "from",
          "type": "address"
        },
        {
          "internalType": "address",
          "name": "to",
          "type": "address"
        },
        {
          "internalType": "uint256",
          "name": "tokenId",
          "type": "uint256"
        }
      ],
      "name": "safeTransferFrom",
      "outputs": [],
      "stateMutability": "nonpayable",
      "type": "function"
    },
    {
      "inputs": [
        {
          "internalType": "address",
          "name": "from",
          "type": "address"
        },
        {
          "internalType": "address",
          "name": "to",
          "type": "address"
        },
        {
          "internalType": "uint256",
          "name": "tokenId",
          "type": "uint256"
        },
        {
          "internalType": "bytes",
          "name": "data",
          "type": "bytes"
        }
      ],
      "name": "safeTransferFrom",
      "outputs": [],
      "stateMutability": "nonpayable",
      "type": "function"
    },
    {
      "inputs": [
        {
          "internalType": "address",
          "name": "operator",
          "type": "address"
        },
        {
          "internalType": "bool",
          "name": "approved",
          "type": "bool"
        }
      ],
      "name": "setApprovalForAll",
      "outputs": [],
      "stateMutability": "nonpayable",
      "type": "function"
    },
    {
      "inputs": [
        {
          "internalType": "bytes4",
          "name": "interfaceId",
          "type": "bytes4"
        }
      ],
      "name": "supportsInterface",
      "outputs": [
        {
          "internalType": "bool",
          "name": "",
          "type": "bool"
        }
      ],
      "stateMutability": "view",
      "type": "function",
      "constant": true
    },
    {
      "inputs": [],
      "name": "symbol",
      "outputs": [
        {
          "internalType": "string",
          "name": "",
          "type": "string"
        }
      ],
      "stateMutability": "view",
      "type": "function",
      "constant": true
    },
    {
      "inputs": [
        {
          "internalType": "uint256",
          "name": "tokenId",
          "type": "uint256"
        }
      ],
      "name": "tokenURI",
      "outputs": [
        {
          "internalType": "string",
          "name": "",
          "type": "string"
        }
      ],
      "stateMutability": "view",
      "type": "function",
      "constant": true
    },
    {
      "inputs": [
        {
          "internalType": "address",
          "name": "from",
          "type": "address"
        },
        {
          "internalType": "address",
          "name": "to",
          "type": "address"
        },
        {
          "internalType": "uint256",
          "name": "tokenId",
          "type": "uint256"
        }
      ],
      "name": "transferFrom",
      "outputs": [],
      "stateMutability": "nonpayable",
      "type": "function"
    },
    {
      "inputs": [
        {
          "internalType": "string",
          "name": "tokenURI",
          "type": "string"
        }
      ],
      "name": "tokenURIExist",
      "outputs": [
        {
          "internalType": "bool",
          "name": "",
          "type": "bool"
        }
      ],
      "stateMutability": "view",
      "type": "function",
      "constant": true
    },
    {
      "inputs": [],
      "name": "totalSupply",
      "outputs": [
        {
          "internalType": "uint256",
          "name": "",
          "type": "uint256"
        }
      ],
      "stateMutability": "view",
      "type": "function",
      "constant": true
    },
    {
      "inputs": [
        {
          "internalType": "uint256",
          "name": "index",
          "type": "uint256"
        }
      ],
      "name": "tokenByIndex",
      "outputs": [
        {
          "internalType": "uint256",
          "name": "",
          "type": "uint256"
        }
      ],
      "stateMutability": "view",
      "type": "function",
      "constant": true
    },
    {
      "inputs": [
        {
          "internalType": "address",
          "name": "owner",
          "type": "address"
        },
        {
          "internalType": "uint256",
          "name": "index",
          "type": "uint256"
        }
      ],
      "name": "tokenOfOwnerByIndex",
      "outputs": [
        {
          "internalType": "uint256",
          "name": "",
          "type": "uint256"
        }
      ],
      "stateMutability": "view",
      "type": "function",
      "constant": true
    },
    {
      "inputs": [],
      "name": "getAllNftsOnSale",
      "outputs": [
        {
          "components": [
            {
              "internalType": "uint256",
              "name": "tokenId",
              "type": "uint256"
            },
            {
              "internalType": "uint256",
              "name": "price",
              "type": "uint256"
            },
            {
              "internalType": "address",
              "name": "creator",
              "type": "address"
            },
            {
              "internalType": "bool",
              "name": "isListed",
              "type": "bool"
            }
          ],
          "internalType": "struct NftMarket.NftItem[]",
          "name": "",
          "type": "tuple[]"
        }
      ],
      "stateMutability": "view",
      "type": "function",
      "constant": true
    },
    {
      "inputs": [],
      "name": "getOwnedNfts",
      "outputs": [
        {
          "components": [
            {
              "internalType": "uint256",
              "name": "tokenId",
              "type": "uint256"
            },
            {
              "internalType": "uint256",
              "name": "price",
              "type": "uint256"
            },
            {
              "internalType": "address",
              "name": "creator",
              "type": "address"
            },
            {
              "internalType": "bool",
              "name": "isListed",
              "type": "bool"
            }
          ],
          "internalType": "struct NftMarket.NftItem[]",
          "name": "",
          "type": "tuple[]"
        }
      ],
      "stateMutability": "view",
      "type": "function",
      "constant": true
    },
    {
      "inputs": [
        {
          "internalType": "uint256",
          "name": "tokenId",
          "type": "uint256"
        }
      ],
      "name": "getNftItem",
      "outputs": [
        {
          "components": [
            {
              "internalType": "uint256",
              "name": "tokenId",
              "type": "uint256"
            },
            {
              "internalType": "uint256",
              "name": "price",
              "type": "uint256"
            },
            {
              "internalType": "address",
              "name": "creator",
              "type": "address"
            },
            {
              "internalType": "bool",
              "name": "isListed",
              "type": "bool"
            }
          ],
          "internalType": "struct NftMarket.NftItem",
          "name": "",
          "type": "tuple"
        }
      ],
      "stateMutability": "view",
      "type": "function",
      "constant": true
    },
    {
      "inputs": [],
      "name": "listedItemsCount",
      "outputs": [
        {
          "internalType": "uint256",
          "name": "",
          "type": "uint256"
        }
      ],
      "stateMutability": "view",
      "type": "function",
      "constant": true
    },
    {
      "inputs": [
        {
          "internalType": "string",
          "name": "tokenURI",
          "type": "string"
        },
        {
          "internalType": "uint256",
          "name": "price",
          "type": "uint256"
        }
      ],
      "name": "mintToken",
      "outputs": [
        {
          "internalType": "uint256",
          "name": "",
          "type": "uint256"
        }
      ],
      "stateMutability": "payable",
      "type": "function",
      "payable": true
    },
    {
      "inputs": [
        {
          "internalType": "uint256",
          "name": "tokenId",
          "type": "uint256"
        }
      ],
      "name": "buyNft",
      "outputs": [],
      "stateMutability": "payable",
      "type": "function",
      "payable": true
    },
    {
      "inputs": [
        {
          "internalType": "address",
          "name": "owner",
          "type": "address"
        }
      ],
      "name": "getBalanceByAddress",
      "outputs": [
        {
          "internalType": "uint256",
          "name": "",
          "type": "uint256"
        }
      ],
      "stateMutability": "view",
      "type": "function",
      "constant": true
    },
    {
      "inputs": [],
      "name": "getAllNfts",
      "outputs": [
        {
          "internalType": "uint256[]",
          "name": "",
          "type": "uint256[]"
        }
      ],
      "stateMutability": "view",
      "type": "function",
      "constant": true
    },
    {
      "inputs": [],
      "name": "get_listedItems",
      "outputs": [
        {
          "internalType": "uint256",
          "name": "",
          "type": "uint256"
        }
      ],
      "stateMutability": "view",
      "type": "function",
      "constant": true
    },
    {
      "inputs": [
        {
          "internalType": "uint256",
          "name": "tokenId",
          "type": "uint256"
        }
      ],
      "name": "getOwnerOf",
      "outputs": [
        {
          "internalType": "uint256",
          "name": "",
          "type": "uint256"
        }
      ],
      "stateMutability": "view",
      "type": "function",
      "constant": true
    }
  ],
  "bytecode": "0x60806040526703782dace9d90000600a553480156200001d57600080fd5b506040518060400160405280600c81526020017f4372656174757265734e465400000000000000000000000000000000000000008152506040518060400160405280600481526020017f434e46540000000000000000000000000000000000000000000000000000000081525081600090816200009b919062000330565b508060019081620000ad919062000330565b50505062000417565b600081519050919050565b7f4e487b7100000000000000000000000000000000000000000000000000000000600052604160045260246000fd5b7f4e487b7100000000000000000000000000000000000000000000000000000000600052602260045260246000fd5b600060028204905060018216806200013857607f821691505b6020821081036200014e576200014d620000f0565b5b50919050565b60008190508160005260206000209050919050565b60006020601f8301049050919050565b600082821b905092915050565b600060088302620001b87fffffffffffffffffffffffffffffffffffffffffffffffffffffffffffffffff8262000179565b620001c4868362000179565b95508019841693508086168417925050509392505050565b6000819050919050565b6000819050919050565b6000620002116200020b6200020584620001dc565b620001e6565b620001dc565b9050919050565b6000819050919050565b6200022d83620001f0565b620002456200023c8262000218565b84845462000186565b825550505050565b600090565b6200025c6200024d565b6200026981848462000222565b505050565b5b8181101562000291576200028560008262000252565b6001810190506200026f565b5050565b601f821115620002e057620002aa8162000154565b620002b58462000169565b81016020851015620002c5578190505b620002dd620002d48562000169565b8301826200026e565b50505b505050565b600082821c905092915050565b60006200030560001984600802620002e5565b1980831691505092915050565b6000620003208383620002f2565b9150826002028217905092915050565b6200033b82620000b6565b67ffffffffffffffff811115620003575762000356620000c1565b5b6200036382546200011f565b6200037082828562000295565b600060209050601f831160018114620003a8576000841562000393578287015190505b6200039f858262000312565b8655506200040f565b601f198416620003b88662000154565b60005b82811015620003e257848901518255600182019150602085019450602081019050620003bb565b86831015620004025784890151620003fe601f891682620002f2565b8355505b6001600288020188555050505b505050505050565b613cc880620004276000396000f3fe6080604052600436106101b75760003560e01c806370a08231116100ec578063ae1fef871161008a578063c78f19f911610064578063c78f19f914610664578063c87b56dd1461068f578063ccb4918d146106cc578063e985e9c5146106f7576101b7565b8063ae1fef87146105ce578063b88d4fde1461060b578063c046372c14610634576101b7565b806383638710116100c6578063836387101461051257806390d954c61461054f57806395d89b411461057a578063a22cb465146105a5576101b7565b806370a082311461047f57806370cbcb43146104bc578063732e8d73146104e7576101b7565b8063243adbdd1161015957806342842e0e1161013357806342842e0e1461039f5780634f6ccce7146103c85780636352211e146104055780636f1a0af514610442576101b7565b8063243adbdd1461031b5780632f745c591461033757806336b536be14610374576101b7565b8063095ea7b311610195578063095ea7b314610261578063136d6a391461028a57806318160ddd146102c757806323b872dd146102f2576101b7565b806301ffc9a7146101bc57806306fdde03146101f9578063081812fc14610224575b600080fd5b3480156101c857600080fd5b506101e360048036038101906101de9190612a07565b610734565b6040516101f09190612a4f565b60405180910390f35b34801561020557600080fd5b5061020e610795565b60405161021b9190612afa565b60405180910390f35b34801561023057600080fd5b5061024b60048036038101906102469190612b52565b610827565b6040516102589190612bc0565b60405180910390f35b34801561026d57600080fd5b5061028860048036038101906102839190612c07565b610843565b005b34801561029657600080fd5b506102b160048036038101906102ac9190612c47565b610859565b6040516102be9190612c83565b60405180910390f35b3480156102d357600080fd5b506102dc610870565b6040516102e99190612c83565b60405180910390f35b3480156102fe57600080fd5b5061031960048036038101906103149190612c9e565b61087d565b005b61033560048036038101906103309190612b52565b61097f565b005b34801561034357600080fd5b5061035e60048036038101906103599190612c07565b610ab3565b60405161036b9190612c83565b60405180910390f35b34801561038057600080fd5b50610389610b58565b6040516103969190612e22565b60405180910390f35b3480156103ab57600080fd5b506103c660048036038101906103c19190612c9e565b610ceb565b005b3480156103d457600080fd5b506103ef60048036038101906103ea9190612b52565b610d0b565b6040516103fc9190612c83565b60405180910390f35b34801561041157600080fd5b5061042c60048036038101906104279190612b52565b610d7c565b6040516104399190612bc0565b60405180910390f35b34801561044e57600080fd5b5061046960048036038101906104649190612b52565b610d8e565b6040516104769190612e99565b60405180910390f35b34801561048b57600080fd5b506104a660048036038101906104a19190612c47565b610e40565b6040516104b39190612c83565b60405180910390f35b3480156104c857600080fd5b506104d1610efa565b6040516104de9190612e22565b60405180910390f35b3480156104f357600080fd5b506104fc61105e565b6040516105099190612f63565b60405180910390f35b34801561051e57600080fd5b5061053960048036038101906105349190612b52565b6110b6565b6040516105469190612c83565b60405180910390f35b34801561055b57600080fd5b506105646110db565b6040516105719190612c83565b60405180910390f35b34801561058657600080fd5b5061058f6110e5565b60405161059c9190612afa565b60405180910390f35b3480156105b157600080fd5b506105cc60048036038101906105c79190612fb1565b611177565b005b3480156105da57600080fd5b506105f560048036038101906105f09190613126565b61118d565b6040516106029190612a4f565b60405180910390f35b34801561061757600080fd5b50610632600480360381019061062d9190613210565b6111c9565b005b61064e60048036038101906106499190613293565b6111e6565b60405161065b9190612c83565b60405180910390f35b34801561067057600080fd5b5061067961130f565b6040516106869190612c83565b60405180910390f35b34801561069b57600080fd5b506106b660048036038101906106b19190612b52565b611315565b6040516106c39190612afa565b60405180910390f35b3480156106d857600080fd5b506106e1611428565b6040516106ee9190612c83565b60405180910390f35b34801561070357600080fd5b5061071e600480360381019061071991906132ef565b611432565b60405161072b9190612a4f565b60405180910390f35b6000634906490660e01b7bffffffffffffffffffffffffffffffffffffffffffffffffffffffff1916827bffffffffffffffffffffffffffffffffffffffffffffffffffffffff1916148061078e575061078d826114c6565b5b9050919050565b6060600080546107a49061335e565b80601f01602080910402602001604051908101604052809291908181526020018280546107d09061335e565b801561081d5780601f106107f25761010080835404028352916020019161081d565b820191906000526020600020905b81548152906001019060200180831161080057829003601f168201915b5050505050905090565b6000610832826115a8565b5061083c82611630565b9050919050565b610855828261085061166d565b611675565b5050565b60008061086583610e40565b905080915050919050565b6000600980549050905090565b600073ffffffffffffffffffffffffffffffffffffffff168273ffffffffffffffffffffffffffffffffffffffff16036108ef5760006040517f64a0ae920000000000000000000000000000000000000000000000000000000081526004016108e69190612bc0565b60405180910390fd5b600061090383836108fe61166d565b611687565b90508373ffffffffffffffffffffffffffffffffffffffff168173ffffffffffffffffffffffffffffffffffffffff1614610979578382826040517f64283d7b0000000000000000000000000000000000000000000000000000000081526004016109709392919061338f565b60405180910390fd5b50505050565b6000600c600083815260200190815260200160002060010154905060006109a583610d7c565b90506000600754116109ec576040517f08c379a00000000000000000000000000000000000000000000000000000000081526004016109e390613412565b60405180910390fd5b8073ffffffffffffffffffffffffffffffffffffffff163373ffffffffffffffffffffffffffffffffffffffff1603610a5a576040517f08c379a0000000000000000000000000000000000000000000000000000000008152600401610a519061347e565b60405180910390fd5b813414610a9c576040517f08c379a0000000000000000000000000000000000000000000000000000000008152600401610a93906134ea565b60405180910390fd5b610aae81610aa861166d565b85610ceb565b505050565b6000610abe83610e40565b8210610aff576040517f08c379a0000000000000000000000000000000000000000000000000000000008152600401610af690613556565b60405180910390fd5b600e60008473ffffffffffffffffffffffffffffffffffffffff1673ffffffffffffffffffffffffffffffffffffffff168152602001908152602001600020600083815260200190815260200160002054905092915050565b60606000610b64610870565b905060008060075467ffffffffffffffff811115610b8557610b84612ffb565b5b604051908082528060200260200182016040528015610bbe57816020015b610bab61295b565b815260200190600190039081610ba35790505b50905060005b83811015610ce1576000610bd782610d0b565b90506000600c60008381526020019081526020016000209050600115158160020160149054906101000a900460ff16151503610ccc578060405180608001604052908160008201548152602001600182015481526020016002820160009054906101000a900473ffffffffffffffffffffffffffffffffffffffff1673ffffffffffffffffffffffffffffffffffffffff1673ffffffffffffffffffffffffffffffffffffffff1681526020016002820160149054906101000a900460ff161515151581525050848681518110610cb157610cb0613576565b5b6020026020010181905250600185610cc991906135d4565b94505b50508080610cd990613608565b915050610bc4565b5080935050505090565b610d06838383604051806020016040528060008152506111c9565b505050565b6000610d15610870565b8210610d56576040517f08c379a0000000000000000000000000000000000000000000000000000000008152600401610d4d90613556565b60405180910390fd5b60098281548110610d6a57610d69613576565b5b90600052602060002001549050919050565b6000610d87826115a8565b9050919050565b610d9661295b565b600c600083815260200190815260200160002060405180608001604052908160008201548152602001600182015481526020016002820160009054906101000a900473ffffffffffffffffffffffffffffffffffffffff1673ffffffffffffffffffffffffffffffffffffffff1673ffffffffffffffffffffffffffffffffffffffff1681526020016002820160149054906101000a900460ff1615151515815250509050919050565b60008073ffffffffffffffffffffffffffffffffffffffff168273ffffffffffffffffffffffffffffffffffffffff1603610eb35760006040517f89c62b64000000000000000000000000000000000000000000000000000000008152600401610eaa9190612bc0565b60405180910390fd5b600360008373ffffffffffffffffffffffffffffffffffffffff1673ffffffffffffffffffffffffffffffffffffffff168152602001908152602001600020549050919050565b60606000610f0733610e40565b905060008167ffffffffffffffff811115610f2557610f24612ffb565b5b604051908082528060200260200182016040528015610f5e57816020015b610f4b61295b565b815260200190600190039081610f435790505b50905060005b82811015611055576000610f783383610ab3565b90506000600c600083815260200190815260200160002090508060405180608001604052908160008201548152602001600182015481526020016002820160009054906101000a900473ffffffffffffffffffffffffffffffffffffffff1673ffffffffffffffffffffffffffffffffffffffff1673ffffffffffffffffffffffffffffffffffffffff1681526020016002820160149054906101000a900460ff16151515158152505084848151811061103557611034613576565b5b60200260200101819052505050808061104d90613608565b915050610f64565b50809250505090565b606060098054806020026020016040519081016040528092919081815260200182805480156110ac57602002820191906000526020600020905b815481526020019060010190808311611098575b5050505050905090565b600080600c600084815260200190815260200160002060010154905080915050919050565b6000600754905090565b6060600180546110f49061335e565b80601f01602080910402602001604051908101604052809291908181526020018280546111209061335e565b801561116d5780601f106111425761010080835404028352916020019161116d565b820191906000526020600020905b81548152906001019060200180831161115057829003601f168201915b5050505050905090565b61118961118261166d565b83836117a4565b5050565b600060011515600b836040516111a3919061368c565b908152602001604051809103902060009054906101000a900460ff161515149050919050565b6111d484848461087d565b6111e084848484611913565b50505050565b60006111f18361118d565b15611231576040517f08c379a0000000000000000000000000000000000000000000000000000000008152600401611228906136ef565b60405180910390fd5b600a543414611275576040517f08c379a000000000000000000000000000000000000000000000000000000000815260040161126c90613781565b60405180910390fd5b60016008600082825461128891906135d4565b925050819055506001600760008282546112a291906135d4565b92505081905550600060085490506112ba3382611aca565b6112c48185611ae8565b6001600b856040516112d6919061368c565b908152602001604051809103902060006101000a81548160ff0219169083151502179055506113058184611b44565b8091505092915050565b600a5481565b6060611320826115a8565b5060006006600084815260200190815260200160002080546113419061335e565b80601f016020809104026020016040519081016040528092919081815260200182805461136d9061335e565b80156113ba5780601f1061138f576101008083540402835291602001916113ba565b820191906000526020600020905b81548152906001019060200180831161139d57829003601f168201915b5050505050905060006113cb611c94565b905060008151036113e0578192505050611423565b6000825111156114155780826040516020016113fd9291906137a1565b60405160208183030381529060405292505050611423565b61141e84611cab565b925050505b919050565b6000600754905090565b6000600560008473ffffffffffffffffffffffffffffffffffffffff1673ffffffffffffffffffffffffffffffffffffffff16815260200190815260200160002060008373ffffffffffffffffffffffffffffffffffffffff1673ffffffffffffffffffffffffffffffffffffffff16815260200190815260200160002060009054906101000a900460ff16905092915050565b60007f80ac58cd000000000000000000000000000000000000000000000000000000007bffffffffffffffffffffffffffffffffffffffffffffffffffffffff1916827bffffffffffffffffffffffffffffffffffffffffffffffffffffffff1916148061159157507f5b5e139f000000000000000000000000000000000000000000000000000000007bffffffffffffffffffffffffffffffffffffffffffffffffffffffff1916827bffffffffffffffffffffffffffffffffffffffffffffffffffffffff1916145b806115a157506115a082611d14565b5b9050919050565b6000806115b483611d7e565b9050600073ffffffffffffffffffffffffffffffffffffffff168173ffffffffffffffffffffffffffffffffffffffff160361162757826040517f7e27328900000000000000000000000000000000000000000000000000000000815260040161161e9190612c83565b60405180910390fd5b80915050919050565b60006004600083815260200190815260200160002060009054906101000a900473ffffffffffffffffffffffffffffffffffffffff169050919050565b600033905090565b6116828383836001611dbb565b505050565b600080611695858585611f80565b9050600073ffffffffffffffffffffffffffffffffffffffff168173ffffffffffffffffffffffffffffffffffffffff16036116d9576116d48461219a565b611718565b8473ffffffffffffffffffffffffffffffffffffffff168173ffffffffffffffffffffffffffffffffffffffff16146117175761171681856121e3565b5b5b600073ffffffffffffffffffffffffffffffffffffffff168573ffffffffffffffffffffffffffffffffffffffff160361175a5761175584612350565b611799565b8073ffffffffffffffffffffffffffffffffffffffff168573ffffffffffffffffffffffffffffffffffffffff1614611798576117978585612421565b5b5b809150509392505050565b600073ffffffffffffffffffffffffffffffffffffffff168273ffffffffffffffffffffffffffffffffffffffff160361181557816040517f5b08ba1800000000000000000000000000000000000000000000000000000000815260040161180c9190612bc0565b60405180910390fd5b80600560008573ffffffffffffffffffffffffffffffffffffffff1673ffffffffffffffffffffffffffffffffffffffff16815260200190815260200160002060008473ffffffffffffffffffffffffffffffffffffffff1673ffffffffffffffffffffffffffffffffffffffff16815260200190815260200160002060006101000a81548160ff0219169083151502179055508173ffffffffffffffffffffffffffffffffffffffff168373ffffffffffffffffffffffffffffffffffffffff167f17307eab39ab6107e8899845ad3d59bd9653f200f220920489ca2b5937696c31836040516119069190612a4f565b60405180910390a3505050565b60008373ffffffffffffffffffffffffffffffffffffffff163b1115611ac4578273ffffffffffffffffffffffffffffffffffffffff1663150b7a0261195761166d565b8685856040518563ffffffff1660e01b8152600401611979949392919061381a565b6020604051808303816000875af19250505080156119b557506040513d601f19601f820116820180604052508101906119b2919061387b565b60015b611a39573d80600081146119e5576040519150601f19603f3d011682016040523d82523d6000602084013e6119ea565b606091505b506000815103611a3157836040517f64a0ae92000000000000000000000000000000000000000000000000000000008152600401611a289190612bc0565b60405180910390fd5b805181602001fd5b63150b7a0260e01b7bffffffffffffffffffffffffffffffffffffffffffffffffffffffff1916817bffffffffffffffffffffffffffffffffffffffffffffffffffffffff191614611ac257836040517f64a0ae92000000000000000000000000000000000000000000000000000000008152600401611ab99190612bc0565b60405180910390fd5b505b50505050565b611ae48282604051806020016040528060008152506124a0565b5050565b80600660008481526020019081526020016000209081611b089190613a54565b507ff8e1a15aba9398e019f0b49df1a4fde98ee17ae345cb5f6b5e2c27f5033e8ce782604051611b389190612c83565b60405180910390a15050565b60008111611b87576040517f08c379a0000000000000000000000000000000000000000000000000000000008152600401611b7e90613b72565b60405180910390fd5b60405180608001604052808381526020018281526020013373ffffffffffffffffffffffffffffffffffffffff16815260200160011515815250600c6000848152602001908152602001600020600082015181600001556020820151816001015560408201518160020160006101000a81548173ffffffffffffffffffffffffffffffffffffffff021916908373ffffffffffffffffffffffffffffffffffffffff16021790555060608201518160020160146101000a81548160ff0219169083151502179055509050507f470031062672bc0246e132c723a729c4676710ec663a29e86c88678032daddea8282336001604051611c889493929190613b92565b60405180910390a15050565b606060405180602001604052806000815250905090565b6060611cb6826115a8565b506000611cc1611c94565b90506000815111611ce15760405180602001604052806000815250611d0c565b80611ceb846124bc565b604051602001611cfc9291906137a1565b6040516020818303038152906040525b915050919050565b60007f01ffc9a7000000000000000000000000000000000000000000000000000000007bffffffffffffffffffffffffffffffffffffffffffffffffffffffff1916827bffffffffffffffffffffffffffffffffffffffffffffffffffffffff1916149050919050565b60006002600083815260200190815260200160002060009054906101000a900473ffffffffffffffffffffffffffffffffffffffff169050919050565b8080611df45750600073ffffffffffffffffffffffffffffffffffffffff168273ffffffffffffffffffffffffffffffffffffffff1614155b15611f28576000611e04846115a8565b9050600073ffffffffffffffffffffffffffffffffffffffff168373ffffffffffffffffffffffffffffffffffffffff1614158015611e6f57508273ffffffffffffffffffffffffffffffffffffffff168173ffffffffffffffffffffffffffffffffffffffff1614155b8015611e825750611e808184611432565b155b15611ec457826040517fa9fbf51f000000000000000000000000000000000000000000000000000000008152600401611ebb9190612bc0565b60405180910390fd5b8115611f2657838573ffffffffffffffffffffffffffffffffffffffff168273ffffffffffffffffffffffffffffffffffffffff167f8c5be1e5ebec7d5bd14f71427d1e84f3dd0314c0f7b2291e5b200ac8c7c3b92560405160405180910390a45b505b836004600085815260200190815260200160002060006101000a81548173ffffffffffffffffffffffffffffffffffffffff021916908373ffffffffffffffffffffffffffffffffffffffff16021790555050505050565b600080611f8c84611d7e565b9050600073ffffffffffffffffffffffffffffffffffffffff168373ffffffffffffffffffffffffffffffffffffffff1614611fce57611fcd81848661258a565b5b600073ffffffffffffffffffffffffffffffffffffffff168173ffffffffffffffffffffffffffffffffffffffff161461205f57612010600085600080611dbb565b6001600360008373ffffffffffffffffffffffffffffffffffffffff1673ffffffffffffffffffffffffffffffffffffffff168152602001908152602001600020600082825403925050819055505b600073ffffffffffffffffffffffffffffffffffffffff168573ffffffffffffffffffffffffffffffffffffffff16146120e2576001600360008773ffffffffffffffffffffffffffffffffffffffff1673ffffffffffffffffffffffffffffffffffffffff168152602001908152602001600020600082825401925050819055505b846002600086815260200190815260200160002060006101000a81548173ffffffffffffffffffffffffffffffffffffffff021916908373ffffffffffffffffffffffffffffffffffffffff160217905550838573ffffffffffffffffffffffffffffffffffffffff168273ffffffffffffffffffffffffffffffffffffffff167fddf252ad1be2c89b69c2b068fc378daa952ba7f163c4a11628f55a4df523b3ef60405160405180910390a4809150509392505050565b600980549050600d600083815260200190815260200160002081905550600981908060018154018082558091505060019003906000526020600020016000909190919091505550565b600060016121f084610e40565b6121fa9190613bd7565b90506000600d60008481526020019081526020016000205490508181146122df576000600e60008673ffffffffffffffffffffffffffffffffffffffff1673ffffffffffffffffffffffffffffffffffffffff168152602001908152602001600020600084815260200190815260200160002054905080600e60008773ffffffffffffffffffffffffffffffffffffffff1673ffffffffffffffffffffffffffffffffffffffff16815260200190815260200160002060008481526020019081526020016000208190555081600f600083815260200190815260200160002081905550505b600f600084815260200190815260200160002060009055600e60008573ffffffffffffffffffffffffffffffffffffffff1673ffffffffffffffffffffffffffffffffffffffff16815260200190815260200160002060008381526020019081526020016000206000905550505050565b600060016009805490506123649190613bd7565b90506000600d600084815260200190815260200160002054905060006009838154811061239457612393613576565b5b9060005260206000200154905080600983815481106123b6576123b5613576565b5b906000526020600020018190555081600d600083815260200190815260200160002081905550600d600085815260200190815260200160002060009055600980548061240557612404613c0b565b5b6001900381819060005260206000200160009055905550505050565b600061242c83610e40565b905081600e60008573ffffffffffffffffffffffffffffffffffffffff1673ffffffffffffffffffffffffffffffffffffffff16815260200190815260200160002060008381526020019081526020016000208190555080600f600084815260200190815260200160002081905550505050565b6124aa838361264e565b6124b76000848484611913565b505050565b6060600060016124cb84612747565b01905060008167ffffffffffffffff8111156124ea576124e9612ffb565b5b6040519080825280601f01601f19166020018201604052801561251c5781602001600182028036833780820191505090505b509050600082602001820190505b60011561257f578080600190039150507f3031323334353637383961626364656600000000000000000000000000000000600a86061a8153600a858161257357612572613c3a565b5b0494506000850361252a575b819350505050919050565b61259583838361289a565b61264957600073ffffffffffffffffffffffffffffffffffffffff168373ffffffffffffffffffffffffffffffffffffffff160361260a57806040517f7e2732890000000000000000000000000000000000000000000000000000000081526004016126019190612c83565b60405180910390fd5b81816040517f177e802f000000000000000000000000000000000000000000000000000000008152600401612640929190613c69565b60405180910390fd5b505050565b600073ffffffffffffffffffffffffffffffffffffffff168273ffffffffffffffffffffffffffffffffffffffff16036126c05760006040517f64a0ae920000000000000000000000000000000000000000000000000000000081526004016126b79190612bc0565b60405180910390fd5b60006126ce83836000611687565b9050600073ffffffffffffffffffffffffffffffffffffffff168173ffffffffffffffffffffffffffffffffffffffff16146127425760006040517f73c6ac6e0000000000000000000000000000000000000000000000000000000081526004016127399190612bc0565b60405180910390fd5b505050565b600080600090507a184f03e93ff9f4daa797ed6e38ed64bf6a1f01000000000000000083106127a5577a184f03e93ff9f4daa797ed6e38ed64bf6a1f010000000000000000838161279b5761279a613c3a565b5b0492506040810190505b6d04ee2d6d415b85acef810000000083106127e2576d04ee2d6d415b85acef810000000083816127d8576127d7613c3a565b5b0492506020810190505b662386f26fc10000831061281157662386f26fc10000838161280757612806613c3a565b5b0492506010810190505b6305f5e100831061283a576305f5e10083816128305761282f613c3a565b5b0492506008810190505b612710831061285f57612710838161285557612854613c3a565b5b0492506004810190505b60648310612882576064838161287857612877613c3a565b5b0492506002810190505b600a8310612891576001810190505b80915050919050565b60008073ffffffffffffffffffffffffffffffffffffffff168373ffffffffffffffffffffffffffffffffffffffff161415801561295257508273ffffffffffffffffffffffffffffffffffffffff168473ffffffffffffffffffffffffffffffffffffffff16148061291357506129128484611432565b5b8061295157508273ffffffffffffffffffffffffffffffffffffffff1661293983611630565b73ffffffffffffffffffffffffffffffffffffffff16145b5b90509392505050565b60405180608001604052806000815260200160008152602001600073ffffffffffffffffffffffffffffffffffffffff1681526020016000151581525090565b6000604051905090565b600080fd5b600080fd5b60007fffffffff0000000000000000000000000000000000000000000000000000000082169050919050565b6129e4816129af565b81146129ef57600080fd5b50565b600081359050612a01816129db565b92915050565b600060208284031215612a1d57612a1c6129a5565b5b6000612a2b848285016129f2565b91505092915050565b60008115159050919050565b612a4981612a34565b82525050565b6000602082019050612a646000830184612a40565b92915050565b600081519050919050565b600082825260208201905092915050565b60005b83811015612aa4578082015181840152602081019050612a89565b60008484015250505050565b6000601f19601f8301169050919050565b6000612acc82612a6a565b612ad68185612a75565b9350612ae6818560208601612a86565b612aef81612ab0565b840191505092915050565b60006020820190508181036000830152612b148184612ac1565b905092915050565b6000819050919050565b612b2f81612b1c565b8114612b3a57600080fd5b50565b600081359050612b4c81612b26565b92915050565b600060208284031215612b6857612b676129a5565b5b6000612b7684828501612b3d565b91505092915050565b600073ffffffffffffffffffffffffffffffffffffffff82169050919050565b6000612baa82612b7f565b9050919050565b612bba81612b9f565b82525050565b6000602082019050612bd56000830184612bb1565b92915050565b612be481612b9f565b8114612bef57600080fd5b50565b600081359050612c0181612bdb565b92915050565b60008060408385031215612c1e57612c1d6129a5565b5b6000612c2c85828601612bf2565b9250506020612c3d85828601612b3d565b9150509250929050565b600060208284031215612c5d57612c5c6129a5565b5b6000612c6b84828501612bf2565b91505092915050565b612c7d81612b1c565b82525050565b6000602082019050612c986000830184612c74565b92915050565b600080600060608486031215612cb757612cb66129a5565b5b6000612cc586828701612bf2565b9350506020612cd686828701612bf2565b9250506040612ce786828701612b3d565b9150509250925092565b600081519050919050565b600082825260208201905092915050565b6000819050602082019050919050565b612d2681612b1c565b82525050565b612d3581612b9f565b82525050565b612d4481612a34565b82525050565b608082016000820151612d606000850182612d1d565b506020820151612d736020850182612d1d565b506040820151612d866040850182612d2c565b506060820151612d996060850182612d3b565b50505050565b6000612dab8383612d4a565b60808301905092915050565b6000602082019050919050565b6000612dcf82612cf1565b612dd98185612cfc565b9350612de483612d0d565b8060005b83811015612e15578151612dfc8882612d9f565b9750612e0783612db7565b925050600181019050612de8565b5085935050505092915050565b60006020820190508181036000830152612e3c8184612dc4565b905092915050565b608082016000820151612e5a6000850182612d1d565b506020820151612e6d6020850182612d1d565b506040820151612e806040850182612d2c565b506060820151612e936060850182612d3b565b50505050565b6000608082019050612eae6000830184612e44565b92915050565b600081519050919050565b600082825260208201905092915050565b6000819050602082019050919050565b6000612eec8383612d1d565b60208301905092915050565b6000602082019050919050565b6000612f1082612eb4565b612f1a8185612ebf565b9350612f2583612ed0565b8060005b83811015612f56578151612f3d8882612ee0565b9750612f4883612ef8565b925050600181019050612f29565b5085935050505092915050565b60006020820190508181036000830152612f7d8184612f05565b905092915050565b612f8e81612a34565b8114612f9957600080fd5b50565b600081359050612fab81612f85565b92915050565b60008060408385031215612fc857612fc76129a5565b5b6000612fd685828601612bf2565b9250506020612fe785828601612f9c565b9150509250929050565b600080fd5b600080fd5b7f4e487b7100000000000000000000000000000000000000000000000000000000600052604160045260246000fd5b61303382612ab0565b810181811067ffffffffffffffff8211171561305257613051612ffb565b5b80604052505050565b600061306561299b565b9050613071828261302a565b919050565b600067ffffffffffffffff82111561309157613090612ffb565b5b61309a82612ab0565b9050602081019050919050565b82818337600083830152505050565b60006130c96130c484613076565b61305b565b9050828152602081018484840111156130e5576130e4612ff6565b5b6130f08482856130a7565b509392505050565b600082601f83011261310d5761310c612ff1565b5b813561311d8482602086016130b6565b91505092915050565b60006020828403121561313c5761313b6129a5565b5b600082013567ffffffffffffffff81111561315a576131596129aa565b5b613166848285016130f8565b91505092915050565b600067ffffffffffffffff82111561318a57613189612ffb565b5b61319382612ab0565b9050602081019050919050565b60006131b36131ae8461316f565b61305b565b9050828152602081018484840111156131cf576131ce612ff6565b5b6131da8482856130a7565b509392505050565b600082601f8301126131f7576131f6612ff1565b5b81356132078482602086016131a0565b91505092915050565b6000806000806080858703121561322a576132296129a5565b5b600061323887828801612bf2565b945050602061324987828801612bf2565b935050604061325a87828801612b3d565b925050606085013567ffffffffffffffff81111561327b5761327a6129aa565b5b613287878288016131e2565b91505092959194509250565b600080604083850312156132aa576132a96129a5565b5b600083013567ffffffffffffffff8111156132c8576132c76129aa565b5b6132d4858286016130f8565b92505060206132e585828601612b3d565b9150509250929050565b60008060408385031215613306576133056129a5565b5b600061331485828601612bf2565b925050602061332585828601612bf2565b9150509250929050565b7f4e487b7100000000000000000000000000000000000000000000000000000000600052602260045260246000fd5b6000600282049050600182168061337657607f821691505b6020821081036133895761338861332f565b5b50919050565b60006060820190506133a46000830186612bb1565b6133b16020830185612c74565b6133be6040830184612bb1565b949350505050565b7f546865726520617265206e6f204e46547320666f722073616c65000000000000600082015250565b60006133fc601a83612a75565b9150613407826133c6565b602082019050919050565b6000602082019050818103600083015261342b816133ef565b9050919050565b7f596f7520616c7265616479206f776e2074686973204e46540000000000000000600082015250565b6000613468601883612a75565b915061347382613432565b602082019050919050565b600060208201905081810360008301526134978161345b565b9050919050565b7f506c656173652c207375626d6974207468652061736b696e6720707269636500600082015250565b60006134d4601f83612a75565b91506134df8261349e565b602082019050919050565b60006020820190508181036000830152613503816134c7565b9050919050565b7f496e646578206f7574206f6620626f756e647300000000000000000000000000600082015250565b6000613540601383612a75565b915061354b8261350a565b602082019050919050565b6000602082019050818103600083015261356f81613533565b9050919050565b7f4e487b7100000000000000000000000000000000000000000000000000000000600052603260045260246000fd5b7f4e487b7100000000000000000000000000000000000000000000000000000000600052601160045260246000fd5b60006135df82612b1c565b91506135ea83612b1c565b9250828201905080821115613602576136016135a5565b5b92915050565b600061361382612b1c565b91507fffffffffffffffffffffffffffffffffffffffffffffffffffffffffffffffff8203613645576136446135a5565b5b600182019050919050565b600081905092915050565b600061366682612a6a565b6136708185613650565b9350613680818560208601612a86565b80840191505092915050565b6000613698828461365b565b915081905092915050565b7f546f6b656e2055524920616c7265616479206578697374730000000000000000600082015250565b60006136d9601883612a75565b91506136e4826136a3565b602082019050919050565b60006020820190508181036000830152613708816136cc565b9050919050565b7f5072696365206d75737420626520657175616c206c697374696e67207072696360008201527f6500000000000000000000000000000000000000000000000000000000000000602082015250565b600061376b602183612a75565b91506137768261370f565b604082019050919050565b6000602082019050818103600083015261379a8161375e565b9050919050565b60006137ad828561365b565b91506137b9828461365b565b91508190509392505050565b600081519050919050565b600082825260208201905092915050565b60006137ec826137c5565b6137f681856137d0565b9350613806818560208601612a86565b61380f81612ab0565b840191505092915050565b600060808201905061382f6000830187612bb1565b61383c6020830186612bb1565b6138496040830185612c74565b818103606083015261385b81846137e1565b905095945050505050565b600081519050613875816129db565b92915050565b600060208284031215613891576138906129a5565b5b600061389f84828501613866565b91505092915050565b60008190508160005260206000209050919050565b60006020601f8301049050919050565b600082821b905092915050565b60006008830261390a7fffffffffffffffffffffffffffffffffffffffffffffffffffffffffffffffff826138cd565b61391486836138cd565b95508019841693508086168417925050509392505050565b6000819050919050565b600061395161394c61394784612b1c565b61392c565b612b1c565b9050919050565b6000819050919050565b61396b83613936565b61397f61397782613958565b8484546138da565b825550505050565b600090565b613994613987565b61399f818484613962565b505050565b5b818110156139c3576139b860008261398c565b6001810190506139a5565b5050565b601f821115613a08576139d9816138a8565b6139e2846138bd565b810160208510156139f1578190505b613a056139fd856138bd565b8301826139a4565b50505b505050565b600082821c905092915050565b6000613a2b60001984600802613a0d565b1980831691505092915050565b6000613a448383613a1a565b9150826002028217905092915050565b613a5d82612a6a565b67ffffffffffffffff811115613a7657613a75612ffb565b5b613a80825461335e565b613a8b8282856139c7565b600060209050601f831160018114613abe5760008415613aac578287015190505b613ab68582613a38565b865550613b1e565b601f198416613acc866138a8565b60005b82811015613af457848901518255600182019150602085019450602081019050613acf565b86831015613b115784890151613b0d601f891682613a1a565b8355505b6001600288020188555050505b505050505050565b7f7072696365206d6f7374206265206174206c6561737420312077656900000000600082015250565b6000613b5c601c83612a75565b9150613b6782613b26565b602082019050919050565b60006020820190508181036000830152613b8b81613b4f565b9050919050565b6000608082019050613ba76000830187612c74565b613bb46020830186612c74565b613bc16040830185612bb1565b613bce6060830184612a40565b95945050505050565b6000613be282612b1c565b9150613bed83612b1c565b9250828203905081811115613c0557613c046135a5565b5b92915050565b7f4e487b7100000000000000000000000000000000000000000000000000000000600052603160045260246000fd5b7f4e487b7100000000000000000000000000000000000000000000000000000000600052601260045260246000fd5b6000604082019050613c7e6000830185612bb1565b613c8b6020830184612c74565b939250505056fea26469706673582212209e70650654805c37e59591ccdafc8e9a6bf8a9806b7812bfd6831f4b7ad5a07964736f6c63430008140033",
  "immutableReferences": {},
  "source": "// SPDX-License-Identifier: MIT\r\n// Compatible with OpenZeppelin Contracts ^5.0.0\r\npragma solidity ^0.8.20;\r\n\r\nimport \"@openzeppelin/contracts/token/ERC721/extensions/ERC721URIStorage.sol\";\r\n// import \"@openzeppelin/contracts/token/ERC721/ERC721.sol\";\r\n\r\ncontract NftMarket is ERC721URIStorage {\r\n    uint256 private _listedItems;\r\n    uint256 private _tokenIds;\r\n    uint256[] private _allNfts;\r\n\r\n    uint public listingPrice = 0.25 ether;\r\n\r\n    mapping(string => bool) private _usedTokenURIs;\r\n    mapping(uint => NftItem) private _idToNftItem;\r\n    mapping(uint => uint) private _idToNftIndex;\r\n    mapping(address => mapping(uint => uint)) private _ownedTokens;\r\n    mapping(uint => uint) private _idToOwnedIndex;\r\n\r\n    struct NftItem {\r\n        uint tokenId;\r\n        uint price;\r\n        address creator;\r\n        bool isListed;\r\n    }\r\n\r\n    event NftItemCreated(\r\n        uint tokenId,\r\n        uint price,\r\n        address creator,\r\n        bool isListed\r\n    );\r\n\r\n    constructor() ERC721(\"CreaturesNFT\", \"CNFT\") {}\r\n\r\n    function tokenURIExist(string memory tokenURI) public view returns (bool) {\r\n        return _usedTokenURIs[tokenURI] == true;\r\n    }\r\n\r\n    function totalSupply() public view returns (uint) {\r\n        return _allNfts.length;\r\n    }\r\n\r\n    function tokenByIndex(uint index) public view returns (uint) {\r\n        require(index < totalSupply(), \"Index out of bounds\");\r\n        return _allNfts[index];\r\n    }\r\n\r\n    function tokenOfOwnerByIndex(\r\n        address owner,\r\n        uint index\r\n    ) public view returns (uint) {\r\n        require(index < ERC721.balanceOf(owner), \"Index out of bounds\");\r\n        return _ownedTokens[owner][index];\r\n    }\r\n\r\n    function getAllNftsOnSale() public view returns (NftItem[] memory) {\r\n        uint allItemsCounts = totalSupply();\r\n        uint currectIndex = 0;\r\n        NftItem[] memory items = new NftItem[](_listedItems);\r\n\r\n        for (uint256 index = 0; index < allItemsCounts; index++) {\r\n            uint tokenId = tokenByIndex(index);\r\n            NftItem storage item = _idToNftItem[tokenId];\r\n\r\n            if (item.isListed == true) {\r\n                items[currectIndex] = item;\r\n                currectIndex += 1;\r\n            }\r\n        }\r\n        return items;\r\n    }\r\n\r\n    function getOwnedNfts() public view returns (NftItem[] memory) {\r\n        uint ownedItemsCount = ERC721.balanceOf(msg.sender);\r\n        NftItem[] memory items = new NftItem[](ownedItemsCount);\r\n\r\n        // uint tokenId = tokenOfOwnerByIndex(msg.sender, 0);\r\n        // NftItem storage item = _idToNftItem[tokenId];\r\n        // items[0] = item;\r\n        for (uint i = 0; i < ownedItemsCount; i++) {\r\n            uint tokenId = tokenOfOwnerByIndex(msg.sender, i);\r\n            NftItem storage item = _idToNftItem[tokenId];\r\n            items[i] = item;\r\n        }\r\n\r\n        return items;\r\n    }\r\n\r\n    function createNftItem(uint tokenId, uint price) private {\r\n        require(price > 0, \"price most be at least 1 wei\");\r\n        _idToNftItem[tokenId] = NftItem(tokenId, price, msg.sender, true);\r\n        emit NftItemCreated(tokenId, price, msg.sender, true);\r\n    }\r\n\r\n    function getNftItem(uint tokenId) public view returns (NftItem memory) {\r\n        return _idToNftItem[tokenId];\r\n    }\r\n\r\n    function listedItemsCount() public view returns (uint) {\r\n        return _listedItems;\r\n    }\r\n\r\n    function mintToken(\r\n        string memory tokenURI,\r\n        uint price\r\n    ) public payable returns (uint) {\r\n        require(!tokenURIExist(tokenURI), \"Token URI already exists\");\r\n        require(msg.value == listingPrice, \"Price must be equal listing price\");\r\n\r\n        _tokenIds += 1;\r\n        _listedItems += 1;\r\n\r\n        uint newTokenId = _tokenIds;\r\n\r\n        _safeMint(msg.sender, newTokenId);\r\n        _setTokenURI(newTokenId, tokenURI);\r\n        _usedTokenURIs[tokenURI] = true;\r\n        createNftItem(newTokenId, price);\r\n\r\n        return newTokenId;\r\n    }\r\n\r\n    function buyNft(uint tokenId) public payable {\r\n        uint price = _idToNftItem[tokenId].price;\r\n        address owner = ERC721.ownerOf(tokenId);\r\n\r\n        require(_listedItems > 0, \"There are no NFTs for sale\");\r\n        require(msg.sender != owner, \"You already own this NFT\");\r\n        require(msg.value == price, \"Please, submit the asking price\");\r\n\r\n        safeTransferFrom(owner, _msgSender(), tokenId);\r\n\r\n       \r\n        // payable(owner).transfer(msg.value);\r\n\r\n        // _idToNftItem[tokenId].isListed = false;\r\n        // _listedItems = _listedItems - 1;\r\n    }\r\n\r\n    // function buyNft(uint tokenId) public payable {\r\n    //     uint price = _idToNftItem[tokenId].price;\r\n    //     address owner = ERC721.ownerOf(tokenId);\r\n\r\n    //     require(msg.sender != owner, \"You already own this NFT\");\r\n    //     require(msg.value == price, \"Please submit the asking price\");\r\n\r\n    //     _idToNftItem[tokenId].isListed = false;\r\n    //     _listedItems.decrement();\r\n\r\n    //     _transfer(owner, msg.sender, tokenId);\r\n    //     payable(owner).transfer(msg.value);\r\n    // }\r\n\r\n    function _update(\r\n        address to,\r\n        uint256 tokenId,\r\n        address auth\r\n    ) internal virtual override returns (address) {\r\n        address previousOwner = super._update(to, tokenId, auth);\r\n\r\n        if (previousOwner == address(0)) {\r\n            _addTokenToAllTokensEnumeration(tokenId);\r\n        } else if (previousOwner != to) {\r\n            _removeTokenFromOwnerEnumeration(previousOwner, tokenId);\r\n        }\r\n\r\n        if (to == address(0)) {\r\n            _removeTokenFromAllTokensEnumeration(tokenId);\r\n        } else if (to != previousOwner) {\r\n            _addTokenToOwnerEnumeration(to, tokenId);\r\n        }\r\n\r\n        return previousOwner;\r\n    }\r\n\r\n    function _addTokenToAllTokensEnumeration(uint tokenId) private {\r\n        _idToNftIndex[tokenId] = _allNfts.length;\r\n        _allNfts.push(tokenId);\r\n    }\r\n\r\n    function _addTokenToOwnerEnumeration(address to, uint tokenId) private {\r\n        uint length = ERC721.balanceOf(to);\r\n        _ownedTokens[to][length] = tokenId;\r\n        _idToOwnedIndex[tokenId] = length;\r\n    }\r\n\r\n    function _removeTokenFromOwnerEnumeration(\r\n        address from,\r\n        uint tokenId\r\n    ) private {\r\n        uint lastTokenIndex = ERC721.balanceOf(from) - 1;\r\n        uint tokenIndex = _idToNftIndex[tokenId];\r\n\r\n        if (tokenIndex != lastTokenIndex) {\r\n            uint lastTokenId = _ownedTokens[from][lastTokenIndex];\r\n            _ownedTokens[from][tokenIndex] = lastTokenId;\r\n            _idToOwnedIndex[lastTokenId] = tokenIndex;\r\n        }\r\n\r\n        delete _idToOwnedIndex[tokenId];\r\n        delete _ownedTokens[from][lastTokenIndex];\r\n    }\r\n\r\n    function _removeTokenFromAllTokensEnumeration(uint tokenId) private {\r\n        uint lastTokenIndex = _allNfts.length - 1;\r\n        uint tokenIndex = _idToNftIndex[tokenId];\r\n        uint lastTokenId = _allNfts[lastTokenIndex];\r\n\r\n        _allNfts[tokenIndex] = lastTokenId;\r\n        _idToNftIndex[lastTokenId] = tokenIndex;\r\n\r\n        delete _idToNftIndex[tokenId];\r\n        _allNfts.pop();\r\n    }\r\n\r\n    // test function\r\n\r\n    function getBalanceByAddress(address owner) public view returns (uint) {\r\n        uint balance = ERC721.balanceOf(owner);\r\n        return balance;\r\n    }\r\n\r\n    function getAllNfts() public view returns (uint[] memory) {\r\n        return _allNfts;\r\n    }\r\n\r\n    function get_listedItems() public view returns (uint256) {\r\n        return _listedItems;\r\n    }\r\n\r\n    function getOwnerOf(uint tokenId) public view returns (uint) {\r\n        uint price = _idToNftItem[tokenId].price;\r\n        return price;\r\n    }\r\n}\r\n",
  "sourcePath": "D:\\Programming\\project\\NFT-marketplace-git\\NFT-marketplace\\nft-marketplace\\contracts\\NftMarket.sol",
  "compiler": {
    "name": "solc",
    "version": "0.8.20+commit.a1b79de6.Emscripten.clang"
  },
  "schemaVersion": "3.4.16",
  "updatedAt": "2024-09-24T18:05:20.343Z",
  "networkType": "ethereum",
  "devdoc": {
    "errors": {
      "ERC721IncorrectOwner(address,uint256,address)": [
        {
          "details": "Indicates an error related to the ownership over a particular token. Used in transfers.",
          "params": {
            "owner": "Address of the current owner of a token.",
            "sender": "Address whose tokens are being transferred.",
            "tokenId": "Identifier number of a token."
          }
        }
      ],
      "ERC721InsufficientApproval(address,uint256)": [
        {
          "details": "Indicates a failure with the `operator`s approval. Used in transfers.",
          "params": {
            "operator": "Address that may be allowed to operate on tokens without being their owner.",
            "tokenId": "Identifier number of a token."
          }
        }
      ],
      "ERC721InvalidApprover(address)": [
        {
          "details": "Indicates a failure with the `approver` of a token to be approved. Used in approvals.",
          "params": {
            "approver": "Address initiating an approval operation."
          }
        }
      ],
      "ERC721InvalidOperator(address)": [
        {
          "details": "Indicates a failure with the `operator` to be approved. Used in approvals.",
          "params": {
            "operator": "Address that may be allowed to operate on tokens without being their owner."
          }
        }
      ],
      "ERC721InvalidOwner(address)": [
        {
          "details": "Indicates that an address can't be an owner. For example, `address(0)` is a forbidden owner in EIP-20. Used in balance queries.",
          "params": {
            "owner": "Address of the current owner of a token."
          }
        }
      ],
      "ERC721InvalidReceiver(address)": [
        {
          "details": "Indicates a failure with the token `receiver`. Used in transfers.",
          "params": {
            "receiver": "Address to which tokens are being transferred."
          }
        }
      ],
      "ERC721InvalidSender(address)": [
        {
          "details": "Indicates a failure with the token `sender`. Used in transfers.",
          "params": {
            "sender": "Address whose tokens are being transferred."
          }
        }
      ],
      "ERC721NonexistentToken(uint256)": [
        {
          "details": "Indicates a `tokenId` whose `owner` is the zero address.",
          "params": {
            "tokenId": "Identifier number of a token."
          }
        }
      ]
    },
    "events": {
      "Approval(address,address,uint256)": {
        "details": "Emitted when `owner` enables `approved` to manage the `tokenId` token."
      },
      "ApprovalForAll(address,address,bool)": {
        "details": "Emitted when `owner` enables or disables (`approved`) `operator` to manage all of its assets."
      },
      "BatchMetadataUpdate(uint256,uint256)": {
        "details": "This event emits when the metadata of a range of tokens is changed. So that the third-party platforms such as NFT market could timely update the images and related attributes of the NFTs."
      },
      "MetadataUpdate(uint256)": {
        "details": "This event emits when the metadata of a token is changed. So that the third-party platforms such as NFT market could timely update the images and related attributes of the NFT."
      },
      "Transfer(address,address,uint256)": {
        "details": "Emitted when `tokenId` token is transferred from `from` to `to`."
      }
    },
    "kind": "dev",
    "methods": {
      "approve(address,uint256)": {
        "details": "See {IERC721-approve}."
      },
      "balanceOf(address)": {
        "details": "See {IERC721-balanceOf}."
      },
      "getApproved(uint256)": {
        "details": "See {IERC721-getApproved}."
      },
      "isApprovedForAll(address,address)": {
        "details": "See {IERC721-isApprovedForAll}."
      },
      "name()": {
        "details": "See {IERC721Metadata-name}."
      },
      "ownerOf(uint256)": {
        "details": "See {IERC721-ownerOf}."
      },
      "safeTransferFrom(address,address,uint256)": {
        "details": "See {IERC721-safeTransferFrom}."
      },
      "safeTransferFrom(address,address,uint256,bytes)": {
        "details": "See {IERC721-safeTransferFrom}."
      },
      "setApprovalForAll(address,bool)": {
        "details": "See {IERC721-setApprovalForAll}."
      },
      "supportsInterface(bytes4)": {
        "details": "See {IERC165-supportsInterface}"
      },
      "symbol()": {
        "details": "See {IERC721Metadata-symbol}."
      },
      "tokenURI(uint256)": {
        "details": "See {IERC721Metadata-tokenURI}."
      },
      "transferFrom(address,address,uint256)": {
        "details": "See {IERC721-transferFrom}."
      }
    },
    "version": 1
  },
  "userdoc": {
    "kind": "user",
    "methods": {},
    "version": 1
  }
}